:020000040800F2
:100000000000012059940008550A0008570A00080A
:10001000590A00085B0A00085D0A00080000000099
:100020000000000000000000000000002190000817
:100030005F0A000800000000C19000080591000858
:10004000A1940008A1940008A1940008A1940008BC
:10005000A1940008A1940008A1940008A1940008AC
:10006000A1940008A1940008A1940008A19400089C
:10007000A1940008A1940008A1940008A19400088C
:10008000A1940008A1940008A1940008A19400087C
:10009000A1940008A1940008A1940008A19400086C
:1000A000A1940008A1940008A1940008A19400085C
:1000B000610A0008A1940008A1940008A194000816
:1000C000A1940008A1940008A1940008A19400083C
:1000D000A1940008A1940008A1940008A19400082C
:1000E000A1940008A1940008A19400080000000059
:1000F0000000000000000000000000000000000000
:100100000000000000000000A1940008A194000875
:10011000A1940008A1940008A1940008A1940008EB
:10012000A1940008A1940008A1940008A1940008DB
:10013000A1940008A1940008A1940008A1940008CB
:10014000A1940008A1940008A1940008710A000875
:10015000000000000000000000000000000000009F
:10016000000000000000000000000000000000008F
:10017000000000000000000000000000000000007F
:10018000000000000000000000000000000000006F
:10019000000000000000000000000000000000005F
:1001A000000000000000000000000000000000004F
:1001B000000000000000000000000000000000003F
:1001C000000000000000000000000000000000002F
:1001D000000000000000000000000000000000001F
:0401E0005FF8E0F1F3
:1001F00010B5054C237833B9044B13B10448AFF361
:1002000000800123237010BDC80000200000000002
:100210008CF4000808B5034B1BB103490348AFF346
:10022000008008BD00000000CC0000208CF4000815
:1002300053B94AB9002908BF00281CBF4FF0FF314D
:100240004FF0FF3000F06EB9ADF1080C6DE904CE4F
:1002500000F006F8DDF804E0DDE9022304B07047A1
:100260002DE9F047089E0D4604468E46002B40F0CF
:1002700083808A42174647D9B2FA82F34BB1C3F161
:10028000200105FA03FE20FA01F19F4041EA0E0E1B
:100290009C404FEA1748BEFBF8FC1FFA87F908FBA1
:1002A0001CE20CFB09F0210C41EA024290420AD9FF
:1002B000BA180CF1FF3180F01881904240F215819C
:1002C000ACF1020C3A44121AB2FBF8F008FB10220F
:1002D00000FB09F1A4B244EA0244A14209D93C1945
:1002E00000F1FF3280F00381A14240F20081023828
:1002F0003C44641A002140EA0C401EB10022DC405C
:10030000C6E90042BDE8F08702B9FFDEB2FA82F327
:10031000002B4FD18D1A01214FEA124E1FFA82F89D
:10032000B5FBFEFC0EFB1C5508FB0CF0220C42EA50
:100330000545A84207D97D190CF1FF3202D2A84227
:1003400000F2E98094462D1AB5FBFEF00EFB105525
:1003500008FB00F8A4B244EA0544A04507D93C19BB
:1003600000F1FF3202D2A04500F2D9801046A4EB82
:10037000080440EA0C40C0E78B4208D9002E00F088
:10038000B1800021C6E900050846BDE8F087B3FA50
:1003900083F100294BD1AB4202D3824200F2B980F3
:1003A000841A65EB030301209E46002EAAD0C6E9FD
:1003B000004EA7E79F40C3F12002D1404FEA174EFD
:1003C000B1FBFEF01FFA87F80EFB101124FA02F2BF
:1003D0009D4000FB08FC2A43150C45EA0145AC454D
:1003E00004FA03F409D97D1900F1FF3180F08F8000
:1003F000AC4540F28C8002383D44A5EB0C05B5FBC2
:10040000FEF10EFB115C01FB08F995B245EA0C45C3
:10041000A94507D97D1901F1FF3274D2A94572D9D6
:1004200002393D44A5EB090541EA004178E7C1F1F5
:1004300020078B4022FA07FC4CEA030C25FA07F44C
:100440004FEA1C4EB4FBFEF91FFA8CF80EFB194460
:1004500020FA07F309FB08FA8D401D432B0C43EAF1
:100460000444A24502FA01F200FA01F309D91CEB97
:10047000040409F1FF3048D2A24546D9A9F1020986
:100480006444A4EB0A04B4FBFEF00EFB104400FB32
:1004900008FAADB245EA0444A24508D91CEB0404AD
:1004A00000F1FF352DD2A2452BD90238644440EA31
:1004B0000940A0FB0289A4EB0A044C45C6464D4600
:1004C00019D316D05EB1B3EB0E0264EB050404FA47
:1004D00007F722FA01F31F43CC40C6E9007400215C
:1004E000BDE8F087314630460CE78C46EBE6104617
:1004F000FFE64345E6D2B8EB020E69EB0C05013886
:10050000E0E72846D3E711468CE78146B9E708467D
:1005100073E7084649E7ACF1020C3D4413E70238A3
:100520003C4424E7704700BF2DE9F04F8BB0002416
:100530000694079408940994624B9A6942F0400229
:100540009A619A6902F040020192019A9A6942F016
:1005500010029A619A6902F010020292029A9A6954
:1005600042F004029A619A6902F004020392039A2B
:100570009A6942F008029A619A6902F008020492AC
:10058000049A9A6942F020029A619B6903F0200361
:100590000593059BDFF838A101224FF6FF71504605
:1005A00003F0F6FB484E01224EF69C01304603F064
:1005B000EFFBDFF8209101224FF44071484603F031
:1005C000E7FBDFF8148101224FF44071404603F04D
:1005D000DFFB4FF6FF730693012507950894032769
:1005E000099706A9504603F0C3FA42F23003069376
:1005F0000794089406A9484603F0BAFA40F201436A
:10060000069307940894DFF8D4B006A9584603F07F
:10061000AFFA4FF4884306930794089406A940461E
:1006200003F0A6FA4FF4E06306930794089406A932
:10063000304603F09DFA4FF4006306930795089443
:10064000099506A9304603F093FA4FF460430693E8
:1006500007950894099706A9304603F089FA4FF4E4
:10066000407ACDF818A007950894099706A948463E
:1006700003F07EFA4FF4807306934FF00209CDF831
:100680001C90099706A9584603F072FA9C2306931A
:1006900007950894CDF8249006A9304603F068FA2F
:1006A000CDF818A007950894CDF8249006A94046E7
:1006B00003F05EFA054A536843F0E46353600BB0FD
:1006C000BDE8F08F0010024000140140000001401E
:1006D0000018014000100140000C014000080140DA
:1006E00008B50D480D4B03604FF48273436000233F
:1006F0008360C36002220261012242614FF40072F2
:1007000082610822C2610362436283620A23C36278
:1007100005F076F908BD00BF34CF0020003001405D
:1007200008B50C480C4B03604FF482734360002300
:100730008360C36002220261012242614FF40072B1
:100740008261C3610362436283620A23C36205F06C
:1007500057F908BDC8CE0020003C004010B582B05B
:100760000023ADF804308DF806300093144C154B7F
:1007700023604FF0FF3363604FF48073A360204623
:1007800005F0E0F815238DF8043012238DF80530BC
:1007900011238DF80630012201A9204604F0EBFF59
:1007A00001228DF800208DF801208DF802202023F1
:1007B0008DF803306946204605F03EF802B010BDC2
:1007C00020CF00200028004008B50848084B0360EF
:1007D0004FF4E133436000238360C36003610C2264
:1007E00042618361C36105F0AFF908BD8CCF002081
:1007F0000044004008B50348034B036006F080FE48
:1008000008BD00BFC0CE00200030024008B503F094
:10081000C7FD09F091FC404809F040FB4FF47F0010
:1008200009F026FB09F02CFC0A2009F0E9FAFF2068
:1008300009F029FB5A23DC220A2150200AF0AEF8E5
:100840000A23DC225A2150200AF0A8F8002009F0DF
:100850000FFB6FF07F4009F016FB002009F05EFBF4
:100860000A22A0212D4809F04BFE042009F056FB76
:100870001A22A0212A4809F043FE022009F04EFB6B
:100880002A22A021274809F03BFE012009F046FB5F
:100890003A22A021244809F033FE062009F03EFB4D
:1008A0004A22A021214809F02BFE214C00221146AA
:1008B000204609F011FE14220121204609F00CFE09
:1008C00028220521204609F007FE3C220A21204665
:1008D00009F002FE50221421204609F0FDFD642299
:1008E0003221204609F0F8FD78226421204609F0E3
:1008F000F3FD8C22C821204609F0EEFDA0224FF422
:100900009671204609F0E8FD04210A4803F046FAF2
:10091000642008F011F9F7E7A0010108680F010849
:10092000780F0108840F0108940F0108A00F010837
:10093000BC0F010800140140F0B59DB000241294D2
:10094000149409940A940B940C940D94202221463B
:1009500001A808F0E9FD09230E934FF480331093AA
:10096000042211920125139515950F9302261696D0
:1009700017934FF4E013189319964FF4C0631A932A
:1009800040271B970EA802F037FB0F2309930A9606
:100990000B944FF480630C930D94314609A802F038
:1009A00029FE112301934FF40073029308944FF42E
:1009B00000430693079701A802F016FF22464FF066
:1009C0003061204602F094FD074AD36A23F0F00319
:1009D0003B43D362D36A23F4704343F40043D362AE
:1009E000024B1D601DB0F0BD00100240700042427D
:1009F00000B589B002F0B2FAFFF79EFFFFF794FD51
:100A0000FFF76EFEFFF7AAFEFFF78AFEFFF7DCFE98
:100A1000FFF7F0FE01AC084D0FCD0FC495E80700BD
:100A200084E80700002101A808F04DF8034B186086
:100A300008F044F8FEE700BFA4F4000868CE0020E8
:100A400008B50368B3F1804F00D008BD02F098FAF2
:100A5000FBE770477047FEE7FEE7FEE7FEE77047FB
:100A600008B5024803F03CFA08BD00BF70D600206C
:100A700008B5024804F096F908BD00BFD0CF0020A9
:100A800082B00A4B9A6942F001029A619A6902F0B7
:100A900001020092009ADA6942F08052DA61DB6961
:100AA00003F080530193019B02B070470010024095
:100AB0000268094B9A4200D0704782B0A3F50053F8
:100AC0005A6942F040025A615B6903F040030193A6
:100AD000019B02B0704700BF0030024002680C4B1F
:100AE0009A4200D0704700B583B003F0B5F9094BC6
:100AF000DA6942F00062DA61DB6903F000630193B6
:100B0000019B054B01221A6003B05DF804FB00BF96
:100B100000280040001002403C04424210B588B05A
:100B20000023049305930693079303682F4A934287
:100B300004D02F4A934229D008B010BD2D4B9A699A
:100B400042F480529A619A6902F480520092009AAB
:100B50009A6942F004029A619B6903F004030193CD
:100B6000019BA02304930223059303230793224CA4
:100B700004A9204602F0FCFF4023049300230593C0
:100B8000069304A9204602F0F3FFD5E7194BDA6972
:100B900042F40042DA61DA6902F400420292029AF7
:100BA0009A6942F010029A619B6903F01003039363
:100BB000039B4FF4A053049302230593032307934D
:100BC0000E4C04A9204602F0D3FF4FF400630493B7
:100BD00000230593069304A9204602F0C9FF084AA2
:100BE000536843F0B8535360A6E700BF003001409C
:100BF000003C00400010024000080140001001408D
:100C00000000014010B586B00023029303930493C3
:100C1000059302681A4B9A4201D006B010BD03F545
:100C2000E633DA6942F40032DA61DA6902F400325A
:100C30000092009A9A6942F020029A619B6903F03F
:100C400020030193019B2023029302230393032398
:100C500005930C4C02A9204602F08AFF4023029320
:100C600000230393049302A9204602F081FF064A61
:100C7000536843F0E06343F008035360CDE700BFDF
:100C800000440040001401400000014082B00023F5
:100C90000193064B03FB00F30193019B1BB1019BE6
:100CA000013B0193F9E702B0704700BFA086010045
:100CB00082B0002301930A230193019B1BB1019B86
:100CC000013B0193F9E702B07047000000B585B021
:100CD000002303934FF6FF7200920193029369463B
:100CE000024802F045FF05B05DF804FB0018014022
:100CF00000B585B04FF6FF730093002302930323E2
:100D00000393012301936946024802F031FF05B0C5
:100D10005DF804FB0018014038B505460D4C002273
:100D20004FF40051204603F033F801224FF4004104
:100D3000204603F02DF8084BDD6000224FF480417F
:100D4000204603F025F801224FF48041204603F0AD
:100D50001FF838BD001401400018014038B50546A1
:100D60000D4C01224FF40051204603F011F80122EE
:100D70004FF40041204603F00BF8084BDD600022E1
:100D80004FF48041204603F003F801224FF48041E4
:100D9000204602F0FDFF38BD00140140001801405C
:100DA00070B5144D01224FF40051284602F0F0FFB7
:100DB00001224FF48041284602F0EAFF00224FF45E
:100DC0000041284602F0E4FF0B4C4FF044336360CF
:100DD0002360FFF76DFFA368A668B6B24FF0333308
:100DE0006360236001224FF40041284602F0D0FFE7
:100DF000304670BD0014014000180140F8B50646A9
:100E00000D46164F00224FF48071384602F0C0FFA5
:100E1000134C00224FF40051204602F0B9FF01228A
:100E20004FF40041204602F0B3FF0E4BDE6000227B
:100E30004FF48041204602F0ABFF01224FF4804185
:100E4000204602F0A5FF2846FFF788FF01224FF455
:100E50008071384602F09CFFF8BD00BF00100140D1
:100E600000140140001801402DE9F84F0120FFF760
:100E70000DFFE14F00224FF48071384602F088FFE9
:100E8000DE4C00224FF40051204602F081FF012287
:100E90004FF40041204602F07BFFD94D0026EE6062
:100EA00032464FF48041204602F072FF01224FF497
:100EB0008041204602F06CFF0120FFF74FFF012226
:100EC0004FF48071384602F063FF0120FFF7DEFE29
:100ED000FFF7FCFE0120FFF7D9FE32464FF4807188
:100EE000384602F055FF32464FF40051204602F0DA
:100EF0004FFF01224FF40041204602F049FFEE600F
:100F000032464FF48041204602F042FF01224FF466
:100F10008041204602F03CFF01224FF40051204660
:100F200002F036FF01224FF48041204602F030FFEC
:100F300032464FF40041204602F02AFF4FF044337E
:100F40006B602B60FFF7B4FEAB68AE68B6B24FF0D3
:100F500033336B602B6001224FF40041204602F0D6
:100F600017FF01224FF48071384602F011FFA54BA4
:100F70001E80012E40F2F180FFF7BAFE0120FFF73C
:100F800085FEA04B1B881BB99E4B49F220321A806C
:100F90009C4B1B8849F22532934200F0358149F27F
:100FA0002832934200F0308149F22032934201F01E
:100FB0006D82B3F5134F01F0698249F231329342E9
:100FC00001F0398549F61912934201F0268641F263
:100FD0000552934201F0AD8648F68912934241F0E2
:100FE000388201210020FFF709FF4AF6A4010320FF
:100FF000FFF704FF00210C20FFF700FF40F60C0173
:101000000D20FFF7FBFE4FF42C510E20FFF7F6FEEC
:10101000B0211E20FFF7F2FE42F63F110120FFF73C
:10102000EDFE4FF4C0610220FFF7E8FE0021102022
:10103000FFF7E4FE46F278011120FFF7DFFE002102
:101040000520FFF7DBFE00210620FFF7D7FE4EF656
:101050001C711620FFF7D2FE03211720FFF7CEFEEA
:1010600040F233210720FFF7C9FE00210B20FFF7D4
:10107000C5FE00210F20FFF7C1FE00214120FFF730
:10108000BDFE00214220FFF7B9FE00214820FFF7F6
:10109000B5FE40F23F114920FFF7B0FE00214A2083
:1010A000FFF7ACFE00214B20FFF7A8FE4FF46F4185
:1010B0004420FFF7A3FE00214520FFF79FFE40F2EA
:1010C0003F114620FFF79AFE40F207713020FFF7EC
:1010D00095FE4FF401713120FFF790FE4FF401713E
:1010E0003220FFF78BFE40F202513320FFF786FEDD
:1010F00040F207513420FFF781FE4FF40171352093
:10110000FFF77CFE4FF401713620FFF777FE40F2C7
:1011100002513720FFF772FE40F202313A20FFF70A
:101120006DFE40F202313B20FFF768FE00212320D4
:10113000FFF764FE00212420FFF760FE4FF400411A
:101140002520FFF75BFE00214E20FFF757FE002110
:101150004F20FFF753FE01F07CB900224FF480715D
:10116000384602F015FE00224FF40051204602F0EE
:101170000FFE01224FF40041204602F009FE002636
:10118000EE6032464FF48041204602F001FE01221B
:101190004FF48041204602F0FBFD01224FF4005144
:1011A000204602F0F5FD01224FF48041204602F076
:1011B000EFFD32464FF40041204602F0E9FD4FF0CA
:1011C00044336B602B60FFF773FDAB68AE68B6B25B
:1011D0004FF033336B602B6001224FF40041204607
:1011E00002F0D6FD01224FF48071384602F0D0FDA6
:1011F000044B1E80C0E600BF0010014000140140F7
:1012000000180140B0020020FD4F00224FF4807111
:10121000384602F0BDFDFB4C00224FF40051204641
:1012200002F0B6FD01224FF40041204602F0B0FD6D
:10123000DFF8D483E323C8F80C3000224FF4804158
:10124000204602F0A5FD01224FF48041204602F025
:101250009FFD43F20800FFF781FD01224FF48071EA
:10126000384602F095FD00224FF48071384602F0B6
:101270008FFD00224FF40051204602F089FD01222B
:101280004FF40041204602F083FDE723C8F80C30FC
:1012900000224FF48041204602F07AFD01224FF4F3
:1012A0008041204602F074FD1220FFF757FD012215
:1012B0004FF48071384602F06BFD00224FF48071CC
:1012C000384602F065FD00224FF40051204602F03E
:1012D0005FFD01224FF40041204602F059FDEF234B
:1012E000C8F80C3000224FF48041204602F050FD37
:1012F00001224FF48041204602F04AFD41F23120A4
:10130000FFF72CFD01224FF48071384602F040FDBA
:1013100000224FF48071384602F03AFD00224FF46B
:101320000051204602F034FD01224FF400412046D6
:1013300002F02EFD0025C8F80C502A464FF48041DB
:10134000204602F025FD01224FF48041204602F0A4
:101350001FFD0120FFF702FD01224FF48071384686
:1013600002F016FD2A464FF48071384602F010FD57
:101370002A464FF40051204602F00AFD01224FF4A4
:101380000041204602F004FD0126C8F80C602A4600
:101390004FF48041204602F0FBFC32464FF480417E
:1013A000204602F0F5FC4FF48070FFF7D7FC324680
:1013B0004FF48071384602F0EBFC2A464FF48071FE
:1013C000384602F0E5FC2A464FF40051204602F070
:1013D000DFFC32464FF40041204602F0D9FC0223E4
:1013E000C8F80C302A464FF48041204602F0D0FC69
:1013F00032464FF48041204602F0CAFC4FF4E060D0
:10140000FFF7ACFC32464FF48071384602F0C0FC66
:101410002A464FF48071384602F0BAFC2A464FF44F
:101420000051204602F0B4FC32464FF40041204601
:1014300002F0AEFC0323C8F80C302A464FF480417A
:10144000204602F0A5FC32464FF48041204602F0CF
:101450009FFC41F23000FFF781FC32464FF480716F
:10146000384602F095FC2A464FF48071384602F067
:101470008FFC2A464FF40051204602F089FC324688
:101480004FF40041204602F083FC0423C8F80C30DE
:101490002A464FF48041204602F07AFC32464FF44F
:1014A0008041204602F074FC2846FFF757FC324684
:1014B0004FF48071384602F06BFC2A464FF480717D
:1014C000384602F065FC2A464FF40051204602F0EF
:1014D0005FFC32464FF40041204602F059FC0823DD
:1014E000C8F80C302A464FF48041204602F050FCE8
:1014F00032464FF48041204602F04AFC40F2072079
:10150000FFF72CFC32464FF48071384602F040FC65
:101510002A464FF48071384602F03AFC2A464FF4CE
:101520000051204602F034FC32464FF40041204680
:1015300002F02EFC0923C8F80C302A464FF48041F3
:10154000204602F025FC32464FF48041204602F04E
:101550001FFC2846FFF702FC32464FF480713846E4
:1015600002F016FC2A464FF48071384602F010FC57
:101570002A464FF40051204602F00AFC32464FF44E
:101580000041204602F004FC0A23C8F80C302A4629
:101590004FF48041204602F0FBFB32464FF480417D
:1015A000204602F0F5FB2846FFF7D8FB32464FF401
:1015B0008071384602F0ECFB2A464FF480713846C1
:1015C00002F0E6FB2A464FF40051204602F0E0FB11
:1015D00032464FF40041204602F0DAFB0C23C8F8F3
:1015E0000C302A464FF48041204602F0D1FB3246AF
:1015F0004FF48041204602F0CBFB304606E000BFAE
:10160000001001400014014000180140FFF7A6FB44
:1016100032464FF48071384602F0BAFB2A464FF446
:101620008071384602F0B4FB2A464FF40051204640
:1016300002F0AEFB32464FF40041204602F0A8FB18
:101640000D23C8F80C302A464FF48041204602F0A2
:101650009FFB32464FF48041204602F099FB28461A
:10166000FFF77CFB32464FF48071384602F090FB66
:101670002A464FF48071384602F08AFB2A464FF41E
:101680000051204602F084FB32464FF400412046D0
:1016900002F07EFB0F23C8F80C302A464FF480413D
:1016A000204602F075FB32464FF48041204602F09E
:1016B0006FFB2846FFF752FB32464FF480713846E5
:1016C00002F066FB2A464FF48071384602F060FB58
:1016D0002A464FF40051204602F05AFB32464FF49E
:1016E0000041204602F054FB4FF0100BC8F80CB03C
:1016F0002A464FF48041204602F04AFB32464FF41E
:101700008041204602F044FB2846FFF727FB324683
:101710004FF48071384602F03BFB2A464FF480714B
:10172000384602F035FB2A464FF40051204602F0BD
:101730002FFB32464FF40041204602F029FB4FF0C8
:10174000110AC8F80CA02A464FF48041204602F046
:101750001FFB32464FF48041204602F019FB072060
:10176000FFF7FCFA32464FF48071384602F010FB66
:101770002A464FF48071384602F00AFB2A464FF49D
:101780000051204602F004FB32464FF4004120464F
:1017900002F0FEFA4FF01209C8F80C902A464FF4F6
:1017A0008041204602F0F4FA32464FF48041204650
:1017B00002F0EEFA2846FFF7D1FA32464FF4807174
:1017C000384602F0E5FA2A464FF48071384602F0B6
:1017D000DFFA2A464FF40051204602F0D9FA324689
:1017E0004FF40041204602F0D3FA1323C8F80C301E
:1017F0002A464FF48041204602F0CAFA32464FF49E
:101800008041204602F0C4FA2846FFF7A7FA324684
:101810004FF48071384602F0BBFA0520FFF736FA24
:101820000520FFF733FA2A464FF48071384602F05C
:10183000AFFA2A464FF40051204602F0A9FA324688
:101840004FF40041204602F0A3FAC8F80CB02A4633
:101850004FF48041204602F09BFA32464FF480411B
:10186000204602F095FA41F29050FFF777FA32469F
:101870004FF48071384602F08BFA2A464FF480719B
:10188000384602F085FA2A464FF40051204602F00D
:101890007FFA32464FF40041204602F079FAC8F848
:1018A0000CA02A464FF48041204602F071FA3246DD
:1018B0004FF48041204602F06BFA40F22720FFF7F8
:1018C0004DFA32464FF48071384602F061FA052035
:1018D000FFF7DCF90520FFF7D9F92A464FF48071AC
:1018E000384602F055FA2A464FF40051204602F0DD
:1018F0004FFA32464FF40041204602F049FAC8F848
:101900000C902A464FF48041204602F041FA3246BC
:101910004FF48041204602F03BFA9C20FFF71EFA6C
:1019200032464FF48071384602F032FA0520FFF754
:10193000ADF90520FFF7AAF92A464FF48071384621
:1019400002F026FA2A464FF40051204602F020FA0F
:1019500032464FF40041204602F01AFA1323C8F829
:101960000C302A464FF48041204602F011FA3246EC
:101970004FF48041204602F00BFA4FF4C850FFF7B5
:10198000EDF932464FF48071384602F001FA2A46EA
:101990004FF48071384602F0FBF92A464FF40051AB
:1019A000204602F0F5F932464FF40041204602F09D
:1019B000EFF92923C8F80C302A464FF4804120461D
:1019C00002F0E6F932464FF48041204602F0E0F999
:1019D0002320FFF7C3F932464FF48071384602F0F6
:1019E000D7F92A464FF48071384602F0D1F92A46D9
:1019F0004FF40051204602F0CBF932464FF400413B
:101A0000204602F0C5F92B23C8F80C302A464FF4C3
:101A10008041204602F0BCF932464FF48041204616
:101A200002F0B6F90E20FFF799F932464FF48071B3
:101A3000384602F0ADF90520FFF728F90520FFF739
:101A400025F92A464FF48071384602F0A1F92A465A
:101A50004FF40051204602F09BF932464FF400410A
:101A6000204602F095F92023C8F80C302A464FF49E
:101A70008041204602F08CF932464FF480412046E6
:101A800002F086F92846FFF769F932464FF4807173
:101A9000384602F07DF92A464FF48071384602F04C
:101AA00077F92A464FF40051204602F071F9324688
:101AB0004FF40041204602F06BF92123C8F80C30A6
:101AC0002A464FF48041204602F062F932464FF434
:101AD0008041204602F05CF92846FFF73FF9324684
:101AE0004FF48071384602F053F90520FFF7CEF825
:101AF0000520FFF7CBF82A464FF48071384602F0F4
:101B000047F92A464FF40051204602F041F9324687
:101B10004FF40041204602F03BF93023C8F80C3066
:101B20002A464FF48041204602F032F932464FF403
:101B30008041204602F02CF90720FFF70FF93246CA
:101B40004FF48071384602F023F92A464FF4807131
:101B5000384602F01DF92A464FF40051204602F0A3
:101B600017F932464FF40041204602F011F93123B3
:101B7000C8F80C302A464FF48041204602F008F99C
:101B800032464FF48041204602F002F940F20770DD
:101B9000FFF7E4F832464FF48071384602F0F8F867
:101BA0002A464FF48071384602F0F2F82A464FF484
:101BB0000051204602F0ECF832464FF40041204636
:101BC00002F0E6F83223C8F80C302A464FF4804180
:101BD000204602F0DDF801224FF48041204602F059
:101BE000D7F80620FFF7BAF801224FF48071384683
:101BF00002F0CEF800224FF48071384602F0C8F8A7
:101C000000224FF40051204602F0C2F801224FF4A6
:101C10000041204602F0BCF83523C8F80C30002201
:101C20004FF48041204602F0B3F801224FF4804186
:101C3000204602F0ADF840F20470FFF78FF8012261
:101C40004FF48071384602F0A3F800224FF48071FF
:101C5000384602F09DF800224FF40051204602F071
:101C600097F801224FF40041204602F091F8362304
:101C7000C8F80C3000224FF48041204602F088F86A
:101C800001224FF48041204602F082F841F60470B0
:101C9000FFF764F801224FF48071384602F078F8BB
:101CA00000224FF48071384602F072F800224FF49F
:101CB0000051204602F06CF801224FF4004120460A
:101CC00002F066F83723C8F80C3000224FF4804148
:101CD000204602F05DF801224FF48041204602F0D8
:101CE00057F80420FFF73AF801224FF48071384684
:101CF00002F04EF800224FF48071384602F048F8A6
:101D000000224FF40051204602F042F801224FF425
:101D10000041204602F03CF83823C8F80C3000227D
:101D20004FF48041204602F033F801224FF4804105
:101D3000204602F02DF80020FFF710F801224FF4A2
:101D40008071384602F024F800224FF48071384642
:101D500002F01EF800224FF40051204602F018F85D
:101D600001224FF40041204602F012F83923C8F84E
:101D70000C3000224FF48041204602F009F8012285
:101D80004FF48041204602F003F840F20670FEF75F
:101D9000E5FF01224FF48071384601F0F9FF00227F
:101DA0004FF48071384601F0F3FF00224FF40051E8
:101DB000204601F0EDFF01224FF40041204601F0E2
:101DC000E7FF3C23C8F80C3000224FF48041204646
:101DD00001F0DEFF01224FF48041204601F0D8FFE0
:101DE00040F20170FEF7BAFF01224FF480713846CD
:101DF00001F0CEFF00224FF48071384601F0C8FF99
:101E000000224FF40051204601F0C2FF01224FF49E
:101E10000041204601F0BCFF3D23C8F80C300022F1
:101E20004FF48041204601F0B3FF01224FF480417E
:101E3000204601F0ADFF0F20FEF790FF01224FF486
:101E40008071384601F0A4FF0520FEF71FFF052032
:101E5000FEF71CFF00224FF48071384601F098FF16
:101E600000224FF40051204601F092FF01224FF46E
:101E70000041204601F08CFF5023C8F80C300022AE
:101E80004FF48041204601F083FF01224FF480414E
:101E9000204601F07DFF0020FEF760FF01224FF495
:101EA0008071384601F074FF00224FF4807138468B
:101EB00001F06EFF00224FF40051204601F068FF50
:101EC00001224FF40041204601F062FF5123C8F87F
:101ED0000C3000224FF48041204601F059FF0122CE
:101EE0004FF48041204601F053FFEF20FEF736FF0C
:101EF00001224FF48071384601F04AFF00224FF46E
:101F00008071384601F044FF00224FF40051204612
:101F100001F03EFF01224FF40041204601F038FF5E
:101F20005223C8F80C3000224FF48041204601F0C3
:101F30002FFF01224FF48041204601F029FF0020AD
:101F4000FEF70CFF01224FF48071384601F020FFAC
:101F500000224FF48071384601F01AFF00224FF43E
:101F60000051204601F014FF01224FF400412046A9
:101F700001F00EFF5323C8F80C3000224FF48041CB
:101F8000204601F005FF01224FF48041204601F078
:101F9000FFFE40F23F10FEF7E1FE01224FF4807198
:101FA000384601F0F5FE00224FF48071384601F00A
:101FB000EFFE00224FF40051204601F0E9FE01221D
:101FC0004FF40041204601F0E3FE6023C8F80C30D6
:101FD00000224FF48041204601F0DAFE01224FF446
:101FE0008041204601F0D4FE4FF42740FEF7B6FEB4
:101FF00001224FF48071384601F0CAFE00224FF4EE
:102000008071384601F0C4FE00224FF40051204692
:1020100001F0BEFE01224FF40041204601F0B8FE5F
:102020006123C8F80C3000224FF48041204601F0B3
:10203000AFFE01224FF48041204601F0A9FE0120AD
:10204000FEF78CFE01224FF48071384601F0A0FEAD
:1020500000224FF48071384601F09AFE00224FF4BE
:102060000051204601F094FE01224FF40041204629
:1020700001F08EFE6A23C8F80C3000224FF4804134
:10208000204601F085FE01224FF48041204601F0F8
:102090007FFE0020FEF762FE01224FF48071384679
:1020A00001F076FE00224FF48071384601F070FE98
:1020B00000224FF40051204601F06AFE01224FF445
:1020C0000041204601F064FE8023C8F80C30002255
:1020D0004FF48041204601F05BFE01224FF4804125
:1020E000204601F055FE0020FEF738FE01224FF495
:1020F0008071384601F04CFE00224FF48071384662
:1021000001F046FE00224FF40051204601F040FE4F
:1021100001224FF40041204601F03AFE8123C8F825
:102120000C3000224FF48041204601F031FE0122A4
:102130004FF48041204601F02BFE0020FEF70EFEFA
:1021400001224FF48071384601F022FE00224FF444
:102150008071384601F01CFE00224FF400512046E9
:1021600001F016FE01224FF40041204601F010FE5E
:102170008223C8F80C3000224FF48041204601F041
:1021800007FE01224FF48041204601F001FE0020AD
:10219000FEF7E4FD01224FF48071384601F0F8FDAE
:1021A00000224FF48071384601F0F2FD00224FF416
:1021B0000051204601F0ECFD01224FF40041204681
:1021C00001F0E6FD8323C8F80C3000224FF4804173
:1021D000204601F0DDFD01224FF48041204601F050
:1021E000D7FD0020FEF7BAFD01224FF4807138467A
:1021F00001F0CEFD00224FF48071384601F0C8FD99
:1022000000224FF40051204601F0C2FD01224FF49C
:102210000041204601F0BCFD8423C8F80C300022A8
:102220004FF48041204601F0B3FD01224FF480417C
:10223000204601F0ADFD0020FEF790FD01224FF495
:102240008071384601F0A4FD00224FF480713846B9
:1022500001F09EFD00224FF40051204601F098FD50
:1022600001224FF40041204601F092FD8523C8F879
:102270000C3000224FF48041204601F089FD0122FC
:102280004FF48041204601F083FD0020FEF766FDFB
:1022900001224FF48071384601F07AFD00224FF49C
:1022A0008071384601F074FD00224FF40051204641
:1022B00001F06EFD01224FF40041204601F068FD5F
:1022C0009023C8F80C3000224FF48041204601F0E2
:1022D0005FFD01224FF48041204601F059FD584630
:1022E000FEF73CFD01224FF48071384601F050FDAD
:1022F00000224FF48071384601F04AFD00224FF46D
:102300000051204601F044FD01224FF400412046D7
:1023100001F03EFD9223C8F80C3000224FF48041BA
:10232000204601F035FD01224FF48041204601F0A6
:102330002FFD4FF4C060FEF711FD01224FF48071B4
:10234000384601F025FD4D4B1A8849F228339A4250
:1023500000F081804A4D00224FF48071284601F040
:1023600017FD484C00224FF40051204601F010FDAB
:1023700001224FF40041204601F00AFD424E07239E
:10238000F36000224FF48041204601F001FD01225C
:102390004FF48041204601F0FBFC40F23310FEF781
:1023A000DDFC01224FF48071284601F0F1FC00228F
:1023B0004FF48071284601F0EBFC00224FF40051ED
:1023C000204601F0E5FC01224FF40041204601F0D7
:1023D000DFFC2023F36000224FF48041204601F00F
:1023E000D7FC01224FF48041204601F0D1FC0020AF
:1023F000FEF7B4FC01224FF48071284601F0C8FCBE
:1024000000224FF48071284601F0C2FC00224FF4F4
:102410000051204601F0BCFC01224FF4004120464F
:1024200001F0B6FC2123F36000224FF480412046E6
:1024300001F0AEFC01224FF48041204601F0A8FCDF
:102440000020FEF78BFC01224FF48071284601F03A
:102450009FFCBDE8F88F03219320FEF7CFFC4FF4DB
:1024600088719520FEF7CAFC00219720FEF7C6FC74
:1024700000219820FEF7C2FC6CE700BFB0020020EC
:10248000001001400014014000180140FD4F0022DF
:102490004FF48071384601F07BFCFB4D00224FF475
:1024A0000051284601F074FC01224FF400412846F7
:1024B00001F06EFCDFF8D4830024C8F80C402246FB
:1024C0004FF48041284601F063FC01224FF4804123
:1024D000284601F05DFC0120FEF740FC01224FF48C
:1024E0008071384601F054FC22464FF48071384622
:1024F00001F04EFC22464FF40051284601F048FC02
:1025000001224FF40041284601F042FC0126C8F8A0
:102510000C6022464FF48041284601F039FC3246D7
:102520004FF48041284601F033FC4FF48070FEF7F1
:1025300015FC32464FF48071384601F029FC2246E2
:102540004FF48071384601F023FC22464FF40051CD
:10255000284601F01DFC32464FF40041284601F0A8
:1025600017FC0223C8F80C3022464FF4804128465D
:1025700001F00EFC32464FF48041284601F008FC81
:102580004FF4E060FEF7EAFB32464FF480713846C4
:1025900001F0FEFB22464FF48071384601F0F8FB53
:1025A00022464FF40051284601F0F2FB32464FF428
:1025B0000041284601F0ECFB0323C8F80C3022460A
:1025C0004FF48041284601F0E3FB32464FF480414E
:1025D000284601F0DDFB41F21800FEF7BFFB324652
:1025E0004FF48071384601F0D3FB0520FEF74EFB17
:1025F00022464FF48071384601F0CAFB22464FF460
:102600000051284601F0C4FB32464FF400412846F1
:1026100001F0BEFB0423C8F80C3022464FF4804181
:10262000284601F0B5FB32464FF48041284601F0C0
:10263000AFFB2046FEF792FB32464FF480713846DE
:1026400001F0A6FB40F202210820FEF7D7FB21464D
:102650000920FEF7D3FB21460A20FEF7CFFB2246D6
:102660004FF48071384601F093FB22464FF400513D
:10267000284601F08DFB32464FF40041284601F018
:1026800087FB0C23C8F80C3022464FF480412846C3
:1026900001F07EFB32464FF48041284601F078FB82
:1026A0003046FEF75BFB32464FF48071384601F04E
:1026B0006FFB21460D20FEF7A1FB21460F20FEF700
:1026C0009DFB0520FEF7E2FA40F201110720FEF71C
:1026D00095FB0520FEF7DAFA4FF486511020FEF73D
:1026E0008DFB07211120FEF789FB4FF48871122022
:1026F000FEF784FB4FF430611320FEF77FFB224688
:102700004FF48071384601F043FB22464FF40051EC
:10271000284601F03DFB32464FF40041284601F0C7
:1027200037FB2923C8F80C3022464FF48041284655
:1027300001F02EFB32464FF48041284601F028FB81
:102740002046FEF70BFB32464FF48071384601F00D
:102750001FFB44F210012B20FEF750FB21465020B6
:10276000FEF74CFBEF215120FEF748FB214652209B
:10277000FEF744FB22464FF48071384601F008FB17
:1027800022464FF40051284601F002FB32464FF436
:102790000041284601F0FCFA5323C8F80C302246C9
:1027A0004FF48041284601F0F3FA32464FF480415D
:1027B000284601F0EDFA40F23F10FEF7CFFA32461C
:1027C0004FF48071384601F0E3FA22464FF48071ED
:1027D000384601F0DDFA22464FF40051284601F058
:1027E000D7FA32464FF40041284601F0D1FA60236F
:1027F000C8F80C3022464FF48041284601F0C8FA50
:1028000032464FF48041284601F0C2FA4FF41C5082
:10281000FEF7A4FA32464FF48071384601F0B8FA58
:1028200031466120FEF7EAFA21466A20FEF7E6FA11
:1028300022464FF48071384601F0AAFA22464FF43E
:102840000051284601F0A4FA32464FF400412846D0
:1028500001F09EFA8023C8F80C3022464FF48041E4
:10286000284601F095FA32464FF48041284601F09F
:102870008FFA2046FEF772FA32464FF480713846DE
:1028800006E000BF001001400014014000180140A4
:1028900001F07EFA22464FF48071384601F078FA52
:1028A00022464FF40051284601F072FA32464FF4A6
:1028B0000041284601F06CFA8123C8F80C3022460A
:1028C0004FF48041284601F063FA32464FF48041CC
:1028D000284601F05DFA2046FEF740FA32464FF4F2
:1028E0008071384601F054FA21468220FEF786FABC
:1028F00021468320FEF782FA21468420FEF77EFAE5
:1029000021468520FEF77AFA10219020FEF776FA0C
:1029100022464FF48071384601F03AFA22464FF4CD
:102920000051284601F034FA32464FF4004128465F
:1029300001F02EFA9223C8F80C3022464FF4804161
:10294000284601F025FA32464FF48041284601F02E
:102950001FFA2046FEF702FA32464FF480713846DD
:1029600001F016FA31469320FEF748FA22464FF45A
:102970008071384601F00CFA22464FF40051284687
:1029800001F006FA32464FF40041284601F000FA01
:102990009523C8F80C3022464FF48041284601F0B8
:1029A000F7F932464FF48041284601F0F1F94FF42F
:1029B0008870FEF7D3F932464FF48071384601F043
:1029C000E7F921469720FEF719FA22464FF4807165
:1029D000384601F0DDF922464FF40051284601F057
:1029E000D7F932464FF40041284601F0D1F9982337
:1029F000C8F80C3022464FF48041284601F0C8F94F
:102A000032464FF48041284601F0C2F92046FEF7D5
:102A1000A5F932464FF48071384601F0B9F9052026
:102A2000FEF734F940F273110720FEF7E7F90520AD
:102A3000FEF72CF90DE541F21401E720FEF7DEF96F
:102A40004FF480710120FEF7D9F94FF40071022094
:102A5000FEF7D4F941F230010320FEF7CFF940F23E
:102A600002210820FEF7CAF900210920FEF7C6F965
:102A700000210A20FEF7C2F900210C20FEF7BEF962
:102A800000210D20FEF7BAF900210F20FEF7B6F95C
:102A900000211020FEF7B2F907211120FEF7AEF950
:102AA00000211220FEF7AAF900211320FEF7A6F953
:102AB0000520FEF7EBF841F290611020FEF79EF939
:102AC00040F227211120FEF799F90220FEF7DEF8E7
:102AD0000C211220FEF792F90220FEF7D7F84FF4EE
:102AE00000611320FEF78AF911212920FEF786F9EB
:102AF0000B212B20FEF782F90220FEF7C7F80021F8
:102B00002020FEF77BF900212120FEF777F9002134
:102B10003020FEF773F94FF483713120FEF76EF920
:102B200000213220FEF76AF94FF401713520FEF7DB
:102B300065F941F20A613620FEF760F940F207714B
:102B40003720FEF75BF94FF483713820FEF756F912
:102B500040F207713920FEF751F940F202413C2062
:102B6000FEF74CF940F60F413D20FEF747F90021F2
:102B70005020FEF743F9EF215120FEF73FF90021E5
:102B80005220FEF73BF940F23F115320FEF736F991
:102B90004FF41C516020FEF731F901216120FEF74E
:102BA0002DF900216A20FEF729F900218020FEF787
:102BB00025F900218120FEF721F900218220FEF76E
:102BC0001DF900218320FEF719F900218420FEF76A
:102BD00015F900218520FEF711F910219020FEF74C
:102BE0000DF94FF4C0619220FEF708F9212107206A
:102BF000FEF704F90220FEF749F861210720FEF7ED
:102C0000FDF80220FEF742F840F233110720FEF7EC
:102C1000F5F80220FEF73AF81BE406212820FEF71B
:102C2000EDF801210020FEF7E9F800211020FEF761
:102C3000E5F847F2EF210120FEF7E0F84FF4C0611C
:102C40000220FEF7DBF846F638210320FEF7D6F81F
:102C500046F674011120FEF7D1F800210F20FEF78F
:102C6000CDF845F208310B20FEF7C8F803210C20FF
:102C7000FEF7C4F80A210D20FEF7C0F84FF43851D2
:102C80000E20FEF7BBF8BE211E20FEF7B7F84FF46A
:102C900000412520FEF7B2F84FF4F0412620FEF760
:102CA000ADF878212720FEF7A9F800214E20FEF785
:102CB000A5F800214F20FEF7A1F840F6D901122017
:102CC000FEF79CF800213020FEF798F84FF482714F
:102CD0003120FEF793F84FF480713220FEF78EF822
:102CE00040F205313320FEF789F840F205513420D7
:102CF000FEF784F840F205313520FEF77FF840F208
:102D000007713620FEF77AF84FF440713720FEF74E
:102D100075F84FF490513A20FEF770F84FF40061C7
:102D20003B20FEF76BF833210720FEF767F8FFF72B
:102D300090BB00210720FEF761F80220FDF7A6FFF7
:102D40004FF48E711220FEF759F80121A420FEF7EE
:102D500055F80F210820FEF751F808210A20FEF748
:102D60004DF808210D20FEF749F840F20771302098
:102D7000FEF744F807213120FEF740F840F20361E6
:102D80003220FEF73BF84FF4E0613320FEF736F8CF
:102D900040F202213420FEF731F802213520FEF7FF
:102DA0002DF841F60F713620FEF728F840F2077132
:102DB0003720FEF723F800213820FEF71FF8002106
:102DC0003920FEF71BF840F207713A20FEF716F89B
:102DD00000213B20FEF712F807213C20FEF70EF8F9
:102DE00000213D20FEF70AF80220FDF74FFF0121E8
:102DF0000720FEF703F801211720FDF7FFFF02204F
:102E0000FDF744FF4FF4BD511020FDF7F7FF40F2EE
:102E100017211120FDF7F2FF4FF48F711220FDF7FB
:102E2000EDFF4FF470611320FDF7E8FF00212A2029
:102E3000FDF7E4FF0A212920FDF7E0FF4FF49F7121
:102E40001220FDF7DBFF00215020FDF7D7FFEF2117
:102E50005120FDF7D3FF00215220FDF7CFFF40F2B4
:102E60003F115320FDF7CAFF4FF41C516020FDF7BE
:102E7000C5FF01216120FDF7C1FF00216A20FDF798
:102E8000BDFF00218020FDF7B9FF00218120FDF763
:102E9000B5FF00218220FDF7B1FF00218320FDF75F
:102EA000ADFF00218420FDF7A9FF00218520FDF75B
:102EB000A5FF13219020FDF7A1FF4FF44071922050
:102EC000FDF79CFF05219320FDF798FF0021952039
:102ED000FDF794FF00219720FDF790FF0021982037
:102EE000FDF78CFF4FF480710120FDF787FF4FF451
:102EF000E0610220FDF782FF41F230010320FDF77F
:102F00007DFF00210420FDF779FF00210C20FDF753
:102F100075FF00210F20FDF771FF00212020FDF734
:102F20006DFF00212120FDF769FF21210720FDF71A
:102F300065FF0220FDF7AAFE61210720FDF75EFF75
:102F40000220FDF7A3FE40F273110720FDF756FFA4
:102F50000220FDF79BFEFFF77CBA00BF08B5074AC9
:102F6000136843F010031360032000F021FF0020DA
:102F700004F07CFAFDF784FD002008BD002002402B
:102F8000034A1168034B1B780B441360704700BF62
:102F9000CCCF002034000020014B1868704700BFE0
:102FA000CCCF002038B50446FFF7F6FF0546B4F154
:102FB000FF3F02D0044B1B781C44FFF7EDFF401B82
:102FC000A042FAD338BD00BF3400002082B0084BC5
:102FD0001B68084AA2FB03235B0A00FB03F301936F
:102FE00000BF019B5A1E0192002BF9D102B070471D
:102FF0003C000020D34D6210002800F0618270B5C3
:1030000082B00446036813F0010F2CD0AA4B5B6812
:1030100003F00C03042B1DD0A74B5B6803F00C03DB
:10302000082B12D0A368B3F5803F41D0002B55D1B7
:1030300003F1804303F504331A6822F480321A60E6
:103040001A6822F480221A6037E09B4B5B6813F405
:10305000803FE7D0984B1B6813F4003F03D0A36870
:10306000002B00F02F82236813F0020F75D0924BD3
:103070005B6813F00C0F5FD08F4B5B6803F00C03A1
:10308000082B54D06369002B00F089808B4B012200
:103090001A60FFF781FF0546874B1B6813F0020F8C
:1030A00074D1FFF779FF401B0228F5D9032010E205
:1030B000814A136843F480331360A36843B3FFF776
:1030C0006BFF05467C4B1B6813F4003FCBD1FFF729
:1030D00063FF401B6428F5D90320FAE1B3F5A02F64
:1030E00009D0754B1A6822F480321A601A6822F4EB
:1030F00080221A60E1E703F18043A3F53C331A68AC
:1031000042F480221A601A6842F480321A60D4E7CE
:10311000FFF742FF0546684B1B6813F4003FA2D03F
:10312000FFF73AFF401B6428F5D90320D1E1624B39
:103130005B6813F4803FA5D15F4B1B6813F0020F4F
:1031400003D06369012B40F0BF815B4A136823F011
:10315000F803A16943EAC1031360236813F0080F61
:1031600032D0E369002B45D0554B01221A60FFF79E
:1031700013FF0546504B5B6A13F0020F21D1FFF796
:103180000BFF401B0228F5D90320A2E14A4A13682D
:1031900023F0F803A16943EAC1031360DDE7474B5D
:1031A00000221A60FFF7F8FE0546434B1B6813F038
:1031B000020FD2D0FFF7F0FE401B0228F5D9032002
:1031C00087E10120FFF702FF236813F0040F00F0EE
:1031D0009780394BDB6913F0805F1DD1364BDA697C
:1031E00042F08052DA61DB6903F080530193019B66
:1031F000012512E0324B00221A60FFF7CDFE054692
:103200002D4B5B6A13F0020FDED0FFF7C5FE401BAB
:103210000228F5D903205CE100252A4B1B6813F432
:10322000807F11D02369012B22D0002B38D103F1EC
:10323000804303F504331A6A22F001021A621A6A03
:1032400022F004021A6218E01E4A136843F48073E5
:103250001360FFF7A1FE06461A4B1B6813F4807F2C
:10326000E0D1FFF799FE801B6428F5D9032030E1F7
:10327000114A136A43F001031362236973B3FFF722
:103280008BFE06460C4B1B6A13F0020F37D1FFF77B
:1032900083FE801B41F288339842F3D9032018E162
:1032A000052B11D0044B1A6A22F001021A621A6A25
:1032B00022F004021A62E0E70010024000004242DD
:1032C0008004424200700040864B1A6A42F00402B9
:1032D0001A621A6A42F001021A62CEE7FFF75CFE38
:1032E0000646804B1B6A13F0020F08D0FFF754FE0E
:1032F000801B41F288339842F3D90320E9E075BB83
:10330000E36A002B6ED0774A526812F4803F05D0F2
:10331000744A526802F00C02082A26D0022B4AD1C5
:10332000704B1B6813F0805F07D06E4BDB6A03F0B5
:10333000F003626B934240F0C9806B4B00221A602D
:10334000FFF72AFE0546674B1B6813F0006F13D08A
:10335000FFF722FE401B6428F5D90320B9E0614A3B
:10336000D36923F08053D361CAE75E4AD26A12F46C
:10337000803FD3D00120ACE05A4AD36A23F0F00357
:10338000616B0B43D362D36A23F47063216B0B43ED
:10339000D362554B01221A60FFF7FEFD0546514BE3
:1033A0001B6813F0006F1DD1FFF7F6FD401B64286A
:1033B000F5D903208DE04B4AD36A23F48033D362DE
:1033C000494B00221A60FFF7E7FD0546454B1B6895
:1033D00013F0006F06D0FFF7DFFD401B6428F5D91E
:1033E000032076E0236A002B72D03E4A526802F036
:1033F0000C02082A54D0022B11D03C4B00221A6038
:10340000FFF7CAFD0446374B1B6813F0007F45D019
:10341000FFF7C2FD001B0228F5D9032059E0334B0A
:1034200000221A60FFF7B8FD05462E4B1B6813F00B
:10343000007F06D0FFF7B0FD401B0228F5D903201E
:1034400047E0636AB3F5803F1AD026494B6823F4FE
:103450007413626AA06A024313434B60234B012238
:103460001A60FFF799FD04461E4B1B6813F0007F9E
:1034700012D1FFF791FD001B0228F5D9032028E0A7
:10348000184AD36A61680B43D362D36A23F00F03EF
:10349000E1680B43D362D8E700201AE0002018E06F
:1034A000012B18D00F4B5B6803F48031626A9142A4
:1034B00013D103F47013A26A934210D1002008E0E4
:1034C00001207047012004E0012002E0012000E01B
:1034D000002002B070BD0120FBE70120F9E70120C8
:1034E000F7E700BF0010024068004242600042421D
:1034F00030B587B00D4602230393032305930023C1
:1035000004934FF4807302930A4CA36943F00403BD
:10351000A361A36903F004030193019B02A9064878
:1035200000F026FB636823F070632B43636007B0F1
:1035300030BD00BF0010024000080140F0B589B066
:10354000264B04AC0FCB07C42380254B6C460FCB16
:1035500084E80F00234B5A6802F00C03042B37D089
:10356000082B37D1C2F3834308A90B4413F8104C3E
:1035700012F4803F28D01B49CB6A03F00F0308AA3E
:10358000134413F8202CCB6A13F4803F16D0CB6A77
:10359000C3F303130133CE6AC6F303260236A6FB38
:1035A0000467114DA6FB050105FB0711A3FB0223D0
:1035B000FCF73EFE0D2C0ED140080CE00A4800FB43
:1035C00004F0B0FBF2F0F5E7084800FB04F002E07D
:1035D000054800E0064809B0F0BD00BFC0F400088F
:1035E000CC0F01080010024040787D0100093D0029
:1035F00000127A00002800F0A08070B50D46044645
:10360000524B1B6803F007038B420BD24F4A1368DF
:1036100023F007030B431360136803F007038B4287
:1036200040F08D80236813F0020F17D013F0040FC1
:1036300004D0474A536843F4E0635360236813F0AF
:10364000080F04D0424A536843F460535360404A21
:10365000536823F0F003A1680B435360236813F011
:10366000010F31D06368012B20D0022B25D0384ABE
:10367000126812F0020F64D035494A6822F0030242
:1036800013434B60FFF788FC0646314B5B6803F041
:103690000C036268B3EB820F16D0FFF77DFC801B32
:1036A00041F288339842F0D9032045E0284A126855
:1036B00012F4003FE0D101203EE0254A126812F0EA
:1036C000007FD9D1012037E0204B1B6803F00703AE
:1036D000AB420AD91D4A136823F007032B4313603A
:1036E000136803F00703AB422DD1236813F0040FD6
:1036F00006D0174A536823F4E063E1680B43536034
:10370000236813F0080F07D0114A536823F460535D
:10371000216943EAC1035360FFF710FF0C4B5B685C
:10372000C3F303130B4AD35CD8400B4B18600B4B0D
:10373000186803F09BFE002070BD01207047012037
:10374000FAE70120F8E70120F6E700BF0020024079
:1037500000100240E00F01083C000020380000206B
:10376000014B1868704700BF3C00002008B5FFF708
:10377000F7FF044B5B68C3F30223034AD35CD840D2
:1037800008BD00BF00100240F00F010808B5FFF7A8
:10379000E7FF044B5B68C3F3C223034AD35CD84002
:1037A00008BD00BF00100240F00F01080F230360A6
:1037B0000B4B5A6802F0030242605A6802F0F002B2
:1037C00082605A6802F4E062C2605B68DB0803F45E
:1037D000E0630361034B1B6803F007030B60704752
:1037E000001002400020024070B582B00446036819
:1037F00013F0010F36D06D4BDB6913F0805F40F0A2
:103800008C806A4BDA6942F08052DA61DB6903F03E
:1038100080530193019B0125654B1B6813F4807F46
:103820007DD0624B1B6A13F4407311D0626802F4BE
:1038300040729A420CD05D4A136A23F440705D498D
:1038400001260E6000260E60106213F0010F7BD17E
:10385000564A136A23F4407361680B431362002DC8
:1038600040F08480236813F0020F06D04F4A53685B
:1038700023F44043A1680B435360236813F0040F03
:1038800006D04A4AD36A23F40033E1680B43D3627B
:10389000236813F0080F06D0444AD36A23F4802328
:1038A00021690B43D362414BDB6A13F4003F04D11F
:1038B0003E4BDB6A13F4802F64D03C4B1B6813F043
:1038C000805F58D1394B1B6813F0806F06D0374B9F
:1038D000DB6A03F0F003A269934261D1334AD36AF1
:1038E00023F0F003A1690B43D362D36A23F470433E
:1038F00061690B43D362304B01221A60FFF74CFB26
:1039000005462A4B1B6813F0005F3BD1FFF744FBD1
:10391000401B6428F5D9032040E000257CE7244AB9
:10392000136843F480731360FFF736FB0646204BA1
:103930001B6813F4807F7FF474AFFFF72DFB801BAF
:103940006428F4D9032029E0FFF726FB0646174B2D
:103950001B6A13F0020F7FF47BAFFFF71DFB801B88
:1039600041F288339842F2D9032017E0D36923F05B
:103970008053D36176E70D4BDB6A03F470436269D1
:1039800093420FD1236813F0100F0DD0074A5368EC
:1039900023F48003E1690B435360002002B070BD43
:1039A0000120FBE70120F9E70020F7E700100240C3
:1039B00000700040400442427000424230B589B07D
:1039C0000546644B04AC0FCB07C42380624B6C46A6
:1039D0000FCB84E80F00681E0F2800F2B580DFE8E7
:1039E00000F087A8B34DB3B3B36AB3B3B3B3B3B303
:1039F000B3085A4B5A68186810F0807000F0A58020
:103A0000C2F3834308A90B4413F8101C12F4803F3F
:103A100026D0524AD36A03F00F0308A8034413F8D0
:103A2000204CD36A13F4803F14D0D36AC3F303133A
:103A30000133D06AC0F303200230494AB2FBF3F3EA
:103A400000FB03F0B0FBF4F001FB00F00D290AD1FC
:103A5000400808E04248B0FBF4F001FB00F0F5E755
:103A6000404800FB01F03D4B5B6813F4800F6CD1C4
:103A700040003D4BA3FB0030400866E0374BDB6A5B
:103A800013F4003F14D0354B186810F080505CD010
:103A90001A46DB6AC3F303130133D06AC0F3033061
:103AA00002302F4AB2FBF3F300FB03F040004CE07E
:103AB000FFF744FD49E0294BDB6A13F4802F14D053
:103AC000264B186810F080503FD01A46DB6AC3F3CB
:103AD00003130133D06AC0F303300230204AB2FB33
:103AE000F3F300FB03F040002FE0FFF727FD2CE08D
:103AF0001A4B1B6A40F202321A40B2F5817F26D07F
:103B000003F44073B3F5007F04D0B3F5407F09D0D0
:103B100000201AE0114A526A12F0020FF5D049F65D
:103B2000404012E00D4B186810F400300DD00F48E3
:103B30000BE0FFF72BFE094B5B68C3F381330133C6
:103B40005B00B0FBF3F000E0002009B030BD4FF4A3
:103B50000040FAE7D0F40008CC0F01080010024042
:103B600040787D0100093D00ABAAAAAAF0FA020044
:103B7000F0B482B000252C46A3E07F4FBB4210D0AA
:103B800007D97E4FBB420CD007F58037BB4208D027
:103B900013E0A7F58017BB4203D007F57027BB429F
:103BA00007D18B68002B58D0012B51D042610825DA
:103BB00003E0A7F58017BB42F3D0FF2E4FD8844611
:103BC000FF2E4FD8A200DCF800300F27974023EAE1
:103BD000070305FA02F21343CCF800304B6813F0E8
:103BE000805F6DD0664B9A6942F001029A619B69D1
:103BF00003F001030193019BA208971C614B53F84A
:103C0000273004F00307BF004FF00F0C0CFA07FC3D
:103C100023EA0C0C5C4B98422AD003F5806398424F
:103C200000F08A8003F58063984200F0878003F5F6
:103C3000806398421AD004231BE0CD68BDE7CD68AD
:103C40000435BAE7CD680835B7E7CD680C35B4E779
:103C500002610825B1E70025AFE70425ADE700F1D3
:103C6000040CADE7A4F108029200ACE7032300E0E6
:103C70000023BB4043EA0C030232424F47F8223094
:103C80004B6813F4803F5BD0404A136833431360A2
:103C90004B6813F4003F59D03C4A53683343536098
:103CA0004B6813F4801F57D0384A936833439360AE
:103CB0004B6813F4001F55D0344AD3681E43D660B6
:103CC00001340B6833FA04F252D00122A24003EA15
:103CD000020632EA0303F3D14B68122B3FF64DAFD5
:103CE000122B3FF66AAF01A757F823F0A33B000859
:103CF0003B3C0008453C0008573C0008BB3B000823
:103D0000BB3B0008BB3B0008BB3B0008BB3B0008BB
:103D1000BB3B0008BB3B0008BB3B0008BB3B0008AB
:103D2000BB3B0008BB3B0008BB3B0008BB3B00089B
:103D30003F3C00084B3C000801239AE7022398E728
:103D4000124A136823EA06031360A1E70F4A536877
:103D500023EA06035360A3E70C4A936823EA0603A9
:103D60009360A5E7094AD36823EA0606D660A7E769
:103D700002B0F0BC704700BF0000221000003110FC
:103D80000010024000000140000801400004014012
:103D90000AB101617047090401617047C36801EA13
:103DA000030221EA030141EA024101617047000078
:103DB000074AD36823F4E0631B041B0C000200F4E1
:103DC000E060034343F0BF6343F40033D3607047C4
:103DD00000ED00E030B4174BDB68C3F30223C3F1FE
:103DE0000704042C28BF04241D1D062D18D9033BED
:103DF0004FF0FF3505FA04F421EA0401994005FA71
:103E000003F322EA0303194300280BDB0901C9B2BB
:103E100000F1604000F5614080F8001330BC70474D
:103E20000023E5E700F00F000901C9B2024B195465
:103E3000F4E700BF00ED00E014ED00E0002807DB30
:103E400000F01F02400901239340024A42F820304B
:103E5000704700BF00E100E0014B01221A6070478B
:103E600020000E427047000090F83D30DBB2012B7D
:103E70002BD1022380F83D300268D36843F0010360
:103E8000D3600368134A934214D0B3F1804F11D02A
:103E9000A2F5943293420DD002F58062934209D08C
:103EA00002F58062934205D01A6842F001021A605E
:103EB000002070479A6802F00702062A07D01A68A5
:103EC00042F001021A600020704701207047002074
:103ED000704700BF002C0140704770477047704723
:103EE00010B5044603681A6912F0020F11D0DA689F
:103EF00012F0020F0DD06FF002021A610123037756
:103F000003689B6913F0030F70D0FFF7E6FF0023EF
:103F1000237723681A6912F0040F12D0DA6812F0BE
:103F2000040F0ED06FF004021A6102232377236876
:103F30009B6913F4407F5FD02046FFF7CEFF00233C
:103F4000237723681A6912F0080F12D0DA6812F08A
:103F5000080F0ED06FF008021A610423237723683C
:103F6000DB6913F0030F4ED02046FFF7B6FF0023A6
:103F7000237723681A6912F0100F12D0DA6812F052
:103F8000100F0ED06FF010021A61082323772368F8
:103F9000DB6913F4407F3DD02046FFF79EFF0023EE
:103FA000237723681A6912F0010F03D0DA6812F040
:103FB000010F36D123681A6912F0800F03D0DA6836
:103FC00012F0800F34D123681A6912F0400F03D029
:103FD000DA6812F0400F32D123681A6912F0200F0C
:103FE00003D0DA6812F0200F30D110BDFFF774FF54
:103FF0002046FFF773FF8AE72046FFF76DFF204654
:10400000FFF76CFF9BE72046FFF766FF2046FFF7B0
:1040100065FFACE72046FFF75FFF2046FFF75EFF36
:10402000BDE76FF001021A612046FCF709FDC1E708
:104030006FF080021A61204600F07FF8C3E76FF04E
:1040400040021A612046FFF74AFFC5E76FF02002E1
:104050001A61204600F070F8C7E7000003681F4AA5
:1040600090420ED0B0F1804F0BD0A2F59432904226
:1040700007D002F58062904203D002F58062904240
:1040800003D123F070034A681343144A90420ED0C0
:10409000B0F1804F0BD0A2F59432904207D002F5D8
:1040A0008062904203D002F58062904203D123F4F3
:1040B0004073CA68134323F080034A6913430360C3
:1040C0008B68C3620B688362044B984202D0012361
:1040D000436170470B690363F9E700BF002C01409F
:1040E00040B310B5044690F83D30F3B1022384F894
:1040F0003D30214651F8040BFFF7B0FF012384F84F
:10410000463084F83E3084F83F3084F8403084F8FC
:10411000413084F8423084F8433084F8443084F8E5
:10412000453084F83D30002010BD80F83C30FFF76A
:1041300099FEDBE7012070477047704770470368BE
:10414000B3F1A04F00D0704700B583B003F17043C6
:1041500003F504335A6942F480525A615B6903F4EF
:1041600080530193019B002211464320FFF732FE4A
:104170004320FFF763FE03B05DF804FB08B5D0F8F9
:10418000C00202F00EF808BD08B5D0F8C00202F077
:1041900021F808BD08B5D0F8C00202F02DF808BD1E
:1041A00008B5D0F8C00202F045F808BD08B5D0F84F
:1041B000C00201F0FFFF08BD08B5D0F8C00202F050
:1041C00005F808BD90F8C433012B01D000207047DA
:1041D00010B504460E48C0F8C042C4F8C8034FF0FA
:1041E000A0430360082383600123C3600023C361ED
:1041F00000F095F940B9064800F0B1FE01462046AE
:1042000001F0CCFF002010BDFCF723FCF3E700BF5A
:10421000D0CF002008B5D0F8C80300F0A5FE0128D3
:1042200004D0022804D000B1012008BD0120FCE721
:104230000220FAE708B5D0F8C80300F08AFE08BDEE
:1042400008B5D0F8C80300F07DFE08BD08B590F8A9
:10425000C433012B04D0C820FEF7A4FE002008BD03
:10426000084603F03FF9F6E7D0F8C83301EB8100C8
:1042700003EBC00090F83B0038B101EB810103EB88
:10428000C10181F850200020704701EB810103EB50
:10429000C10181F85120F6E7D0F8C83301EB810263
:1042A00003EBC20292F83B2032B101EB810103EB38
:1042B000C10191F85000704701EB810103EBC1018E
:1042C00091F85100704708B5FEF76CFE08BD022852
:1042D00005D8DFE800F00504020001207047022045
:1042E000704708B5D0F8C80300F0FFFDFFF7EFFFF7
:1042F00008BD08B5D0F8C80300F00DFEFFF7E7FFD2
:1043000008BD08B5D0F8C80300F017FEFFF7DFFFBF
:1043100008BD10B584B0D0F8C803BDF820400294A1
:104320009DF81C4001949DF81840009400F09AF804
:10433000FFF7CDFF04B010BD08B5D0F8C80300F0FA
:10434000DCF8FFF7C4FF08BD10B584B0D0F8C8038F
:104350009DF824400394BDF820400294079C0194EA
:104360009DF81840009400F024F9FFF7B0FF04B066
:1043700010BD000004290CD0052902D0022904D068
:104380007047064B03221A707047044B02221A70C2
:104390007047024B01221A70F2E700BFB202002000
:1043A00008B501220B490C4801F006FD48B90B493C
:1043B000094801F03FFD38B9074801F07FFD30B9E9
:1043C00008BDFCF746FBF2E7FCF743FBF4E7FCF71C
:1043D00040FBF5E77543000894D200204000002020
:1043E000F8B50668346A04F00F07C4F34343C4F316
:1043F0000A14022B00D0F8BD0546002CFBD007EBB9
:10440000870300EBC303596C0029F4D022463046E1
:1044100000F05CFE07EB870305EBC3035A6C2244F4
:104420005A64DA6C2244DA6406EB4716D6F8102593
:104430000B4B1340002BDED0D6F8003523F0804321
:1044400043F00043C6F8003507EB870305EBC303D1
:1044500093F8502082F0010283F85020CBE700BF90
:104460000000F81FF0B585B004469DF828509DF86F
:104470002C60BDF8307090F8B80201283BD00120C4
:1044800084F8B80201EB810004EBC0004FF0000C8F
:1044900080F83DC080F83830A0F8407080F83910BE
:1044A00080F83F6002F07F0C80F83AC012F0800F75
:1044B00018D101EB810004EBC0004FF0000C80F834
:1044C0003BC001EB810004EBC00080F83C50029738
:1044D00001960095206800F0D5FE002384F8B832DC
:1044E00005B0F0BD01EB810004EBC0004FF0010C02
:1044F00080F83BC0E5E70220F2E790F8B832012BE4
:104500000BD010B50446012380F8B832006800F0E3
:10451000C0FF002084F8B80210BD022070470028B8
:1045200045D0F0B58BB00646046890F8B932002B40
:1045300038D0032386F8B932E36B13F4807F01D1BE
:1045400000233361306800F06BFD344654F810CB23
:104550006D460FCC0FC50FCC0FC594E8030085E85E
:104560000300371D97E80E00604600F021FD012191
:10457000306800F05BFD344654F810CB6D460FCC2C
:104580000FC50FCC0FC594E8030085E8030097E83A
:104590000E00604600F014FE012386F8B9320020B8
:1045A0000BB0F0BD80F8B832FFF7C9FDC1E70120BC
:1045B0007047F8B59DF81850BDF8206001EB8104F4
:1045C00000EBC40484F83B2084F83F308DB901EB44
:1045D000810400EBC404032784F842709DF8247022
:1045E00084F83D70032B00F29480DFE803F00A8B1F
:1045F0002F5D01EB810400EBC404022784F84270B4
:10460000F0E7012D40F08580002A40F0828036B925
:1046100001EB810300EBC303012283F8512001EB7E
:10462000810300EBC30393F851303BB901EB8103E5
:1046300000EBC303002283F842206AE001EB810310
:1046400000EBC303022283F8422062E0AAB901EB27
:10465000810300EBC30393F8513033B901EB8103BD
:1046600000EBC30383F8422053E001EB810300EB2E
:10467000C303022283F842204BE001EB810300EBED
:10468000C30393F850303BB901EB810300EBC30344
:10469000002283F842203CE001EB810300EBC303DE
:1046A000022283F8422034E0AAB901EB810300EB37
:1046B000C30393F8513033B901EB810300EBC3031B
:1046C00083F8422025E001EB810300EBC3030222C3
:1046D00083F842201DE001EB810300EBC30393F854
:1046E00050303BB901EB810300EBC303002283F898
:1046F00042200EE001EB810300EBC303022283F8AA
:10470000422006E001EB810300EBC303002283F8A3
:10471000422001EB810300EBC303079A5A649E64B5
:10472000002283F85C20DA6483F8391083F85D2076
:1047300001EB8101C90038310144006800F01CFE22
:10474000F8BD30B583B004460568D5F84034019310
:10475000D5F840340093009B23F02E030093019B77
:1047600013F0020F07D0019B13F0010F25D1009B1E
:1047700043F002030093019B13F0080F10D0009B3D
:1047800043F008030093019B13F0040F2DD0A3699D
:10479000022B15D0E368012B22D02046FFF706FD3F
:1047A000019B13F0200F03D0009B43F020030093E4
:1047B000009BC5F8403403B030BDFFF7E5FCD6E7F9
:1047C000019B03F4C023B3F5802F04D0012120689E
:1047D00000F094FCE1E70221206800F08FFCDCE7A8
:1047E0004EF66022C5F80424D7E72046FFF7E4FC24
:1047F000D6E7F8B506460D46076807EB411707F5FB
:10480000A064A36813F0040F33D00423A360E3680B
:1048100043F00203E360A36813F4007F75D1A3683B
:1048200013F0010F00F0A48005EB850306EBC30332
:10483000012283F85D2000219965A26093F83F3042
:10484000002B6ED0022B6CD0032B7FD0012B72D1AA
:1048500005EB850306EBC303012283F85C2093F884
:104860005010514083F8501029463046FFF798FC0D
:1048700061E0A36813F4807F06D1A36813F0200FD2
:1048800014D02023A360C6E74FF48073A36001EB2C
:10489000810300EBC303072283F85D20E36843F044
:1048A0000203E360006800F0F4FDB4E7A36813F0CE
:1048B000080F17D1A36813F4806FACD0E36843F0FE
:1048C0000203E360006800F0E4FD1023A36005EB41
:1048D000850306EBC303082283F85D204FF4806351
:1048E000A36098E7E36843F00203E36001EB810310
:1048F00000EBC303052283F85D201023A360082387
:10490000A360006800F0C5FD85E7E36843F002039B
:10491000E3602946306800F0BCFD4FF40073A360EB
:1049200013E0E36843F00203E3602946306800F0D7
:10493000B0FD1023A36005EB850306EBC30393F8DA
:10494000502082F0010283F85020F8BDD7F80035DE
:1049500043F00053C7F8003505EB850306EBC303AE
:10496000012283F85C2029463046FFF719FCE2E774
:10497000A36813F0020F6CD0E36823F00203E36036
:1049800005EB850306EBC30393F85D30012B14D0D0
:10499000052B26D0062B2CD0082B2AD0032B48D051
:1049A000072B11D105EB850306EBC3039A6D01328A
:1049B0009A65042283F85C2006E005EB850306EB8C
:1049C000C303012283F85C200223A36005EB850367
:1049D00006EBC30393F85C2029463046FFF7E0FB63
:1049E000B3E705EB850306EBC303052283F85C20E0
:1049F000EAE705EB850206EBC202936D013393658E
:104A0000032B0ED9134600229A65042283F85C20FA
:104A1000D7F8003523F0804343F00043C7F8003552
:104A2000D2E705EB850306EBC303022283F85C2083
:104A3000EEE705EB850306EBC303022283F85C2057
:104A4000D7F8003523F0804343F00043C7F8003522
:104A5000BAE7A36813F0800F27D1A36813F0100FF3
:104A60003FF473AF05EB850306EBC30393F83F30C8
:104A7000032B33D00BB1022B14D105EB850306EBCE
:104A8000C30300229A6505EB850306EBC3030322EB
:104A900083F85D20E36843F00203E3602946306851
:104AA00000F0F7FC1023A3604FE7E36843F0020334
:104AB000E36005EB850306EBC3039A6D01329A654B
:104AC00005EB850306EBC303062283F85D20294628
:104AD000306800F0DEFC8023A36036E705EB850339
:104AE00006EBC30300229A65E36843F00203E36028
:104AF0002946306800F0CDFCD4E7F8B5036803EB35
:104B0000411303F5A065AA6812F0040F06D0042330
:104B1000AB60EB6843F00203EB60F8BD06460C4661
:104B2000AA6812F0200F1ED02023AB6001EB810396
:104B300000EBC30393F83D30012BEED101EB810371
:104B400000EBC303002283F83D2001EB810300EB5F
:104B5000C303022283F85C20EB681343EB60006818
:104B600000F097FCD9E7AA6812F0400F52D1AA686A
:104B700012F4007F68D1AA6812F0010F6FD1AA6801
:104B800012F0080F40F08180AA6812F0100F40F078
:104B90008D80AA6812F0800F40F09F80AA6812F4FE
:104BA000806F40F0AB80AA6812F0020FB5D0EA68BF
:104BB00022F00202EA6001EB810200EBC20292F8ED
:104BC0005D20012A00F0AE80032A00F0C280042A92
:104BD00000F0D380052A00F0D880062A02D0082AE7
:104BE00040F0BE80282101FB04618A6D01328A6594
:104BF000032A40F2D0800A4600219165042182F800
:104C00005C10D3F8002522F0804242F00042C3F845
:104C10000025A5E001EB810300EBC303042283F828
:104C20005D20012283F83D2001EB810300EBC303EB
:104C300000229A65EB6843F00203EB60006800F025
:104C400028FC4023AB6068E7EB6843F00203EB60AD
:104C5000006800F01EFC4FF40073AB605DE78F004E
:104C600001EB810300EBC30300229A65EB6843F07C
:104C70000203EB60006800F00CFC0123AB603C44D5
:104C800006EBC40686F85D3047E70823AB60EB68A7
:104C900043F00203EB60006800F0FBFB04EB8404CC
:104CA00006EBC406052386F85D3036E701EB810389
:104CB00000EBC30300229A6501EB810300EBC30301
:104CC000032283F85D20EB6843F00203EB60006889
:104CD00000F0DFFB1023AB601FE7EB6843F002033B
:104CE000EB60006800F0D5FB04EB840406EBC4061F
:104CF000062386F85D308023AB600EE7EB6843F057
:104D00000203EB60006800F0C4FB1023AB604FF4BB
:104D10008063AB6004EB840406EBC406082386F8CA
:104D20005D30FAE601EB810300EBC30383F85C20FE
:104D300093F83F30023BDBB2934211D801EB810381
:104D400000EBC30393F8512082F0010283F8512055
:104D500006E001EB810300EBC303022283F85C2031
:104D60000223AB6004EB840306EBC30393F85C20DF
:104D700021463046FFF714FACFE601EB810300EB42
:104D8000C303022283F85C20EAE7282303FB010324
:104D900083F85C20E4E7282202FB0462022182F807
:104DA0005C102EE7F8B504460568284600F0A2F925
:104DB000012800D0F8BD206800F098F90028F9D04B
:104DC000206800F093F910F4001F03D023684FF41B
:104DD00000125A61206800F089F910F4801F03D096
:104DE00023684FF480125A61206800F07FF910F0B8
:104DF000806F03D023684FF080625A61206800F012
:104E000075F910F0020F02D0236802225A6120685F
:104E100000F06CF910F0005F08D023684FF00052EA
:104E20005A61D5F8403413F0010F25D0206800F006
:104E30005DF910F0807F27D1206800F057F910F05D
:104E4000080F25D1206800F051F910F0007F26D11D
:104E5000206800F04BF910F0100FABD02268936976
:104E600023F0100393612046FFF7BAFA2268936992
:104E700043F0100393619DE72046FFF78BF9012172
:104E8000206800F03BF9D1E72046FFF75AFCD3E752
:104E90002046FFF773F9236808225A61D2E7206899
:104EA00000F0F2FA0746002604E0F1B22046FFF7D0
:104EB00024FE0136A368B34212D906F00F0327FA85
:104EC00003F313F0010FF4D005EB4613D3F80035CC
:104ED00013F4004FE9D0F1B22046FFF78AFCE8E76F
:104EE00023684FF000725A61B2E738B590F8B832D3
:104EF000012B0ED00446012580F8B852006800F05E
:104F000089F82946206800F037F9002084F8B802B3
:104F100038BD0220FCE790F8B832012B0BD010B559
:104F20000446012380F8B832006800F019FB002025
:104F300084F8B80210BD0220704708B5006800F080
:104F4000FCF808BD01EB810100EBC10191F85C00A8
:104F5000704701EB810100EBC101C86C704708B5D7
:104F6000006800F08AF908BD08B5006800F07AF919
:104F700008BD0000002301330C4A934211D8026996
:104F8000002AF8DA036943F00103036100230133C7
:104F9000064A934207D8026912F0010FF7D10020A8
:104FA0007047032070470320704700BF400D030087
:104FB00084B010B5044603A880E80E00089B012BBE
:104FC0001CD1A36B23F48033A363E36823F484032D
:104FD00023F04003E360E36823F44013E3600F9B96
:104FE000012B06D02046FFF7C5FFBDE8104004B0F6
:104FF0007047E36843F48013E360F3E7E36843F04A
:105000004003E3602046FFF7B5FFA36B43F4803312
:10501000A363EAE7836843F00103836000207047DD
:10502000836823F0010383600020704708B5C368DC
:1050300023F0C043C360012909D069B9C36843F0B4
:105040008043C3603220FDF7ADFF002008BDC36878
:1050500043F00053C360F5E70120F7E7890141F011
:105060002001016100230133054A934205D80269FA
:1050700012F0200FF7D1002070470320704700BFC7
:10508000400D03001023036100230133054A9342BE
:1050900005D8026912F0100FF7D1002070470320E5
:1050A000704700BF400D030070B403339E08002416
:1050B000B44208D200EB023303F5805351F8045B8D
:1050C0001D600134F4E7002070BC704710B4033257
:1050D00094080023A34206D200F58052126841F8DA
:1050E000042B0133F6E7084610BC7047426980691B
:1050F00010407047406900F00100704710B400F59F
:105100008064D0F8003423F00303C0F80034D0F8F2
:10511000003401F003021343C0F80034012904D025
:10512000022906D0002010BC70474BF68033636024
:10513000F8E741F270736360F4E730B583B004467A
:1051400000250195D0F840340193019B23F02E03F4
:105150000193019B43F48073C0F840346420FDF751
:1051600021FF019B23F48073C4F840340A20FDF72B
:1051700019FF284603B030BD82B000230193D0F858
:1051800040340193019B23F02E030193019B13F400
:10519000805F01D101290CD0019B13F4805F05D001
:1051A00021B9019B23F48053C0F84034002002B0A1
:1051B0007047019B43F48053C0F84034ECE7000093
:1051C00084B070B5054605AC84E80E0006460024A0
:1051D000C0F8004E836B23F480238363836B23F436
:1051E00000238363D0F8003423F00403C0F80034B4
:1051F0001021FFF733FF2846FFF744FF2246069BA6
:1052000093420AD906EB42134FF0FF31C3F8081559
:105210000021C3F80C150132F1E701212846FFF700
:10522000ABFFC820FDF7BEFE0020A8614FF0FF33A2
:105230006B6180236B6203F5C003AB62074BC5F85B
:105240000031AB6943F01003AB61AA69044B13430F
:10525000AB61BDE8704004B0704700BFE0004000A3
:10526000080020A382B000230193D0F840340193BA
:105270000198C0F3414002B0704700F5806080683B
:1052800080B27047F0B506469DF8184000EB411516
:1052900005F5A0604FF0FF378760032C5DD8DFE88D
:1052A00004F0024E024040F29D47C76012F0800FAA
:1052B00031D1002006F5806ED6F8187401F00F0188
:1052C0004FF0010C0CFA01F13943C6F81814B1691A
:1052D00041F00071B16112F0800F40D100269DF8BD
:1052E000141002293ED000219B0503F0FE53D20288
:1052F00002F4F0421343A20402F440221343BDF827
:105300001C20C2F30A02134333430B43C5F8003594
:10531000032C2AD0F0BDC76847F48077C76000200F
:10532000C8E740F29D67C76012F0800F01D10020EE
:10533000C0E7C76847F48077C7600020BAE740F24B
:105340002527C76012F0800F01D10020B2E7C7689F
:1053500047F4C077C7600020ACE70120AAE74FF40C
:105360000046BCE74FF40031BEE7D5F8003543F006
:105370000053C5F80035CDE738B54B780A696AB1F6
:105380000C892244013AB2FBF4F292B2B2F5807F6A
:1053900005D924020C614FF4807200E00122CC7820
:1053A0001CB10C8904FB02F40C610C69C4F31204F7
:1053B000334D05EAC24222438C7A640704F0C044AC
:1053C00000EB43132243C3F8102500F58065AA685B
:1053D00012F0010FD3F8002522F00052C3F8002587
:1053E000D3F800250CBF4FF0005400242243C3F82B
:1053F0000025D3F80045234A1460146824F0804443
:105400001460CA78BAB11F4C226842F4004222608C
:105410001C4A146844F0004414601268C3F8002564
:10542000CB78F3B90B69E3B1CA79032A14D8DFE862
:1054300002F0081A081A134C226822F40042226073
:10544000E6E70333C26A92B2C3F38F039A4203D2F0
:10545000836943F0200383610B8A4A78C968FFF7A8
:1054600023FE002038BD03332A6992B2C3F38F03B1
:105470009A42F1D2836943F080638361ECE700BF15
:105480000000F81FB402002000F58060406980B27F
:10549000704710B400EB411101F5A064D1F800355C
:1054A000C3F3814213F4402F26D0022A24D0D1F82E
:1054B000003543F08043C1F80035D0F8103413F4C0
:1054C0007F0346D1D1F8002522F00042C1F8002523
:1054D000D1F8002542F00042C1F80025D1F800259E
:1054E00022F40042C1F800250133B3F57A7F2DD8AC
:1054F0002268002AF8DB29E0D1F8003543F0804328
:10550000C1F80035C36A13F47F0319D1D1F800251F
:1055100022F00042C1F80025D1F8002542F00042F7
:10552000C1F80025D1F8002522F40042C1F8002579
:105530000133B3F57A7F09D82268002AF8DB05E049
:10554000D1F8003543F00043C1F80035002010BC0D
:105550007047D1F8003543F00043C1F80035F5E756
:1055600070B505460446FFF75BFD10212846FFF79E
:1055700075FD2846FFF786FD00220AE004EB421184
:10558000D1F8003523F0802343F08043C1F8003583
:1055900001320F2AF2D90020034600E001300F2823
:1055A00013D804EB401606F5A061D6F8002522F4C6
:1055B000004242F04042C6F800250133B3F57A7F3D
:1055C000ECD80A68002AF8DBE8E74FF0FF33C5F8AB
:1055D00014346B612846FFF71DFD002070BD30B408
:1055E00002689469A5B2D369916988B2854205D0F1
:1055F000D06980B240EA014030BC704798B240EABE
:105600000440F9E70368186A5B6A9BB243EA00400A
:105610007047030903EB830300F00F0000EB430026
:10562000C0B2704710B400F5FA64022922D801EB29
:105630004103C1EBC3011F4BA3FB011302EB530357
:10564000234400F2CF7003EB90031B4AA2FB00201F
:10565000A3EB501303EBD01304331848A0FB032033
:105660001A1A00EB52008008C0EBC000181AC0B232
:1056700010BC704701EB4103C1EBC3010D4BA3FB11
:10568000011302EB5303234403EB94030A4AA2FBE6
:105690000424A3EB541303EBD41302330748A0FBF9
:1056A00003201A1A00EB52008008C0EBC000181A41
:1056B000DDE700BF398EE3381F85EB512549922481
:1056C00038B50446FDF768FC054623685A6812F0B1
:1056D000200F07D1FDF760FC401BB0F57A7FF4D9AD
:1056E000032004E05A6842F010025A60002038BDDE
:1056F00038B504460268536823F010035360FDF781
:105700004BFC054623685B6813F0200F07D1FDF7BB
:1057100043FC401BB0F57A7FF4D9032000E0002061
:1057200038BD38B505460C46FFF7CAFF08B1012061
:1057300038BD2B68220C9A612B68A4B2DC61284624
:10574000FFF7D6FF0028F3D00120F1E738B5054672
:105750000C46FFF7B5FF08B1012038BD2B68220CBD
:105760001A622B68A4B25C622846FFF7C1FF0028CA
:10577000F3D00120F1E770B5002857D00C4605465C
:10578000002955D0037C012B54D00123037402233C
:105790004374BAB908784B78C3EB03139B004FF4FA
:1057A000616202FB00338C781C4421462846FFF7D7
:1057B000B8FF0646C8B104236B7400232B7401267E
:1057C000304670BD0878FFF724FF4FF4616606FB92
:1057D00000F66078FFF71DFFC0EB001006EB8006B7
:1057E000A078FFF716FF3418DFE72A68536823F024
:1057F000050353602846FFF705FFB0F1FF3F01D0D6
:10580000844204D801236B7400232B74D8E700F57D
:10581000A83101F5C0712846FFF798FF0028F1D0A4
:1058200004236B7400232B740126C9E70126C7E704
:105830000126C5E70226C3E700285AD038B50D4631
:105840000446002957D0037C012B56D00123037452
:1058500002234374BAB9CB78C3734B7843738B7804
:105860008373A27B617BE07BFFF7DCFE20732870F3
:105870002046FFF7B4FE224B984211D801236374EF
:105880000020207438BDC878FFF7C3FEE073687845
:10589000FFF7BFFE6073A878FFF7BBFEA073E0E7D9
:1058A000184DA5FB00352D0C174B03FB150529469C
:1058B0002046FFF736FF28B10423637400232374C6
:1058C0000120DFE72046FFF79DFEB0F1FF3FD5D076
:1058D0008542D3D900F5A83101F5C0712046FFF704
:1058E00035FF0028CAD004236374002323740120E9
:1058F000C8E7012070470120C4E70220C2E700BFCB
:105900008F5F010007452EC280510100C0B138B53C
:1059100005460268536823F008035360FDF73CFB1B
:1059200004462B685B6813F0080F07D1FDF734FBC2
:10593000001BB0F57A7FF4D9032000E0002038BDC9
:1059400001207047002857D010B50446437C4BB166
:10595000022363742046FFF7D9FF38B10423637430
:10596000012010BD0374FBF7B9F8F1E72046FFF7FB
:10597000A7FE60BB2268536823F007035360A36847
:1059800023B11E4A136B23F0010313631B4AD36A2E
:1059900023F46073A1680B43D3626268B2F1FF3FE6
:1059A00019D021688B6823F00F0343EA12438B6000
:1059B0002168CB681B0C1B0492B21343CB602046BA
:1059C000FFF796FE88B1042363740120C9E704231E
:1059D00063740120C5E70120FDF7F0FF08B1421E06
:1059E000DFE7042363740120BBE70023E373012393
:1059F0006373A3736374B4E701207047006C0040C5
:105A0000002856D010B50446436A33B94368B3F54D
:105A1000827F05D00023C36102E00023036143615C
:105A20000023A36294F85130002B3CD0022384F869
:105A300051302268136823F040031360636803F455
:105A40008273A26802F404421343E26802F4006223
:105A50001343226902F002021343626902F0010259
:105A60001343A26902F400721343E26902F03802A0
:105A70001343226A02F080021343A26A02F4005226
:105A8000216813430B60638B226803F004035360A7
:105A90002268D36923F40063D36100206065012389
:105AA00084F8513010BD84F850302046FBF736F8AA
:105AB000BCE701207047000010B504460268136976
:105AC00023F44053C1680B43136183680269134395
:105AD00042691A430168CB6823F4B05323F00C03E6
