:020000040800F2
:100000000000012009A30008F10F0008F30F000809
:10001000F50F0008F70F0008F90F000800000000B6
:10002000000000000000000000000000A19E000889
:10003000FB0F000800000000419F0008859F00089A
:1000400051A3000851A3000851A3000851A30008C0
:1000500051A3000851A3000851A3000851A30008B0
:1000600051A3000851A3000851A3000851A30008A0
:1000700051A3000851A3000851A3000851A3000890
:1000800051A3000851A3000851A3000851A3000880
:1000900051A3000851A3000851A3000851A3000870
:1000A00051A3000851A3000851A3000851A3000860
:1000B000FD0F000851A3000851A3000851A3000838
:1000C00051A3000851A3000851A3000851A3000840
:1000D00051A3000851A3000851A3000851A3000830
:1000E00051A3000851A3000851A30008000000001C
:1000F0000000000000000000000000000000000000
:10010000000000000000000051A3000851A30008F7
:1001100051A3000851A3000851A3000851A30008EF
:1001200051A3000851A3000851A3000851A30008DF
:1001300051A3000851A3000851A3000851A30008CF
:1001400051A3000851A3000851A300080D10000896
:10015000000000000000000000000000000000009F
:10016000000000000000000000000000000000008F
:10017000000000000000000000000000000000007F
:10018000000000000000000000000000000000006F
:10019000000000000000000000000000000000005F
:1001A000000000000000000000000000000000004F
:1001B000000000000000000000000000000000003F
:1001C000000000000000000000000000000000002F
:1001D000000000000000000000000000000000001F
:0401E0005FF8E0F1F3
:1001F00010B5054C237833B9044B13B10448AFF361
:1002000000800123237010BDE400002000000000E6
:10021000C815010808B5034B1BB103490348AFF3E8
:10022000008008BD00000000E8000020C81501089B
:1002300080F0004002E000BF81F0004142001FBF9B
:100240005FEA410392EA030F7FEA226C7FEA236CA4
:100250006AD04FEA1262D2EB1363C1BFD218414099
:1002600048404140B8BF5B42192B88BF704710F02F
:10027000004F40F4000020F07F4018BF404211F0D2
:10028000004F41F4000121F07F4118BF494292EA3A
:10029000030F3FD0A2F1010241FA03FC10EB0C0066
:1002A000C3F1200301FA03F100F0004302D54942F3
:1002B00060EB4000B0F5000F13D3B0F1807F06D3A0
:1002C00040084FEA310102F10102FE2A51D2B1F198
:1002D000004F40EBC25008BF20F0010040EA03008D
:1002E0007047490040EB0000013A28BFB0F5000F0D
:1002F000EDD2B0FA80FCACF1080CB2EB0C0200FAC3
:100300000CF0AABF00EBC25052421843BCBFD04011
:100310001843704792F0000F81F4000106BF80F48B
:1003200000000132013BB5E74FEA41037FEA226C4E
:1003300018BF7FEA236C21D092EA030F04D092F019
:10034000000F08BF0846704790EA010F1CBF00204D
:10035000704712F07F4F04D1400028BF40F00040AA
:10036000704712F100723CBF00F50000704700F0CA
:10037000004343F0FE4040F4000070477FEA2262F1
:1003800016BF08467FEA23630146420206BF5FEAC2
:10039000412390EA010F40F4800070474FF00003C2
:1003A00004E000BF10F0004348BF40425FEA000C89
:1003B00008BF704743F0964301464FF000001CE031
:1003C00050EA010208BF70474FF000030AE000BF87
:1003D00050EA010208BF704711F0004302D54042C5
:1003E00061EB41015FEA010C02BF84460146002037
:1003F00043F0B64308BFA3F18053A3F50003BCFA52
:100400008CF2083AA3EBC25310DB01FA02FC6344FE
:1004100000FA02FCC2F12002BCF1004F20FA02F205
:1004200043EB020008BF20F00100704702F12002F8
:1004300001FA02FCC2F1200250EA4C0021FA02F259
:1004400043EB020008BF20EADC7070474FF0FF0C5E
:100450001CEAD0521EBF1CEAD15392EA0C0F93EA59
:100460000C0F6FD01A4480EA010C400218BF5FEAFB
:1004700041211ED04FF0006343EA501043EA51116E
:10048000A0FB01310CF00040B1F5000F3EBF490068
:1004900041EAD3715B0040EA010062F17F02FD2A6C
:1004A0001DD8B3F1004F40EBC25008BF20F001004F
:1004B000704790F0000F0CF0004C08BF49024CEA66
:1004C000502040EA51207F3AC2BFD2F1FF0340EAF8
:1004D000C250704740F400004FF00003013A5DDC69
:1004E00012F1190FDCBF00F000407047C2F10002AA
:1004F000410021FA02F1C2F1200200FA02FC5FEA97
:10050000310040F1000053EA4C0308BF20EADC70E0
:10051000704792F0000F00F0004C02BF400010F452
:10052000000F013AF9D040EA0C0093F0000F01F0FF
:10053000004C02BF490011F4000F013BF9D041EA21
:100540000C018FE70CEAD15392EA0C0F18BF93EA23
:100550000C0F0AD030F0004C18BF31F0004CD8D14D
:1005600080EA010000F00040704790F0000F17BFD4
:1005700090F0004F084691F0000F91F0004F14D01A
:1005800092EA0C0F01D142020FD193EA0C0F03D172
:100590004B0218BF084608D180EA010000F0004075
:1005A00040F0FE4040F40000704740F0FE4040F450
:1005B000400070474FF0FF0C1CEAD0521EBF1CEAEF
:1005C000D15392EA0C0F93EA0C0F69D0A2EB03020D
:1005D00080EA010C49024FEA402037D04FF08053A7
:1005E00043EA111143EA10130CF000408B4238BF6C
:1005F0005B0042F17D024FF4000C8B4224BF5B1A7A
:1006000040EA0C00B3EB510F24BFA3EB510340EAC7
:100610005C00B3EB910F24BFA3EB910340EA9C0075
:10062000B3EBD10F24BFA3EBD10340EADC001B01E5
:1006300018BF5FEA1C1CE0D1FD2A3FF650AF8B4289
:1006400040EBC25008BF20F0010070470CF0004C96
:100650004CEA50207F32C2BFD2F1FF0340EAC250C1
:10066000704740F400004FF00003013A37E792F082
:10067000000F00F0004C02BF400010F4000F013AE0
:10068000F9D040EA0C0093F0000F01F0004C02BFDB
:10069000490011F4000F013BF9D041EA0C0195E744
:1006A0000CEAD15392EA0C0F08D142027FF47DAFDD
:1006B00093EA0C0F7FF470AF084676E793EA0C0FCD
:1006C00004D14B023FF44CAF08466EE730F0004CCB
:1006D00018BF31F0004CCAD130F000427FF45CAF5B
:1006E00031F000437FF43CAF5FE700BF4FF0FF3CC9
:1006F00006E000BF4FF0010C02E000BF4FF0010C1C
:100700004DF804CD4FEA40024FEA41037FEA226CE4
:1007100018BF7FEA236C11D001B052EA530C18BF06
:1007200090EA010F58BFB2EB030088BFC81738BF6B
:100730006FEAE17018BF40F0010070477FEA226C59
:1007400002D15FEA402C05D17FEA236CE4D15FEA55
:10075000412CE1D05DF8040B704700BF8446084689
:100760006146FFE70FB5FFF7C9FF002848BF10F14A
:10077000000F0FBD4DF808EDFFF7F4FF0CBF01208F
:1007800000205DF808FB00BF4DF808EDFFF7EAFF19
:1007900034BF012000205DF808FB00BF4DF808EDD4
:1007A000FFF7E0FF94BF012000205DF808FB00BFC9
:1007B0004DF808EDFFF7D2FF94BF012000205DF84F
:1007C00008FB00BF4DF808EDFFF7C8FF34BF01205C
:1007D00000205DF808FB00BF4FEA4002B2F1FE4F77
:1007E0000FD34FF09E03B3EB12620DD94FEA0023F3
:1007F00043F0004310F0004F23FA02F018BF4042CC
:1008000070474FF00000704712F1610F01D14202B2
:1008100005D110F0004008BF6FF0004070474FF066
:100820000000704753B94AB9002908BF00281CBF0F
:100830004FF0FF314FF0FF3000F06EB9ADF1080C12
:100840006DE904CE00F006F8DDF804E0DDE90223EE
:1008500004B070472DE9F047089E0D4604468E46C9
:10086000002B40F083808A42174647D9B2FA82F3C0
:100870004BB1C3F1200105FA03FE20FA01F19F40BC
:1008800041EA0E0E9C404FEA1748BEFBF8FC1FFAE7
:1008900087F908FB1CE20CFB09F0210C41EA02423B
:1008A00090420AD9BA180CF1FF3180F018819042B9
:1008B00040F21581ACF1020C3A44121AB2FBF8F086
:1008C00008FB102200FB09F1A4B244EA0244A14251
:1008D00009D93C1900F1FF3280F00381A14240F2B6
:1008E000008102383C44641A002140EA0C401EB1E9
:1008F0000022DC40C6E90042BDE8F08702B9FFDE15
:10090000B2FA82F3002B4FD18D1A01214FEA124E19
:100910001FFA82F8B5FBFEFC0EFB1C5508FB0CF021
:10092000220C42EA0545A84207D97D190CF1FF3295
:1009300002D2A84200F2E98094462D1AB5FBFEF0DF
:100940000EFB105508FB00F8A4B244EA0544A0458C
:1009500007D93C1900F1FF3202D2A04500F2D9803C
:100960001046A4EB080440EA0C40C0E78B4208D9CB
:10097000002E00F0B1800021C6E900050846BDE860
:10098000F087B3FA83F100294BD1AB4202D3824204
:1009900000F2B980841A65EB030301209E46002E05
:1009A000AAD0C6E9004EA7E79F40C3F12002D1407C
:1009B0004FEA174EB1FBFEF01FFA87F80EFB10113D
:1009C00024FA02F29D4000FB08FC2A43150C45EA7C
:1009D0000145AC4504FA03F409D97D1900F1FF3152
:1009E00080F08F80AC4540F28C8002383D44A5EB0E
:1009F0000C05B5FBFEF10EFB115C01FB08F995B28D
:100A000045EA0C45A94507D97D1901F1FF3274D299
:100A1000A94572D902393D44A5EB090541EA0041D7
:100A200078E7C1F120078B4022FA07FC4CEA030C5F
:100A300025FA07F44FEA1C4EB4FBFEF91FFA8CF8B6
:100A40000EFB194420FA07F309FB08FA8D401D43F9
:100A50002B0C43EA0444A24502FA01F200FA01F326
:100A600009D91CEB040409F1FF3048D2A24546D94C
:100A7000A9F102096444A4EB0A04B4FBFEF00EFBE6
:100A8000104400FB08FAADB245EA0444A24508D977
:100A90001CEB040400F1FF352DD2A2452BD90238FE
:100AA000644440EA0940A0FB0289A4EB0A044C45D7
:100AB000C6464D4619D316D05EB1B3EB0E0264EBB9
:100AC000050404FA07F722FA01F31F43CC40C6E9F4
:100AD00000740021BDE8F087314630460CE78C46B3
:100AE000EBE61046FFE64345E6D2B8EB020E69EBB3
:100AF0000C050138E0E72846D3E711468CE781462C
:100B0000B9E7084673E7084649E7ACF1020C3D44F3
:100B100013E702383C4424E7704700BF2DE9F04F4B
:100B20008BB000240694079408940994674B9A6943
:100B300042F040029A619A6902F040020192019AE1
:100B40009A6942F010029A619A6902F010020292C8
:100B5000029A9A6942F004029A619A6902F00402C8
:100B60000392039A9A6942F008029A619A6902F024
:100B700008020492049A9A6942F020029A619B69E1
:100B800003F020030593059BDFF84CA101224FF6EB
:100B9000FF71504603F0DAFCDFF8408101224FF488
:100BA0008641404603F0D2FC494E01224EF69C019C
:100BB000304603F0CBFCDFF8289101224FF440715E
:100BC000484603F0C3FC4FF6FF73069301250795D3
:100BD00008940327099706A9504603F0A7FB42F2A1
:100BE000300306930794089406A9484603F09EFB39
:100BF00040F20143069307940894DFF8E8B006A991
:100C0000584603F093FB4FF48063069307940894CF
:100C100006A9404603F08AFB4FF4804306930795EC
:100C20000894099706A9404603F080FB4FF4E0635F
:100C300006930794089406A9304603F077FB4FF417
:100C40000063069307950894099506A9304603F0BA
:100C50006DFB4FF46043069307950894099706A926
:100C6000304603F063FB4FF4407ACDF818A00795A7
:100C70000894099706A9484603F058FB4FF480737F
:100C800006934FF00209CDF81C90099706A9584623
:100C900003F04CFB9C23069307950894CDF8249011
:100CA00006A9304603F042FBCDF818A0079508943A
:100CB000CDF8249006A9404603F038FB054A536856
:100CC00043F0E46353600BB0BDE8F08F00100240C6
:100CD000001401400000014000180140000C0140D8
:100CE000001001400008014008B50D480D4B03609D
:100CF0004FF48273436000238360C3600222026169
:100D0000012242614FF4007282610822C2610362D3
:100D1000436283620A23C36205F004FB08BD00BF7F
:100D200090D000200030014008B50C480C4B036007
:100D30004FF48273436000238360C36003614361A7
:100D40004FF4007282611822C261036243628362BF
:100D50000A23C36205F0E6FA08BD00BF24D00020D4
:100D6000003C004010B582B00023ADF804308DF88F
:100D700006300093144C154B23604FF0FF33636033
:100D80004FF48073A360204605F0BAF915238DF85F
:100D9000043012238DF8053011238DF8063001221E
:100DA00001A9204605F0C5F801228DF800208DF834
:100DB00001208DF8022020238DF80330694620465B
:100DC00005F018F902B010BD7CD0002000280040CA
:100DD00008B50848084B03604FF4E1334360002333
:100DE0008360C36003610C2242618361C36105F0CB
:100DF000E9FD08BDE8D000200044004008B50348E4
:100E0000034B036007F0BAFA08BD00BF1CD00020F6
:100E10000030024070B584B003F0A0FE0AF082F901
:100E20000421274803F098FB0AF008FC01A80AF007
:100E300065FB0AF099FB05460AF09CFB04464FF45B
:100E40007F000AF046F81E220A211E480AF03AFBEB
:100E500009F046FF023009F0E9FF1B4E30460AF068
:100E6000A1FA042128460AF04AFD184D28460AF046
:100E700099FA042120460AF042FDFF200AF029F8E1
:100E800009F02EFF043009F0D1FF11480AF08AFA68
:100E900009F026FF023009F0C9FF30460AF082FA55
:100EA000042101980AF02BFD28460AF07BFA042160
:100EB00002980AF024FD642008F07CFDB0E700BF32
:100EC00000140140A0230108B0230108B423010845
:100ED000BC230108F0B59DB0002412941494099429
:100EE0000A940B940C940D942022214601A809F039
:100EF00073FA09230E934FF4803310930422119256
:100F00000125139515950F930226169617934FF406
:100F1000E013189319964FF4C0631A9340271B9758
:100F20000EA802F047FC0F2309930A960B944FF486
:100F300080630C930D94314609A802F039FF112308
:100F400001934FF40073029308944FF40043069307
:100F5000079701A803F026F822464FF0306120469B
:100F600002F0A4FE074AD36A23F0F0033B43D362A6
:100F7000D36A23F4704343F40043D362024B1D60F1
:100F80001DB0F0BD001002407000424200B589B0B3
:100F900002F0C2FBFFF79EFFFFF7C0FDFFF7A4FEC4
:100FA000FFF7E0FEFFF7C0FEFFF712FFFFF726FF97
:100FB00001AC084D0FCD0FC495E8070084E8070089
:100FC000002101A808F0BDFC034B186008F0B4FC38
:100FD000FEE700BFE0150108C4CF002008B5036894
:100FE000B3F1804F00D008BD02F0A8FBFBE77047CB
:100FF0007047FEE7FEE7FEE7FEE7704708B50248E8
:1010000003F04CFB08BD00BFCCD7002008B5024858
:1010100004F0A6FA08BD00BF2CD1002082B00A4B14
:101020009A6942F001029A619A6902F00102009203
:10103000009ADA6942F08052DA61DB6903F080538A
:101040000193019B02B07047001002400268094BF7
:101050009A4200D0704782B0A3F500535A6942F01B
:1010600040025A615B6903F040030193019B02B0A7
:10107000704700BF0030024002680C4B9A4200D01B
:10108000704700B583B003F0C5FA094BDA6942F046
:101090000062DA61DB6903F000630193019B054B99
:1010A00001221A6003B05DF804FB00BF0028004075
:1010B000001002403C04424210B588B00023049363
:1010C00005930693079303682F4A934204D02F4A4F
:1010D000934229D008B010BD2D4B9A6942F480523A
:1010E0009A619A6902F480520092009A9A6942F0D9
:1010F00004029A619B6903F004030193019BA023FE
:1011000004930223059303230793224C04A920464A
:1011100003F00CF94023049300230593069304A9DC
:10112000204603F003F9D5E7194BDA6942F400428F
:10113000DA61DA6902F400420292029A9A6942F094
:1011400010029A619B6903F010030393039B4FF411
:10115000A053049302230593032307930E4C04A981
:10116000204603F0E3F84FF4006304930023059353
:10117000069304A9204603F0D9F8084A536843F0BF
:10118000B8535360A6E700BF00300140003C004068
:101190000010024000080140001001400000014022
:1011A00010B586B00023029303930493059302685D
:1011B0001A4B9A4201D006B010BD03F5E633DA6946
:1011C00042F40032DA61DA6902F400320092009AE5
:1011D0009A6942F020029A619B6903F0200301930F
:1011E000019B2023029302230393032305930C4CBA
:1011F00002A9204603F09AF84023029300230393A8
:10120000049302A9204603F091F8064A536843F07C
:10121000E06343F008035360CDE700BF00440040A3
:10122000001401400000014000B583B08DF80700B4
:1012300040F6B83301220DF10701034805F0CDF85F
:10124000002003B05DF804FB24D0002010B582B06C
:10125000104C00224FF40071204603F077F9D020A3
:10126000FFF7E2FF40F6B833022201A90A4805F071
:10127000A7FA01224FF40071204603F067F99DF8A8
:1012800004309DF8050000EB0320C0F3CC0002B051
:1012900010BD00BF0010014024D0002010B582B066
:1012A000104C00224FF40071204603F04FF99020BB
:1012B000FFF7BAFF40F6B833022201A90A4805F049
:1012C0007FFA01224FF40071204603F03FF99DF8A8
:1012D00004309DF8050000EB0320C0F3CC0002B001
:1012E00010BD00BF0010014024D00020704770479F
:1012F00070B586B001AC234D0FCD0FC42B682360B1
:101300000024092C09D8FFF7A1FF06AB03EB440327
:1013100023F8140C0134E4B2F3E70A2C02D00020C5
:1013200006B070BD0026334601E00133DBB219463A
:10133000621E934217DA06AA02EB430232F8145CEB
:101340005A1C06A800EB420030F8140C8542ECD978
:1013500006AE06EB420222F8145C06EB410121F8CE
:10136000140C0126E1E7002EDCD1BDF80A00BDF81F
:101370000C301844BDF80E301844034B83FB00308A
:1013800080B2CDE7FC1501085655555570B586B0AD
:1013900001AC234D0FCD0FC42B6823600024092C12
:1013A00009D8FFF77BFF06AB03EB440323F8140CCB
:1013B0000134E4B2F3E70A2C02D0002006B070BD7D
:1013C0000026334601E00133DBB21946621E934228
:1013D00017DA06AA02EB430232F8145C5A1C06A87C
:1013E00000EB420030F8140C8542ECD906AE06EB57
:1013F000420222F8145C06EB410121F8140C01268C
:10140000E1E7002EDCD1BDF80A00BDF80C3018442D
:10141000BDF80E301844034B83FB003080B2CDE79B
:10142000FC1501085655555582B000230193064B13
:1014300003FB00F30193019B1BB1019B013B019353
:10144000F9E702B0704700BFA086010082B0002318
:1014500001930A230193019B1BB1019B013B019363
:10146000F9E702B07047000038B504460E4D00227F
:101470004FF40051284603F069F801224FF400416F
:10148000284603F063F8094BDC60094C00224FF456
:101490008041204603F05AF801224FF48041204653
:1014A00003F054F838BD00BF00140140001801409B
:1014B000000C014038B504460E4D01224FF4005196
:1014C000284603F043F801224FF40041284603F078
:1014D0003DF8094BDC60094C00224FF48041204666
:1014E00003F034F801224FF48041204603F02EF837
:1014F00038BD00BF0014014000180140000C01403D
:1015000070B5144E01224FF40051304603F01EF81E
:1015100001224FF48041104803F018F800224FF4E4
:101520000041304603F012F80C4C4FF04433636036
:101530002360FFF78BFFA368A568ADB24FF033338C
:101540006360236001224FF40041304602F0FEFF49
:10155000284670BD00140140000C014000180140F5
:10156000F8B505460C46164E00224FF48071304601
:1015700002F0ECFF134F00224FF40051384602F006
:10158000E5FF01224FF40041384602F0DFFF0E4B29
:10159000DD600E4D00224FF48041284602F0D6FF58
:1015A00001224FF48041284602F0D0FF2046FFF789
:1015B00081FF01224FF48071304602F0C7FFF8BD71
:1015C000001001400014014000180140000C0140CF
:1015D0002DE9F84FDFF8808300224FF480714046F8
:1015E00002F0B4FFD84D00224FF40051284602F01B
:1015F000ADFF01224FF40041284602F0A7FFD34C73
:101600000026E660D24F32464FF48041384602F061
:101610009DFF01224FF48041384602F097FF0120E0
:10162000FFF748FF01224FF48071404602F08EFF21
:101630000120FFF7F9FE32464FF48071404602F078
:1016400085FF32464FF40051284602F07FFF012209
:101650004FF40041284602F079FFE66032464FF42D
:101660008041384602F072FF01224FF48041384633
:1016700002F06CFF01224FF40051284602F066FF91
:1016800001224FF48041384602F060FF32464FF4A9
:101690000041284602F05AFF4FF044336360236054
:1016A000FFF7D4FEA368A668B6B24FF03333636089
:1016B000236001224FF40041284602F047FF012237
:1016C0004FF48071404602F041FFA24B1E80012E74
:1016D00040F2EC809F4B1B881BB99E4B49F2203295
:1016E0001A809C4B1B8849F22532934200F03681C8
:1016F00049F22832934200F0318149F2203293427C
:1017000001F07882B3F5134F01F0748249F231325F
:10171000934201F06E8549F61912934201F05C86FE
:1017200041F20552934201F0E38648F68912934252
:1017300041F0418201210020FFF712FF4AF6A40187
:101740000320FFF70DFF00210C20FFF709FF40F6F3
:101750000C010D20FFF704FF4FF42C510E20FFF772
:10176000FFFEB0211E20FFF7FBFE42F63F110120D5
:10177000FFF7F6FE4FF4C0610220FFF7F1FE0021F3
:101780001020FFF7EDFE46F278011120FFF7E8FE8A
:1017900000210520FFF7E4FE00210620FFF7E0FE10
:1017A0004EF61C711620FFF7DBFE03211720FFF712
:1017B000D7FE40F233210720FFF7D2FE00210B2095
:1017C000FFF7CEFE00210F20FFF7CAFE00214120C7
:1017D000FFF7C6FE00214220FFF7C2FE002148208D
:1017E000FFF7BEFE40F23F114920FFF7B9FE00218E
:1017F0004A20FFF7B5FE00214B20FFF7B1FE4FF462
:101800006F414420FFF7ACFE00214520FFF7A8FE02
:1018100040F23F114620FFF7A3FE40F2077130204F
:10182000FFF79EFE4FF401713120FFF799FE4FF450
:1018300001713220FFF794FE40F202513320FFF78E
:101840008FFE40F207513420FFF78AFE4FF40171FA
:101850003520FFF785FE4FF401713620FFF780FE3B
:1018600040F202513720FFF77BFE40F202313A206E
:10187000FFF776FE40F202313B20FFF771FE0021B8
:101880002320FFF76DFE00212420FFF769FE4FF4AF
:1018900000412520FFF764FE00214E20FFF760FE87
:1018A00000214F20FFF75CFE01F085B900224FF4C4
:1018B0008071404602F04AFE00224FF40051284653
:1018C00002F044FE01224FF40041284602F03EFEA1
:1018D0000026E66032464FF48041384602F036FE7C
:1018E00001224FF48041384602F030FE01224FF4CD
:1018F0000051284602F02AFE01224FF4804138466A
:1019000002F024FE32464FF40041284602F01EFE4B
:101910004FF0443363602360FFF798FDA368A66827
:10192000B6B24FF033336360236001224FF40041BD
:10193000284602F00BFE01224FF48071404602F06F
:1019400005FE044B1E80C5E600140140001801404E
:10195000000C01400C04002000100140FC4E00224D
:101960004FF48071304602F0F1FDDFF8EC83002285
:101970004FF40051404602F0E9FD01224FF40041CE
:10198000404602F0E3FDDFF8D493E323C9F80C30BE
:10199000F04F00224FF48041384602F0D7FD01227B
:1019A0004FF48041384602F0D1FD43F20800FFF7C2
:1019B00081FD01224FF48071304602F0C7FD002204
:1019C0004FF48071304602F0C1FD00224FF4005107
:1019D000404602F0BBFD01224FF40041404602F0B8
:1019E000B5FDE723C9F80C3000224FF4804138469A
:1019F00002F0ACFD01224FF48041384602F0A6FD12
:101A00001220FFF757FD01224FF48071304602F09B
:101A10009DFD00224FF48071304602F097FD0022B8
:101A20004FF40051404602F091FD01224FF4004175
:101A3000404602F08BFDEF23C9F80C3000224FF432
:101A40008041384602F082FD01224FF48041384641
:101A500002F07CFD41F23120FFF72CFD01224FF412
:101A60008071304602F072FD00224FF480713046E2
:101A700002F06CFD00224FF40051404602F066FD7A
:101A800001224FF40041404602F060FD0024C9F8F5
:101A90000C4022464FF48041384602F057FD0122A7
:101AA0004FF48041384602F051FD0120FFF702FD5E
:101AB00001224FF48071304602F048FD22464FF477
:101AC0008071304602F042FD22464FF400514046FC
:101AD00002F03CFD01224FF40041404602F036FD89
:101AE0000125C9F80C5022464FF48041384602F0D7
:101AF0002DFD2A464FF48041384602F027FD4FF471
:101B00008070FFF7D7FC2A464FF48071304602F010
:101B10001DFD22464FF48071304602F017FD22462B
:101B20004FF40051404602F011FD2A464FF40041A7
:101B3000404602F00BFD0223C9F80C3022464FF458
:101B40008041384602F002FD2A464FF48041384673
:101B500002F0FCFC4FF4E060FFF7ACFC2A464FF4C7
:101B60008071304602F0F2FC22464FF4807130461C
:101B700002F0ECFC22464FF40051404602F0E6FC35
:101B80002A464FF40041404602F0E0FC0323C9F826
:101B90000C3022464FF48041384602F0D7FC2A46EA
:101BA0004FF48041384602F0D1FC41F23000FFF79B
:101BB00081FC2A464FF48071304602F0C7FC224671
:101BC0004FF48071304602F0C1FC22464FF40051C0
:101BD000404602F0BBFC2A464FF40041404602F06A
:101BE000B5FC0423C9F80C3022464FF48041384636
:101BF00002F0ACFC2A464FF48041384602F0A6FCC5
:101C00002046FFF757FC2A464FF48071304602F019
:101C10009DFC22464FF48071304602F097FC22462C
:101C20004FF40051404602F091FC2A464FF4004127
:101C3000404602F08BFC0823C9F80C3022464FF4D2
:101C40008041384602F082FC2A464FF480413846F3
:101C500002F07CFC40F20720FFF72CFC2A464FF4F0
:101C60008071304602F072FC22464FF4807130469B
:101C700002F06CFC22464FF40051404602F066FC34
:101C80002A464FF40041404602F060FC0923C9F89F
:101C90000C3022464FF48041384602F057FC2A4669
:101CA0004FF48041384602F051FC2046FFF702FC19
:101CB0002A464FF48071304602F048FC22464FF429
:101CC0008071304602F042FC22464FF400514046FB
:101CD00002F03CFC2A464FF40041404602F036FC3C
:101CE0000A23C9F80C3022464FF48041384602F0EE
:101CF0002DFC2A464FF48041384602F027FC20464E
:101D0000FFF7D8FB2A464FF48071304602F01EFCE4
:101D100022464FF48071304602F018FC22464FF400
:101D20000051404602F012FC2A464FF40041404662
:101D300002F00CFC0C23C9F80C3022464FF4804111
:101D4000384602F003FC2A464FF48041384607E04B
:101D500000100140000C0140001401400018014037
:101D600002F0F4FB2846FFF7A5FB2A464FF48071EA
:101D7000304602F0EBFB22464FF48071304602F011
:101D8000E5FB22464FF40051404602F0DFFB2A46B5
:101D90004FF40041404602F0D9FB0D23C9F80C3046
:101DA00022464FF48041384602F0D0FB2A464FF4D9
:101DB0008041384602F0CAFB2046FFF77BFB2A46EB
:101DC0004FF48071304602F0C1FB22464FF480711F
:101DD000304602F0BBFB22464FF40051404602F071
:101DE000B5FB2A464FF40041404602F0AFFB0F23FB
:101DF000C9F80C3022464FF48041384602F0A6FB69
:101E00002A464FF48041384602F0A0FB2046FFF7F7
:101E100051FB2A464FF48071304602F097FB224670
:101E20004FF48071304602F091FB22464FF400518E
:101E3000404602F08BFB2A464FF40041404602F038
:101E400085FB4FF0100BC9F80CB022464FF48041CF
:101E5000384602F07BFB2A464FF48041384602F0B8
:101E600075FB2046FFF726FB2A464FF4807130466B
:101E700002F06CFB22464FF48071304602F066FBA4
:101E800022464FF40051404602F060FB2A464FF4D0
:101E90000041404602F05AFB4FF0110AC9F80CA06D
:101EA00022464FF48041384602F050FB2A464FF458
:101EB0008041384602F04AFB0720FFF7FBFA2A462A
:101EC0004FF48071304602F041FB22464FF480719E
:101ED000304602F03BFB22464FF40051404602F0F0
:101EE00035FB2A464FF40041404602F02FFB1223F7
:101EF000C9F80C3022464FF48041384602F026FBE8
:101F00002A464FF48041384602F020FB2046FFF776
:101F1000D1FA2A464FF48071304602F017FB224670
:101F20004FF48071304602F011FB22464FF400510D
:101F3000404602F00BFB2A464FF40041404602F0B7
:101F400005FB1323C9F80C3022464FF48041384674
:101F500002F0FCFA2A464FF48041384602F0F6FAC5
:101F60002046FFF7A7FA2A464FF48071304602F068
:101F7000EDFA0520FFF758FA0520FFF755FA22463B
:101F80004FF48071304602F0E1FA22464FF40051DE
:101F9000404602F0DBFA2A464FF40041404602F088
:101FA000D5FAC9F80CB022464FF48041384602F009
:101FB000CDFA2A464FF48041384602F0C7FA41F282
:101FC0009050FFF777FA2A464FF48071304602F0BE
:101FD000BDFA22464FF48071304602F0B7FA22462D
:101FE0004FF40051404602F0B1FA2A464FF4004146
:101FF000404602F0ABFAC9F80CA022464FF48041EB
:10200000384602F0A3FA2A464FF48041384602F0DF
:102010009DFA40F22720FFF74DFA2A464FF48071CF
:10202000304602F093FA0520FFF7FEF90520FFF78E
:10203000FBF922464FF48071304602F087FA2246BF
:102040004FF40051404602F081FA2A464FF4004115
:10205000404602F07BFA1223C9F80C3022464FF4B6
:102060008041384602F072FA2A464FF480413846E1
:1020700002F06CFA9C20FFF71DFA2A464FF480719B
:10208000304602F063FA0520FFF7CEF90520FFF78E
:10209000CBF922464FF48071304602F057FA2246BF
:1020A0004FF40051404602F051FA2A464FF40041E5
:1020B000404602F04BFA1323C9F80C3022464FF485
:1020C0008041384602F042FA2A464FF480413846B1
:1020D00002F03CFA4FF4C850FFF7ECF92A464FF4EF
:1020E0008071304602F032FA22464FF48071304659
:1020F00002F02CFA22464FF40051404602F026FA34
:102100002A464FF40041404602F020FA2923C9F83C
:102110000C3022464FF48041384602F017FA2A4626
:102120004FF48041384602F011FA2320FFF7C2F93C
:102130002A464FF48071304602F008FA22464FF4E6
:102140008071304602F002FA22464FF400514046B8
:1021500002F0FCF92A464FF40041404602F0F6F93D
:102160002B23C9F80C3022464FF48041384602F048
:10217000EDF92A464FF48041384602F0E7F90E2087
:10218000FFF798F92A464FF48071304602F0DEF9E5
:102190000520FFF749F90520FFF746F922464FF4DD
:1021A0008071304602F0D2F922464FF40051404689
:1021B00002F0CCF92A464FF40041404602F0C6F93D
:1021C0002023C9F80C3022464FF48041384602F0F3
:1021D000BDF92A464FF48041384602F0B7F920464F
:1021E000FFF768F92A464FF48071304602F0AEF9E5
:1021F00022464FF48071304602F0A8F922464FF48F
:102200000051404602F0A2F92A464FF400414046F0
:1022100002F09CF92123C9F80C3022464FF480418A
:10222000384602F093F92A464FF48041384602F0CE
:102230008DF92046FFF73EF92A464FF4807130466B
:1022400002F084F90520FFF7EFF80520FFF7ECF81E
:1022500022464FF48071304602F078F922464FF45E
:102260000051404602F072F92A464FF400414046C0
:1022700002F06CF93023C9F80C3022464FF480414B
:10228000384602F063F92A464FF48041384602F09E
:102290005DF90720FFF70EF92A464FF480713046AA
:1022A00002F054F922464FF48071304602F04EF9A4
:1022B00022464FF40051404602F048F92A464FF4B6
:1022C0000041404602F042F93123C9F80C30224661
:1022D0004FF48041384602F039F92A464FF48041E4
:1022E000384602F033F940F20770FFF7E3F82A4668
:1022F0004FF48071304602F029F922464FF4807184
:10230000304602F023F922464FF40051404602F0D5
:102310001DF901224FF40041404602F017F9322323
:10232000C9F80C30FD4C00224FF48041204602F0E9
:102330000DF901224FF48041204602F007F90620F2
:10234000FFF7B8F801224FF48071304602F0FEF832
:1023500000224FF48071304602F0F8F800224FF46A
:102360000051404602F0F2F801224FF4004140468D
:1023700002F0ECF83523C9F80C3000224FF480410C
:10238000204602F0E3F801224FF48041204602F09B
:10239000DDF840F20470FFF78DF801224FF48071F0
:1023A000304602F0D3F800224FF48071304602F03C
:1023B000CDF800224FF40051404602F0C7F8012248
:1023C0004FF40041404602F0C1F83623C9F80C3002
:1023D00000224FF48041204602F0B8F801224FF469
:1023E0008041204602F0B2F841F60470FFF762F82F
:1023F00001224FF48071304602F0A8F800224FF419
:102400008071304602F0A2F800224FF4005140469D
:1024100002F09CF801224FF40041404602F096F889
:102420003723C9F80C3000224FF48041204602F0D7
:102430008DF801224FF48041204602F087F80420F5
:10244000FFF738F801224FF48071304602F07EF831
:1024500000224FF48071304602F078F800224FF4E9
:102460000051404602F072F801224FF4004140460C
:1024700002F06CF83823C9F80C3000224FF4804188
:10248000204602F063F801224FF48041204602F01A
:102490005DF80020FFF70EF801224FF480713046FE
:1024A00002F054F800224FF48071304602F04EF8EA
:1024B00000224FF40051404602F048F801224FF448
:1024C0000041404602F042F83923C9F80C3000229E
:1024D0004FF48041204602F039F801224FF4804148
:1024E000204602F033F840F20670FEF7E3FF0122C7
:1024F0004FF48071304602F029F800224FF48071C9
:10250000304602F023F800224FF40051404602F01A
:102510001DF801224FF40041404602F017F83C2319
:10252000C9F80C3000224FF48041204602F00EF82A
:1025300001224FF48041204602F008F840F2017079
:10254000FEF7B8FF01224FF48071304601F0FEFF24
:1025500000224FF48071304601F0F8FF00224FF462
:102560000051404601F0F2FF01224FF40041404685
:1025700001F0ECFF3D23C9F80C3000224FF48041FC
:10258000204601F0E3FF01224FF48041204601F094
:10259000DDFF0F20FEF78EFF01224FF480713046E1
:1025A00001F0D4FF0520FEF73FFF0520FEF73CFFBA
:1025B00000224FF48071304601F0C8FF00224FF432
:1025C0000051404601F0C2FF01224FF40041404655
:1025D00001F0BCFF5023C9F80C3000224FF48041B9
:1025E000204601F0B3FF01224FF48041204601F064
:1025F000ADFF0020FEF75EFF01224FF480713046F0
:1026000001F0A4FF00224FF48071304601F09EFFDC
:1026100000224FF40051404601F098FF01224FF490
:102620000041404601F092FF5123C9F80C300022CE
:102630004FF48041204601F089FF01224FF4804190
:10264000204601F083FFEF20FEF734FF01224FF414
:102650008071304601F07AFF00224FF480713046DD
:1026600001F074FF00224FF40051404601F06EFF6C
:1026700001224FF40041404601F068FF5223C9F89F
:102680000C3000224FF48041204601F05FFF012210
:102690004FF48041204601F059FF0020FEF70AFF69
:1026A00001224FF48071304601F050FF00224FF4B8
:1026B0008071304601F04AFF00224FF4005140463D
:1026C00001F044FF01224FF40041404601F03EFF7B
:1026D0005323C9F80C3000224FF48041204601F00A
:1026E00035FF01224FF48041204601F02FFF40F2D8
:1026F0003F10FEF7DFFE01224FF48071304601F0FB
:1027000025FF00224FF48071304601F01FFF0022A8
:102710004FF40051404601F019FF01E0000C014068
:1027200001224FF40041404601F010FF6023C9F838
:102730000C3000224FF48041204601F007FF0122B7
:102740004FF48041204601F001FF4FF42740FEF78F
:10275000B1FE01224FF48071304601F0F7FE0022F5
:102760004FF48071304601F0F1FE00224FF4005129
:10277000404601F0EBFE01224FF40041404601F0DB
:10278000E5FE6123C9F80C3000224FF48041204659
:1027900001F0DCFE01224FF48041204601F0D6FE1C
:1027A0000120FEF787FE01224FF48071304601F0D0
:1027B000CDFE00224FF48071304601F0C7FE0022AA
:1027C0004FF40051404601F0C1FE01224FF4004198
:1027D000404601F0BBFE6A23C9F80C3000224FF4DA
:1027E0008041204601F0B2FE01224FF48041204694
:1027F00001F0ACFE0020FEF75DFE01224FF4807177
:10280000304601F0A3FE00224FF48071304601F003
:102810009DFE00224FF40051404601F097FE012238
:102820004FF40041404601F091FE8023C9F80C307E
:1028300000224FF48041204601F088FE01224FF42F
:102840008041204601F082FE0020FEF733FE012287
:102850004FF48071304601F079FE00224FF4807110
:10286000304601F073FE00224FF40051404601F063
:102870006DFE01224FF40041404601F067FE8123C6
:10288000C9F80C3000224FF48041204601F05EFE72
:1028900001224FF48041204601F058FE0020FEF74F
:1028A00009FE01224FF48071304601F04FFE0022F4
:1028B0004FF48071304601F049FE00224FF4005180
:1028C000404601F043FE01224FF40041404601F032
:1028D0003DFE8223C9F80C3000224FF4804120468F
:1028E00001F034FE01224FF48041204601F02EFE1B
:1028F0000020FEF7DFFD01224FF48071304601F029
:1029000025FE00224FF48071304601F01FFE0022A8
:102910004FF40051404601F019FE01224FF40041EE
:10292000404601F013FE8323C9F80C3000224FF417
:102930008041204601F00AFE01224FF480412046EA
:1029400001F004FE0020FEF7B5FD01224FF4807176
:10295000304601F0FBFD00224FF48071304601F05B
:10296000F5FD00224FF40051404601F0EFFD012239
:102970004FF40041404601F0E9FD8423C9F80C30D2
:1029800000224FF48041204601F0E0FD01224FF487
:102990008041204601F0DAFD0020FEF78BFD012288
:1029A0004FF48071304601F0D1FD00224FF4807168
:1029B000304601F0CBFD00224FF40051404601F0BB
:1029C000C5FD01224FF40041404601F0BFFD8523C3
:1029D000C9F80C3000224FF48041204601F0B6FDCA
:1029E00001224FF48041204601F0B0FD0020FEF7A7
:1029F00061FD01224FF48071304601F0A7FD0022F5
:102A00004FF48071304601F0A1FD00224FF40051D7
:102A1000404601F09BFD01224FF40041404601F089
:102A200095FD9023C9F80C3000224FF480412046D8
:102A300001F08CFD01224FF48041204601F086FD1B
:102A40005846FEF737FD01224FF48071304601F001
:102A50007DFD00224FF48071304601F077FD0022A9
:102A60004FF40051404601F071FD01224FF4004146
:102A7000404601F06BFD9223C9F80C3000224FF460
:102A80008041204601F062FD01224FF48041204642
:102A900001F05CFD4FF4C060FEF70CFD01224FF425
:102AA0008071304601F052FD4D4B1A8849F22833AF
:102AB0009A4200F082804B4C00224FF480712046F5
:102AC00001F044FD484E00224FF40051304601F021
:102AD0003DFD01224FF40041304601F037FD434FE8
:102AE0000723FB60424D00224FF48041284601F04D
:102AF0002DFD01224FF48041284601F027FD40F2D0
:102B00003310FEF7D7FC01224FF48071204601F00C
:102B10001DFD00224FF48071204601F017FD0022B8
:102B20004FF40051304601F011FD01224FF40041F5
:102B3000304601F00BFD2023FB6000224FF4804162
:102B4000284601F003FD01224FF48041284601F0A0
:102B5000FDFC0020FEF7AEFC01224FF48071204600
:102B600001F0F4FC00224FF48071204601F0EEFCED
:102B700000224FF40051304601F0E8FC01224FF4EE
:102B80000041304601F0E2FC2123FB6000224FF4BB
:102B90008041284601F0DAFC01224FF480412846AA
:102BA00001F0D4FC0020FEF785FC01224FF4807177
:102BB000204601F0CBFCBDE8F88F03219320FEF7FF
:102BC000CFFC4FF488719520FEF7CAFC00219720B6
:102BD000FEF7C6FC00219820FEF7C2FC6BE700BFA1
:102BE0000C040020001001400014014000180140B6
:102BF000000C0140FD4E00224FF48071304601F080
:102C0000A5FCDFF8F08300224FF40051404601F0AC
:102C10009DFC01224FF40041404601F097FCDFF893
:102C2000D8930024C9F80C40F14F22464FF480415C
:102C3000384601F08BFC01224FF48041384601F008
:102C400085FC0120FEF736FC01224FF480713046EE
:102C500001F07CFC22464FF48071304601F076FC96
:102C600022464FF40051404601F070FC01224FF41F
:102C70000041404601F06AFC0125C9F80C5022468B
:102C80004FF48041384601F061FC2A464FF4804100
:102C9000384601F05BFC4FF48070FEF70BFC2A46CF
:102CA0004FF48071304601F051FC22464FF48071A0
:102CB000304601F04BFC22464FF40051404601F0F3
:102CC00045FC2A464FF40041404601F03FFC0223F8
:102CD000C9F80C3022464FF48041384601F036FCEA
:102CE0002A464FF48041384601F030FC4FF4E06052
:102CF000FEF7E0FB2A464FF48071304601F026FCD7
:102D000022464FF48071304601F020FC22464FF4F9
:102D10000051404601F01AFC2A464FF4004140465B
:102D200001F014FC0323C9F80C3022464FF4804113
:102D3000384601F00BFC2A464FF48041384601F03A
:102D400005FC41F21800FEF7B5FB2A464FF48071EE
:102D5000304601F0FBFB0520FEF766FB22464FF4F0
:102D60008071304601F0F2FB22464FF4005140469C
:102D700001F0ECFB2A464FF40041404601F0E6FB2F
:102D80000423C9F80C3022464FF48041384601F044
:102D9000DDFB2A464FF48041384601F0D7FB204640
:102DA000FEF788FB2A464FF48071304601F0CEFBD7
:102DB00040F202210820FEF7D3FB21460920FEF74E
:102DC000CFFB21460A20FEF7CBFB22464FF4807151
:102DD000304601F0BBFB22464FF40051404601F063
:102DE000B5FB2A464FF40041404601F0AFFB0C23EF
:102DF000C9F80C3022464FF48041384601F0A6FB5A
:102E00002A464FF48041384601F0A0FB2846FEF7E1
:102E100051FB2A464FF48071304601F097FB214662
:102E20000D20FEF79DFB21460F20FEF799FB0520A4
:102E3000FEF7FAFA40F201110720FEF791FB052098
:102E4000FEF7F2FA4FF486511020FEF789FB0721B6
:102E50001120FEF785FB4FF488711220FEF780FBEE
:102E60004FF430611320FEF77BFB22464FF4807154
:102E7000304601F06BFB22464FF40051404601F012
:102E800065FB2A464FF40041404601F05FFB2923D1
:102E9000C9F80C3022464FF48041384601F056FB09
:102EA0002A464FF48041384601F050FB2046FEF799
:102EB00001FB2A464FF48071304601F047FB224661
:102EC0004FF48071304601F041FB22464FF400512F
:102ED000404601F03BFB2A464FF40041404601F0DA
:102EE00035FB2B23C9F80C3022464FF4804138467D
:102EF00001F02CFB2A464FF48041384601F026FBB6
:102F000044F21000FEF7D6FA2A464FF4807130469C
:102F100001F01CFB21465020FEF722FBEF2151203F
:102F2000FEF71EFB21465220FEF71AFB22464FF405
:102F30008071304601F00AFB22464FF400514046B2
:102F400001F004FB2A464FF40041404601F0FEFA2E
:102F50005323C9F80C3022464FF48041384601F023
:102F6000F5FA2A464FF48041384601F0EFFA40F274
:102F70003F10FEF79FFA2A464FF48071304601F069
:102F8000E5FA22464FF48071304601F0DFFA22461E
:102F90004FF40051404601F0D9FA2A464FF400415F
:102FA000404601F0D3FA6023C9F80C3022464FF4B2
:102FB0008041384601F0CAFA2A464FF4804138462B
:102FC00001F0C4FA4FF41C50FEF774FA2A464FF48D
:102FD0008071304601F0BAFA29466120FEF7C0FA46
:102FE00021466A20FEF7BCFA08E000BF001001404D
:102FF000000C0140001401400018014022464FF42B
:103000008071304601F0A2FA22464FF4005140464A
:1030100001F09CFA2A464FF40041404601F096FA2E
:103020008023C9F80C3022464FF48041384601F025
:103030008DFA2A464FF48041384601F087FA20463F
:10304000FEF738FA2A464FF48071304601F07EFAD6
:1030500022464FF48071304601F078FA22464FF450
:103060000051404601F072FA2A464FF400414046B2
:1030700001F06CFA8123C9F80C3022464FF48041EC
:10308000384601F063FA2A464FF48041384601F091
:103090005DFA2046FEF70EFA2A464FF4807130465C
:1030A00001F054FA21468220FEF75AFA2146832085
:1030B000FEF756FA21468420FEF752FA2146852073
:1030C000FEF74EFA10219020FEF74AFA22464FF4FE
:1030D0008071304601F03AFA22464FF400514046E2
:1030E00001F034FA2A464FF40041404601F02EFA2E
:1030F0009223C9F80C3022464FF48041384601F043
:1031000025FA2A464FF48041384601F01FFA20463E
:10311000FEF7D0F92A464FF48071304601F016FAD6
:1031200029469320FEF71CFA22464FF48071304660
:1031300001F00CFA22464FF40051404601F006FA25
:103140002A464FF40041404601F000FA9523C9F8A1
:103150000C3022464FF48041384601F0F7F92A46F8
:103160004FF48041384601F0F1F94FF48870FEF7D2
:10317000A1F92A464FF48071304601F0E7F9214663
:103180009720FEF7EDF922464FF48071304601F0AA
:10319000DDF922464FF40051404601F0D7F92A46A6
:1031A0004FF40041404601F0D1F99823C9F80C30A2
:1031B00022464FF48041384601F0C8F92A464FF4C0
:1031C0008041384601F0C2F92046FEF773F92A46DD
:1031D0004FF48071304601F0B9F90520FEF724F96B
:1031E00040F273110720FEF7BBF90520FEF71CF92A
:1031F000E1E441F21401E720FEF7B2F94FF48071E7
:103200000120FEF7ADF94FF400710220FEF7A8F996
:1032100041F230010320FEF7A3F940F20221082019
:10322000FEF79EF900210920FEF79AF900210A20F5
:10323000FEF796F900210C20FEF792F900210D20EF
:10324000FEF78EF900210F20FEF78AF900211020E9
:10325000FEF786F907211120FEF782F900211220DE
:10326000FEF77EF900211320FEF77AF90520FEF71C
:10327000DBF841F290611020FEF772F940F227214D
:103280001120FEF76DF90220FEF7CEF80C21122076
:10329000FEF766F90220FEF7C7F84FF4006113202D
:1032A000FEF75EF911212920FEF75AF90B212B2098
:1032B000FEF756F90220FEF7B7F800212020FEF7AE
:1032C0004FF900212120FEF74BF900213020FEF7B5
:1032D00047F94FF483713120FEF742F90021322083
:1032E000FEF73EF94FF401713520FEF739F941F24E
:1032F0000A613620FEF734F940F207713720FEF7F5
:103300002FF94FF483713820FEF72AF940F2077144
:103310003920FEF725F940F202413C20FEF720F962
:1033200040F60F413D20FEF71BF900215020FEF72B
:1033300017F9EF215120FEF713F900215220FEF773
:103340000FF940F23F115320FEF70AF94FF41C51D8
:103350006020FEF705F901216120FEF701F9002147
:103360006A20FEF7FDF800218020FEF7F9F8002121
:103370008120FEF7F5F800218220FEF7F1F8002108
:103380008320FEF7EDF800218420FEF7E9F8002104
:103390008520FEF7E5F810219020FEF7E1F84FF4C4
:1033A000C0619220FEF7DCF821210720FEF7D8F853
:1033B0000220FEF739F861210720FEF7D1F802203C
:1033C000FEF732F840F233110720FEF7C9F8022069
:1033D000FEF72AF8FFF7EFBB06212820FEF7C0F81A
:1033E00001210020FEF7BCF800211020FEF7B8F8FC
:1033F00047F2EF210120FEF7B3F84FF4C06102203D
:10340000FEF7AEF846F638210320FEF7A9F846F697
:1034100074011120FEF7A4F800210F20FEF7A0F898
:1034200045F208310B20FEF79BF803210C20FEF734
:1034300097F80A210D20FEF793F84FF438510E202B
:10344000FEF78EF8BE211E20FEF78AF84FF40041E9
:103450002520FEF785F84FF4F0412620FEF780F88E
:1034600078212720FEF77CF800214E20FEF778F81F
:1034700000214F20FEF774F840F6D9011220FEF724
:103480006FF800213020FEF76BF84FF48271312085
:10349000FEF766F84FF480713220FEF761F840F2D3
:1034A00005313320FEF75CF840F205513420FEF779
:1034B00057F840F205313520FEF752F840F2077117
:1034C0003620FEF74DF84FF440713720FEF748F8EC
:1034D0004FF490513A20FEF743F84FF400613B203F
:1034E000FEF73EF833210720FEF73AF8FFF763BBFB
:1034F00000210720FEF734F80220FDF795FF4FF476
:103500008E711220FEF72CF80121A420FEF728F876
:103510000F210820FEF724F808210A20FEF720F8E2
:1035200008210D20FEF71CF840F207713020FEF74D
:1035300017F807213120FEF713F840F2036132201B
:10354000FEF70EF84FF4E0613320FEF709F840F281
:1035500002213420FEF704F802213520FEF700F89E
:1035600041F60F713620FDF7FBFF40F2077137205F
:10357000FDF7F6FF00213820FDF7F2FF002139208A
:10358000FDF7EEFF40F207713A20FDF7E9FF002159
:103590003B20FDF7E5FF07213C20FDF7E1FF00217F
:1035A0003D20FDF7DDFF0220FDF73EFF0121072052
:1035B000FDF7D6FF01211720FDF7D2FF0220FDF70E
:1035C00033FF4FF4BD511020FDF7CAFF40F2172121
:1035D0001120FDF7C5FF4FF48F711220FDF7C0FFDA
:1035E0004FF470611320FDF7BBFF00212A20FDF787
:1035F000B7FF0A212920FDF7B3FF4FF49F71122076
:10360000FDF7AEFF00215020FDF7AAFFEF2151206A
:10361000FDF7A6FF00215220FDF7A2FF40F23F1167
:103620005320FDF79DFF4FF41C516020FDF798FFDC
:1036300001216120FDF794FF00216A20FDF790FF32
:1036400000218020FDF78CFF00218120FDF788FFFD
:1036500000218220FDF784FF00218320FDF780FFF9
:1036600000218420FDF77CFF00218520FDF778FFF5
:1036700013219020FDF774FF4FF440719220FDF765
:103680006FFF05219320FDF76BFF00219520FDF7CB
:1036900067FF00219720FDF763FF00219820FDF7C9
:1036A0005FFF4FF480710120FDF75AFF4FF4E06196
:1036B0000220FDF755FF41F230010320FDF750FFD6
:1036C00000210420FDF74CFF00210C20FDF748FFEE
:1036D00000210F20FDF744FF00212020FDF740FFCF
:1036E00000212120FDF73CFF21210720FDF738FFB5
:1036F0000220FDF799FE61210720FDF731FF02202E
:10370000FDF792FE40F273110720FDF729FF02201A
:10371000FDF78AFEFFF74FBA08B5074A136843F072
:1037200010031360032000F021FF002004F0DCFDF3
:10373000FDF774FC002008BD00200240034A116818
:10374000034B1B780B441360704700BF28D1002047
:1037500050000020014B1868704700BF28D100209E
:1037600038B50446FFF7F6FF0546B4F1FF3F02D037
:10377000044B1B781C44FFF7EDFF401BA042FAD31B
:1037800038BD00BF5000002082B0084B1B68084ABB
:10379000A2FB03235B0A00FB03F3019300BF019B21
:1037A0005A1E0192002BF9D102B070475800002038
:1037B000D34D6210002800F0618270B582B00446DB
:1037C000036813F0010F2CD0AA4B5B6803F00C03C5
:1037D000042B1DD0A74B5B6803F00C03082B12D001
:1037E000A368B3F5803F41D0002B55D103F180434E
:1037F00003F504331A6822F480321A601A6822F43E
:1038000080221A6037E09B4B5B6813F4803FE7D05F
:10381000984B1B6813F4003F03D0A368002B00F003
:103820002F82236813F0020F75D0924B5B6813F060
:103830000C0F5FD08F4B5B6803F00C03082B54D048
:103840006369002B00F089808B4B01221A60FFF71F
:1038500081FF0546874B1B6813F0020F74D1FFF7F9
:1038600079FF401B0228F5D9032010E2814A136832
:1038700043F480331360A36843B3FFF76BFF05463F
:103880007C4B1B6813F4003FCBD1FFF763FF401B59
:103890006428F5D90320FAE1B3F5A02F09D0754BC0
:1038A0001A6822F480321A601A6822F480221A60A0
:1038B000E1E703F18043A3F53C331A6842F4802228
:1038C0001A601A6842F480321A60D4E7FFF742FFA8
:1038D0000546684B1B6813F4003FA2D0FFF73AFF80
:1038E000401B6428F5D90320D1E1624B5B6813F4D7
:1038F000803FA5D15F4B1B6813F0020F03D06369B3
:10390000012B40F0BF815B4A136823F0F803A169E3
:1039100043EAC1031360236813F0080F32D0E36950
:10392000002B45D0554B01221A60FFF713FF0546C7
:10393000504B5B6A13F0020F21D1FFF70BFF401BC6
:103940000228F5D90320A2E14A4A136823F0F803BC
:10395000A16943EAC1031360DDE7474B00221A6007
:10396000FFF7F8FE0546434B1B6813F0020FD2D059
:10397000FFF7F0FE401B0228F5D9032087E1012064
:10398000FFF702FF236813F0040F00F09780394B14
:10399000DB6913F0805F1DD1364BDA6942F080524B
:1039A000DA61DB6903F080530193019B012512E08A
:1039B000324B00221A60FFF7CDFE05462D4B5B6AA5
:1039C00013F0020FDED0FFF7C5FE401B0228F5D929
:1039D00003205CE100252A4B1B6813F4807F11D083
:1039E0002369012B22D0002B38D103F1804303F54A
:1039F00004331A6A22F001021A621A6A22F00402DF
:103A00001A6218E01E4A136843F480731360FFF7CC
:103A1000A1FE06461A4B1B6813F4807FE0D1FFF726
:103A200099FE801B6428F5D9032030E1114A136AFE
:103A300043F001031362236973B3FFF78BFE06465D
:103A40000C4B1B6A13F0020F37D1FFF783FE801B6C
:103A500041F288339842F3D9032018E1052B11D0A5
:103A6000044B1A6A22F001021A621A6A22F0040256
:103A70001A62E0E700100240000042428004424225
:103A800000700040864B1A6A42F004021A621A6AF9
:103A900042F001021A62CEE7FFF75CFE0646804B59
:103AA0001B6A13F0020F08D0FFF754FE801B41F28F
:103AB00088339842F3D90320E9E075BBE36A002B11
:103AC0006ED0774A526812F4803F05D0744A52682B
:103AD00002F00C02082A26D0022B4AD1704B1B6838
:103AE00013F0805F07D06E4BDB6A03F0F003626B6C
:103AF000934240F0C9806B4B00221A60FFF72AFE08
:103B00000546674B1B6813F0006F13D0FFF722FECA
:103B1000401B6428F5D90320B9E0614AD36923F03A
:103B20008053D361CAE75E4AD26A12F4803FD3D091
:103B30000120ACE05A4AD36A23F0F003616B0B43D7
:103B4000D362D36A23F47063216B0B43D362554B6A
:103B500001221A60FFF7FEFD0546514B1B6813F06A
:103B6000006F1DD1FFF7F6FD401B6428F5D9032037
:103B70008DE04B4AD36A23F48033D362494B002251
:103B80001A60FFF7E7FD0546454B1B6813F0006F11
:103B900006D0FFF7DFFD401B6428F5D9032076E04F
:103BA000236A002B72D03E4A526802F00C02082AA7
:103BB00054D0022B11D03C4B00221A60FFF7CAFDF3
:103BC0000446374B1B6813F0007F45D0FFF7C2FD5A
:103BD000001B0228F5D9032059E0334B00221A605C
:103BE000FFF7B8FD05462E4B1B6813F0007F06D08B
:103BF000FFF7B0FD401B0228F5D9032047E0636AB8
:103C0000B3F5803F1AD026494B6823F47413626AD7
:103C1000A06A024313434B60234B01221A60FFF753
:103C200099FD04461E4B1B6813F0007F12D1FFF76D
:103C300091FD001B0228F5D9032028E0184AD36A19
:103C400061680B43D362D36A23F00F03E1680B432F
:103C5000D362D8E700201AE0002018E0012B18D02A
:103C60000F4B5B6803F48031626A914213D103F415
:103C70007013A26A934210D1002008E0012070471F
:103C8000012004E0012002E0012000E0002002B059
:103C900070BD0120FBE70120F9E70120F7E700BF35
:103CA00000100240680042426000424230B587B0D6
:103CB0000D460223039303230593002304934FF43B
:103CC000807302930A4CA36943F00403A361A369C0
:103CD00003F004030193019B02A9064800F026FBB0
:103CE000636823F070632B43636007B030BD00BF8F
:103CF0000010024000080140F0B589B0264B04AC2A
:103D00000FCB07C42380254B6C460FCB84E80F00F4
:103D1000234B5A6802F00C03042B37D0082B37D101
:103D2000C2F3834308A90B4413F8104C12F4803FEC
:103D300028D01B49CB6A03F00F0308AA134413F8D9
:103D4000202CCB6A13F4803F16D0CB6AC3F3031345
:103D50000133CE6AC6F303260236A6FB0467114D73
:103D6000A6FB050105FB0711A3FB0223FCF75AFD87
:103D70000D2C0ED140080CE00A4800FB04F0B0FB0B
:103D8000F2F0F5E7084800FB04F002E0054800E027
:103D9000064809B0F0BD00BF10160108C82301088D
:103DA0000010024040787D0100093D0000127A00B9
:103DB000002800F0A08070B50D460446524B1B68E9
:103DC00003F007038B420BD24F4A136823F007031B
:103DD0000B431360136803F007038B4240F08D80A0
:103DE000236813F0020F17D013F0040F04D0474AD2
:103DF000536843F4E0635360236813F0080F04D062
:103E0000424A536843F460535360404A536823F076
:103E1000F003A1680B435360236813F0010F31D006
:103E20006368012B20D0022B25D0384A126812F08B
:103E3000020F64D035494A6822F0030213434B60F5
:103E4000FFF788FC0646314B5B6803F00C036268A1
:103E5000B3EB820F16D0FFF77DFC801B41F2883355
:103E60009842F0D9032045E0284A126812F4003F36
:103E7000E0D101203EE0254A126812F0007FD9D13E
:103E8000012037E0204B1B6803F00703AB420AD93F
:103E90001D4A136823F007032B431360136803F0D4
:103EA0000703AB422DD1236813F0040F06D0174A45
:103EB000536823F4E063E1680B435360236813F015
:103EC000080F07D0114A536823F46053216943EA6D
:103ED000C1035360FFF710FF0C4B5B68C3F3031380
:103EE0000B4AD35CD8400B4B18600B4B186804F09E
:103EF000FBF9002070BD012070470120FAE7012086
:103F0000F8E70120F6E700BF002002400010024061
:103F1000DC2301085800002054000020014B1868E1
:103F2000704700BF5800002008B5FFF7F7FF044BAB
:103F30005B68C3F30223034AD35CD84008BD00BFCB
:103F400000100240EC23010808B5FFF7E7FF044B1F
:103F50005B68C3F3C223034AD35CD84008BD00BFEB
:103F600000100240EC2301080F2303600B4B5A683A
:103F700002F0030242605A6802F0F00282605A685E
:103F800002F4E062C2605B68DB0803F4E063036193
:103F9000034B1B6803F007030B60704700100240DF
:103FA0000020024070B582B00446036813F0010F90
:103FB00036D06D4BDB6913F0805F40F08C806A4B2C
:103FC000DA6942F08052DA61DB6903F080530193D1
:103FD000019B0125654B1B6813F4807F7DD0624BEC
:103FE0001B6A13F4407311D0626802F440729A4263
:103FF0000CD05D4A136A23F440705D4901260E60BF
:1040000000260E60106213F0010F7BD1564A136A2E
:1040100023F4407361680B431362002D40F08480E9
:10402000236813F0020F06D04F4A536823F440432D
:10403000A1680B435360236813F0040F06D04A4A6B
:10404000D36A23F40033E1680B43D362236813F08F
:10405000080F06D0444AD36A23F4802321690B4316
:10406000D362414BDB6A13F4003F04D13E4BDB6A61
:1040700013F4802F64D03C4B1B6813F0805F58D141
:10408000394B1B6813F0806F06D0374BDB6A03F0A7
:10409000F003A269934261D1334AD36A23F0F0035B
:1040A000A1690B43D362D36A23F4704361690B4364
:1040B000D362304B01221A60FFF74CFB05462A4BB6
:1040C0001B6813F0005F3BD1FFF744FB401B6428E3
:1040D000F5D9032040E000257CE7244A136843F427
:1040E00080731360FFF736FB0646204B1B6813F402
:1040F000807F7FF474AFFFF72DFB801B6428F4D919
:10410000032029E0FFF726FB0646174B1B6A13F036
:10411000020F7FF47BAFFFF71DFB801B41F288335A
:104120009842F2D9032017E0D36923F08053D3617A
:1041300076E70D4BDB6A03F47043626993420FD15B
:10414000236813F0100F0DD0074A536823F480033F
:10415000E1690B435360002002B070BD0120FBE712
:104160000120F9E70020F7E700100240007000404E
:10417000400442427000424230B589B00546644B6B
:1041800004AC0FCB07C42380624B6C460FCB84E892
:104190000F00681E0F2800F2B580DFE800F087A846
:1041A000B34DB3B3B36AB3B3B3B3B3B3B3085A4BFA
:1041B0005A68186810F0807000F0A580C2F383433D
:1041C00008A90B4413F8101C12F4803F26D0524A61
:1041D000D36A03F00F0308A8034413F8204CD36AF2
:1041E00013F4803F14D0D36AC3F303130133D06AAE
:1041F000C0F303200230494AB2FBF3F300FB03F0A3
:10420000B0FBF4F001FB00F00D290AD1400808E0F2
:104210004248B0FBF4F001FB00F0F5E7404800FB3A
:1042200001F03D4B5B6813F4800F6CD140003D4BB7
:10423000A3FB0030400866E0374BDB6A13F4003F15
:1042400014D0354B186810F080505CD01A46DB6AE9
:10425000C3F303130133D06AC0F3033002302F4A93
:10426000B2FBF3F300FB03F040004CE0FFF744FD2A
:1042700049E0294BDB6A13F4802F14D0264B1868D1
:1042800010F080503FD01A46DB6AC3F303130133AA
:10429000D06AC0F303300230204AB2FBF3F300FBD4
:1042A00003F040002FE0FFF727FD2CE01A4B1B6ABC
:1042B00040F202321A40B2F5817F26D003F44073F7
:1042C000B3F5007F04D0B3F5407F09D000201AE099
:1042D000114A526A12F0020FF5D049F6404012E03E
:1042E0000D4B186810F400300DD00F480BE0FFF7AD
:1042F0002BFE094B5B68C3F3813301335B00B0FBDA
:10430000F3F000E0002009B030BD4FF40040FAE7C0
:1043100020160108C82301080010024040787D01E2
:1043200000093D00ABAAAAAAF0FA0200F0B482B0DC
:1043300000252C46A3E07F4FBB4210D007D97E4F0B
:10434000BB420CD007F58037BB4208D013E0A7F57D
:104350008017BB4203D007F57027BB4207D18B689B
:10436000002B58D0012B51D04261082503E0A7F55E
:104370008017BB42F3D0FF2E4FD88446FF2E4FD874
:10438000A200DCF800300F27974023EA070305FA64
:1043900002F21343CCF800304B6813F0805F6DD00D
:1043A000664B9A6942F001029A619B6903F001032E
:1043B0000193019BA208971C614B53F8273004F02E
:1043C0000307BF004FF00F0C0CFA07FC23EA0C0C9C
:1043D0005C4B98422AD003F58063984200F08A80B3
:1043E00003F58063984200F0878003F5806398426C
:1043F0001AD004231BE0CD68BDE7CD680435BAE7C9
:10440000CD680835B7E7CD680C35B4E702610825FB
:10441000B1E70025AFE70425ADE700F1040CADE7F7
:10442000A4F108029200ACE7032300E00023BB40A4
:1044300043EA0C030232424F47F822304B6813F430
:10444000803F5BD0404A1368334313604B6813F4DA
:10445000003F59D03C4A5368334353604B6813F4D0
:10446000801F57D0384A9368334393604B6813F4E6
:10447000001F55D0344AD3681E43D66001340B6800
:1044800033FA04F252D00122A24003EA020632EAD1
:104490000303F3D14B68122B3FF64DAF122B3FF6BF
:1044A0006AAF01A757F823F05F430008F7430008FD
:1044B00001440008134400087743000877430008CC
:1044C00077430008774300087743000877430008E4
:1044D00077430008774300087743000877430008D4
:1044E000774300087743000877430008FB43000840
:1044F0000744000801239AE7022398E7124A136849
:1045000023EA06031360A1E70F4A536823EA060370
:104510005360A3E70C4A936823EA06039360A5E778
:10452000094AD36823EA0606D660A7E702B0F0BCC2
:10453000704700BF00002210000031100010024040
:104540000000014000080140000401400AB101617F
:104550007047090401617047C36801EA030221EA58
:10456000030141EA0241016170470000074AD36834
:1045700023F4E0631B041B0C000200F4E06003431F
:1045800043F0BF6343F40033D360704700ED00E0B5
:1045900030B4174BDB68C3F30223C3F10704042CC8
:1045A00028BF04241D1D062D18D9033B4FF0FF35ED
:1045B00005FA04F421EA0401994005FA03F322EA1A
:1045C0000303194300280BDB0901C9B200F1604065
:1045D00000F5614080F8001330BC70470023E5E728
:1045E00000F00F000901C9B2024B1954F4E700BFF3
:1045F00000ED00E014ED00E0002807DB00F01F02F2
:10460000400901239340024A42F82030704700BF1E
:1046100000E100E0014B01221A60704720000E42C9
:104620007047000090F83D30DBB2012B2BD1022304
:1046300080F83D300268D36843F00103D36003681B
:10464000134A934214D0B3F1804F11D0A2F59432A3
:1046500093420DD002F58062934209D002F5806248
:10466000934205D01A6842F001021A600020704798
:104670009A6802F00702062A07D01A6842F001027F
:104680001A6000207047012070470020704700BF6B
:10469000002C0140704770477047704710B50446C2
:1046A00003681A6912F0020F11D0DA6812F0020FD3
:1046B0000DD06FF002021A610123037703689B6932
:1046C00013F0030F70D0FFF7E6FF00232377236872
:1046D0001A6912F0040F12D0DA6812F0040F0ED02B
:1046E0006FF004021A610223237723689B6913F495
:1046F000407F5FD02046FFF7CEFF0023237723685B
:104700001A6912F0080F12D0DA6812F0080F0ED0F2
:104710006FF008021A61042323772368DB6913F022
:10472000030F4ED02046FFF7B6FF00232377236800
:104730001A6912F0100F12D0DA6812F0100F0ED0B2
:104740006FF010021A61082323772368DB6913F4E2
:10475000407F3DD02046FFF79EFF0023237723684C
:104760001A6912F0010F03D0DA6812F0010F36D186
:1047700023681A6912F0800F03D0DA6812F0800FF4
:1047800034D123681A6912F0400F03D0DA6812F0AE
:10479000400F32D123681A6912F0200F03D0DA6873
:1047A00012F0200F30D110BDFFF774FF2046FFF745
:1047B00073FF8AE72046FFF76DFF2046FFF76CFF87
:1047C0009BE72046FFF766FF2046FFF765FFACE753
:1047D0002046FFF75FFF2046FFF75EFFBDE76FF063
:1047E00001021A612046FCF7F9FBC1E76FF0800275
:1047F0001A61204600F07FF8C3E76FF040021A61AB
:104800002046FFF74AFFC5E76FF020021A612046F5
:1048100000F070F8C7E7000003681F4A90420ED00E
:10482000B0F1804F0BD0A2F59432904207D002F540
:104830008062904203D002F58062904203D123F05F
:1048400070034A681343144A90420ED0B0F1804F6F
:104850000BD0A2F59432904207D002F580629042CC
:1048600003D002F58062904203D123F44073CA68FA
:10487000134323F080034A69134303608B68C362C8
:104880000B688362044B984202D001234361704756
:104890000B690363F9E700BF002C014040B310B57A
:1048A000044690F83D30F3B1022384F83D302146B0
:1048B00051F8040BFFF7B0FF012384F8463084F869
:1048C0003E3084F83F3084F8403084F8413084F83A
:1048D000423084F8433084F8443084F8453084F81A
:1048E0003D30002010BD80F83C30FFF799FEDBE73B
:1048F000012070477047704770470368B3F1A04FBD
:1049000000D0704700B583B003F1704303F5043362
:104910005A6942F480525A615B6903F480530193EF
:10492000019B002206214320FFF732FE4320FFF7C0
:1049300063FE03B05DF804FB08B5D0F8C00202F0D6
:104940006EFB08BD08B5D0F8C00202F081FB08BDBF
:1049500008B5D0F8C00202F08DFB08BD08B5D0F84C
:10496000C00202F0A5FB08BD08B5D0F8C00202F0F5
:104970005FFB08BD08B5D0F8C00202F065FB08BDBA
:1049800090F8C433012B01D00020704710B50446C5
:104990000E48C0F8C042C4F8C8034FF0A0430360FB
:1049A000082383600123C3600023C36100F095F9ED
:1049B00040B9064800F0B1FE0146204602F02CFB4B
:1049C000002010BDFCF713FBF3E700BF2CD1002043
:1049D00008B5D0F8C80300F0A5FE012804D00228CD
:1049E00004D000B1012008BD0120FCE70220FAE755
:1049F00008B5D0F8C80300F08AFE08BD08B5D0F8A5
:104A0000C80300F07DFE08BD08B590F8C433012B43
:104A100004D0C820FEF7A4FE002008BD084603F01D
:104A20009FFCF6E7D0F8C83301EB810003EBC00030
:104A300090F83B0038B101EB810103EBC10181F833
:104A400050200020704701EB810103EBC10181F888
:104A50005120F6E7D0F8C83301EB810203EBC20224
:104A600092F83B2032B101EB810103EBC10191F8D7
:104A70005000704701EB810103EBC10191F8510037
:104A8000704708B5FEF76CFE08BD022805D8DFE8C0
:104A900000F005040200012070470220704708B5AD
:104AA000D0F8C80300F0FFFDFFF7EFFF08BD08B521
:104AB000D0F8C80300F00DFEFFF7E7FF08BD08B50A
:104AC000D0F8C80300F017FEFFF7DFFF08BD10B5F0
:104AD00084B0D0F8C803BDF8204002949DF81C4073
:104AE00001949DF81840009400F09AF8FFF7CDFF6C
:104AF00004B010BD08B5D0F8C80300F0DCF8FFF72B
:104B0000C4FF08BD10B584B0D0F8C8039DF8244098
:104B10000394BDF820400294079C01949DF818402E
:104B2000009400F024F9FFF7B0FF04B010BD0000BE
:104B300004290CD0052902D0022904D07047064B65
:104B400003221A707047044B02221A707047024BFE
:104B500001221A70F2E700BF0E04002008B50122FE
:104B60000B490C4802F066F848B90B49094802F0B5
:104B70009FF838B9074802F0DFF830B908BDFCF7F4
:104B800036FAF2E7FCF733FAF4E7FCF730FAF5E728
:104B9000314B0008F0D300205C000020F8B5066817
:104BA000346A04F00F07C4F34343C4F30A14022B1E
:104BB00000D0F8BD0546002CFBD007EB870300EBC7
:104BC000C303596C0029F4D02246304600F05CFE45
:104BD00007EB870305EBC3035A6C22445A64DA6C73
:104BE0002244DA6406EB4716D6F810250B4B134027
:104BF000002BDED0D6F8003523F0804343F000438D
:104C0000C6F8003507EB870305EBC30393F8502084
:104C100082F0010283F85020CBE700BF0000F81FAC
:104C2000F0B585B004469DF828509DF82C60BDF87D
:104C3000307090F8B80201283BD0012084F8B80207
:104C400001EB810004EBC0004FF0000C80F83DC088
:104C500080F83830A0F8407080F8391080F83F6054
:104C600002F07F0C80F83AC012F0800F18D101EBEF
:104C7000810004EBC0004FF0000C80F83BC001EB5A
:104C8000810004EBC00080F83C500297019600952B
:104C9000206800F0D5FE002384F8B83205B0F0BDDE
:104CA00001EB810004EBC0004FF0010C80F83BC029
:104CB000E5E70220F2E790F8B832012B0BD010B5EF
:104CC0000446012380F8B832006800F0C0FF0020DD
:104CD00084F8B80210BD02207047002845D0F0B516
:104CE0008BB00646046890F8B932002B38D0032305
:104CF00086F8B932E36B13F4807F01D1002333616E
:104D0000306800F06BFD344654F810CB6D460FCC84
:104D10000FC50FCC0FC594E8030085E80300371DCD
:104D200097E80E00604600F021FD0121306800F098
:104D30005BFD344654F810CB6D460FCC0FC50FCC3D
:104D40000FC594E8030085E8030097E80E0060466D
:104D500000F014FE012386F8B93200200BB0F0BD3C
:104D600080F8B832FFF7C9FDC1E701207047F8B5F8
:104D70009DF81850BDF8206001EB810400EBC404DD
:104D800084F83B2084F83F308DB901EB810400EBBF
:104D9000C404032784F842709DF8247084F83D70A1
:104DA000032B00F29480DFE803F00A8B2F5D01EB08
:104DB000810400EBC404022784F84270F0E7012D5F
:104DC00040F08580002A40F0828036B901EB8103F3
:104DD00000EBC303012283F8512001EB810300EBB8
:104DE000C30393F851303BB901EB810300EBC303DC
:104DF000002283F842206AE001EB810300EBC30349
:104E0000022283F8422062E0AAB901EB810300EBA1
:104E1000C30393F8513033B901EB810300EBC303B3
:104E200083F8422053E001EB810300EBC30302222D
:104E300083F842204BE001EB810300EBC30393F8BE
:104E400050303BB901EB810300EBC303002283F830
:104E500042203CE001EB810300EBC303022283F814
:104E6000422034E0AAB901EB810300EBC30393F8BD
:104E7000513033B901EB810300EBC30383F84220C7
:104E800025E001EB810300EBC303022283F84220FB
:104E90001DE001EB810300EBC30393F850303BB9F5
:104EA00001EB810300EBC303002283F842200EE0F4
:104EB00001EB810300EBC303022283F8422006E0EA
:104EC00001EB810300EBC303002283F8422001EBD6
:104ED000810300EBC303079A5A649E64002283F89F
:104EE0005C20DA6483F8391083F85D2001EB8101DE
:104EF000C90038310144006800F01CFEF8BD30B52F
:104F000083B004460568D5F840340193D5F84034A1
:104F10000093009B23F02E030093019B13F0020FDC
:104F200007D0019B13F0010F25D1009B43F0020332
:104F30000093019B13F0080F10D0009B43F008036F
:104F40000093019B13F0040F2DD0A369022B15D001
:104F5000E368012B22D02046FFF706FD019B13F0EA
:104F6000200F03D0009B43F020030093009BC5F863
:104F7000403403B030BDFFF7E5FCD6E7019B03F4F6
:104F8000C023B3F5802F04D00121206800F094FCE9
:104F9000E1E70221206800F08FFCDCE74EF660229A
:104FA000C5F80424D7E72046FFF7E4FCD6E7F8B5B8
:104FB00006460D46076807EB411707F5A064A3688E
:104FC00013F0040F33D00423A360E36843F002031B
:104FD000E360A36813F4007F75D1A36813F0010F99
:104FE00000F0A48005EB850306EBC303012283F8E0
:104FF0005D2000219965A26093F83F30002B6ED0B0
:10500000022B6CD0032B7FD0012B72D105EB8503D3
:1050100006EBC303012283F85C2093F85010514043
:1050200083F8501029463046FFF798FC61E0A368EA
:1050300013F4807F06D1A36813F0200F14D020232F
:10504000A360C6E74FF48073A36001EB810300EB1C
:10505000C303072283F85D20E36843F00203E360A3
:10506000006800F0F4FDB4E7A36813F0080F17D14F
:10507000A36813F4806FACD0E36843F00203E360ED
:10508000006800F0E4FD1023A36005EB850306EB48
:10509000C303082283F85D204FF48063A36098E780
:1050A000E36843F00203E36001EB810300EBC30319
:1050B000052283F85D201023A3600823A360006805
:1050C00000F0C5FD85E7E36843F00203E36029468D
:1050D000306800F0BCFD4FF40073A36013E0E36898
:1050E00043F00203E3602946306800F0B0FD10236E
:1050F000A36005EB850306EBC30393F8502082F011
:10510000010283F85020F8BDD7F8003543F0005372
:10511000C7F8003505EB850306EBC303012283F8CE
:105120005C2029463046FFF719FCE2E7A36813F03C
:10513000020F6CD0E36823F00203E36005EB850304
:1051400006EBC30393F85D30012B14D0052B26D05A
:10515000062B2CD0082B2AD0032B48D0072B11D19B
:1051600005EB850306EBC3039A6D01329A650422B1
:1051700083F85C2006E005EB850306EBC303012200
:1051800083F85C200223A36005EB850306EBC303D1
:1051900093F85C2029463046FFF7E0FBB3E705EBC8
:1051A000850306EBC303052283F85C20EAE705EBE1
:1051B000850206EBC202936D01339365032B0ED972
:1051C000134600229A65042283F85C20D7F8003544
:1051D00023F0804343F00043C7F80035D2E705EBE6
:1051E000850306EBC303022283F85C20EEE705EBA0
:1051F000850306EBC303022283F85C20D7F8003551
:1052000023F0804343F00043C7F80035BAE7A368B2
:1052100013F0800F27D1A36813F0100F3FF473AF82
:1052200005EB850306EBC30393F83F30032B33D024
:105230000BB1022B14D105EB850306EBC30300224F
:105240009A6505EB850306EBC303032283F85D2013
:10525000E36843F00203E3602946306800F0F7FC9E
:105260001023A3604FE7E36843F00203E36005EB1C
:10527000850306EBC3039A6D01329A6505EB85033E
:1052800006EBC303062283F85D202946306800F050
:10529000DEFC8023A36036E705EB850306EBC30342
:1052A00000229A65E36843F00203E3602946306810
:1052B00000F0CDFCD4E7F8B5036803EB411303F528
:1052C000A065AA6812F0040F06D00423AB60EB6857
:1052D00043F00203EB60F8BD06460C46AA6812F0E4
:1052E000200F1ED02023AB6001EB810300EBC30332
:1052F00093F83D30012BEED101EB810300EBC303AA
:10530000002283F83D2001EB810300EBC30302225E
:1053100083F85C20EB681343EB60006800F097FCB7
:10532000D9E7AA6812F0400F52D1AA6812F4007FA0
:1053300068D1AA6812F0010F6FD1AA6812F0080FA5
:1053400040F08180AA6812F0100F40F08D80AA68AA
:1053500012F0800F40F09F80AA6812F4806F40F036
:10536000AB80AA6812F0020FB5D0EA6822F0020200
:10537000EA6001EB810200EBC20292F85D20012A93
:1053800000F0AE80032A00F0C280042A00F0D3802F
:10539000052A00F0D880062A02D0082A40F0BE80F4
:1053A000282101FB04618A6D01328A65032A40F2DB
:1053B000D0800A4600219165042182F85C10D3F860
:1053C000002522F0804242F00042C3F80025A5E00B
:1053D00001EB810300EBC303042283F85D2001226B
:1053E00083F83D2001EB810300EBC30300229A65A3
:1053F000EB6843F00203EB60006800F028FC4023F8
:10540000AB6068E7EB6843F00203EB60006800F014
:105410001EFC4FF40073AB605DE78F0001EB81036E
:1054200000EBC30300229A65EB6843F00203EB60D4
:10543000006800F00CFC0123AB603C4406EBC406A2
:1054400086F85D3047E70823AB60EB6843F0020362
:10545000EB60006800F0FBFB04EB840406EBC40681
:10546000052386F85D3036E701EB810300EBC303CB
:1054700000229A6501EB810300EBC303032283F84A
:105480005D20EB6843F00203EB60006800F0DFFB97
:105490001023AB601FE7EB6843F00203EB6000688A
:1054A00000F0D5FB04EB840406EBC406062386F863
:1054B0005D308023AB600EE7EB6843F00203EB60E6
:1054C000006800F0C4FB1023AB604FF48063AB6056
:1054D00004EB840406EBC406082386F85D30FAE684
:1054E00001EB810300EBC30383F85C2093F83F30AA
:1054F000023BDBB2934211D801EB810300EBC30303
:1055000093F8512082F0010283F8512006E001EB6C
:10551000810300EBC303022283F85C200223AB600B
:1055200004EB840306EBC30393F85C20214630466A
:10553000FFF714FACFE601EB810300EBC30302226D
:1055400083F85C20EAE7282303FB010383F85C204F
:10555000E4E7282202FB0462022182F85C102EE7B5
:10556000F8B504460568284600F0A2F9012800D0E5
:10557000F8BD206800F098F90028F9D0206800F004
:1055800093F910F4001F03D023684FF400125A61FE
:10559000206800F089F910F4801F03D023684FF4CD
:1055A00080125A61206800F07FF910F0806F03D0FC
:1055B00023684FF080625A61206800F075F910F09E
:1055C000020F02D0236802225A61206800F06CF9B1
:1055D00010F0005F08D023684FF000525A61D5F8F0
:1055E000403413F0010F25D0206800F05DF910F071
:1055F000807F27D1206800F057F910F0080F25D1DF
:10560000206800F051F910F0007F26D1206800F0EA
:105610004BF910F0100FABD02268936923F0100300
:1056200093612046FFF7BAFA2268936943F01003AA
:1056300093619DE72046FFF78BF90121206800F078
:105640003BF9D1E72046FFF75AFCD3E72046FFF7A6
:1056500073F9236808225A61D2E7206800F0F2FA51
:105660000746002604E0F1B22046FFF724FE01368B
:10567000A368B34212D906F00F0327FA03F313F01D
:10568000010FF4D005EB4613D3F8003513F4004FA7
:10569000E9D0F1B22046FFF78AFCE8E723684FF033
:1056A00000725A61B2E738B590F8B832012B0ED0CB
:1056B0000446012580F8B852006800F089F82946B0
:1056C000206800F037F9002084F8B80238BD0220C5
:1056D000FCE790F8B832012B0BD010B5044601233B
:1056E00080F8B832006800F019FB002084F8B80296
:1056F00010BD0220704708B5006800F0FCF808BD36
:1057000001EB810100EBC10191F85C00704701EBF6
:10571000810100EBC101C86C704708B5006800F05A
:105720008AF908BD08B5006800F07AF908BD0000E4
:10573000002301330C4A934211D80269002AF8DA97
:10574000036943F00103036100230133064A9342D6
:1057500007D8026912F0010FF7D10020704703202B
:1057600070470320704700BF400D030084B010B5A0
:10577000044603A880E80E00089B012B1CD1A36BF4
:1057800023F48033A363E36823F4840323F040030A
:10579000E360E36823F44013E3600F9B012B06D022
:1057A0002046FFF7C5FFBDE8104004B07047E3682E
:1057B00043F48013E360F3E7E36843F04003E360FE
:1057C0002046FFF7B5FFA36B43F48033A363EAE7FA
:1057D000836843F00103836000207047836823F0EF
:1057E000010383600020704708B5C36823F0C043FD
:1057F000C360012909D069B9C36843F08043C3601D
:105800003220FDF7ADFF002008BDC36843F0005310
:10581000C360F5E70120F7E7890141F0200101614C
:1058200000230133054A934205D8026912F0200F84
:10583000F7D1002070470320704700BF400D0300E0
:105840001023036100230133054A934205D80269FE
:1058500012F0100FF7D1002070470320704700BFEF
:10586000400D030070B403339E080024B44208D2F4
:1058700000EB023303F5805351F8045B1D600134E3
:10588000F4E7002070BC704710B403329408002382
:10589000A34206D200F58052126841F8042B01336E
:1058A000F6E7084610BC70474269806910407047AF
:1058B000406900F00100704710B400F58064D0F832
:1058C000003423F00303C0F80034D0F8003401F0B2
:1058D00003021343C0F80034012904D0022906D082
:1058E000002010BC70474BF680336360F8E741F24C
:1058F00070736360F4E730B583B00446002501950A
:10590000D0F840340193019B23F02E030193019BB7
:1059100043F48073C0F840346420FDF721FF019BFD
:1059200023F48073C4F840340A20FDF719FF284699
:1059300003B030BD82B000230193D0F8403401930E
:10594000019B23F02E030193019B13F4805F01D18F
:1059500001290CD0019B13F4805F05D021B9019B74
:1059600023F48053C0F84034002002B07047019BFC
:1059700043F48053C0F84034ECE7000084B070B5C5
:10598000054605AC84E80E0006460024C0F8004E2B
:10599000836B23F480238363836B23F4002383636B
:1059A000D0F8003423F00403C0F800341021FFF7CE
:1059B00033FF2846FFF744FF2246069B93420AD94D
:1059C00006EB42134FF0FF31C3F808150021C3F86E
:1059D0000C150132F1E701212846FFF7ABFFC82083
:1059E000FDF7BEFE0020A8614FF0FF336B618023FE
:1059F0006B6203F5C003AB62074BC5F80031AB69BE
:105A000043F01003AB61AA69044B1343AB61BDE8DB
:105A1000704004B0704700BFE0004000080020A3C1
:105A200082B000230193D0F8403401930198C0F371
:105A3000414002B0704700F58060806880B27047D6
:105A4000F0B506469DF8184000EB411505F5A0603D
:105A50004FF0FF378760032C5DD8DFE804F0024E7B
:105A6000024040F29D47C76012F0800F31D1002004
:105A700006F5806ED6F8187401F00F014FF0010C96
:105A80000CFA01F13943C6F81814B16941F00071FC
:105A9000B16112F0800F40D100269DF81410022948
:105AA0003ED000219B0503F0FE53D20202F4F042E7
:105AB0001343A20402F440221343BDF81C20C2F396
:105AC0000A02134333430B43C5F80035032C2AD095
:105AD000F0BDC76847F48077C7600020C8E740F290
