:020000040800F2
:1000000000000120BD990008690A00086B0A000879
:100010006D0A00086F0A0008710A0008000000005D
:1000200000000000000000000000000081950008B2
:10003000730A000800000000219600086596000879
:10004000059A0008059A0008059A0008059A000814
:10005000059A0008059A0008059A0008059A000804
:10006000059A0008059A0008059A0008059A0008F4
:10007000059A0008059A0008059A0008059A0008E4
:10008000059A0008059A0008059A0008059A0008D4
:10009000059A0008059A0008059A0008059A0008C4
:1000A000059A0008059A0008059A0008059A0008B4
:1000B000750A0008059A0008059A0008059A0008C4
:1000C000059A0008059A0008059A0008059A000894
:1000D000059A0008059A0008059A0008059A000884
:1000E000059A0008059A0008059A0008000000001B
:1000F0000000000000000000000000000000000000
:100100000000000000000000059A0008059A0008A1
:10011000059A0008059A0008059A0008059A000843
:10012000059A0008059A0008059A0008059A000833
:10013000059A0008059A0008059A0008059A000823
:10014000059A0008059A0008059A0008850A000823
:10015000000000000000000000000000000000009F
:10016000000000000000000000000000000000008F
:10017000000000000000000000000000000000007F
:10018000000000000000000000000000000000006F
:10019000000000000000000000000000000000005F
:1001A000000000000000000000000000000000004F
:1001B000000000000000000000000000000000003F
:1001C000000000000000000000000000000000002F
:1001D000000000000000000000000000000000001F
:0401E0005FF8E0F1F3
:1001F00010B5054C237833B9044B13B10448AFF361
:1002000000800123237010BDC80000200000000002
:10021000F0F9000808B5034B1BB103490348AFF3DD
:10022000008008BD00000000CC000020F0F90008AC
:1002300053B94AB9002908BF00281CBF4FF0FF314D
:100240004FF0FF3000F06EB9ADF1080C6DE904CE4F
:1002500000F006F8DDF804E0DDE9022304B07047A1
:100260002DE9F047089E0D4604468E46002B40F0CF
:1002700083808A42174647D9B2FA82F34BB1C3F161
:10028000200105FA03FE20FA01F19F4041EA0E0E1B
:100290009C404FEA1748BEFBF8FC1FFA87F908FBA1
:1002A0001CE20CFB09F0210C41EA024290420AD9FF
:1002B000BA180CF1FF3180F01881904240F215819C
:1002C000ACF1020C3A44121AB2FBF8F008FB10220F
:1002D00000FB09F1A4B244EA0244A14209D93C1945
:1002E00000F1FF3280F00381A14240F20081023828
:1002F0003C44641A002140EA0C401EB10022DC405C
:10030000C6E90042BDE8F08702B9FFDEB2FA82F327
:10031000002B4FD18D1A01214FEA124E1FFA82F89D
:10032000B5FBFEFC0EFB1C5508FB0CF0220C42EA50
:100330000545A84207D97D190CF1FF3202D2A84227
:1003400000F2E98094462D1AB5FBFEF00EFB105525
:1003500008FB00F8A4B244EA0544A04507D93C19BB
:1003600000F1FF3202D2A04500F2D9801046A4EB82
:10037000080440EA0C40C0E78B4208D9002E00F088
:10038000B1800021C6E900050846BDE8F087B3FA50
:1003900083F100294BD1AB4202D3824200F2B980F3
:1003A000841A65EB030301209E46002EAAD0C6E9FD
:1003B000004EA7E79F40C3F12002D1404FEA174EFD
:1003C000B1FBFEF01FFA87F80EFB101124FA02F2BF
:1003D0009D4000FB08FC2A43150C45EA0145AC454D
:1003E00004FA03F409D97D1900F1FF3180F08F8000
:1003F000AC4540F28C8002383D44A5EB0C05B5FBC2
:10040000FEF10EFB115C01FB08F995B245EA0C45C3
:10041000A94507D97D1901F1FF3274D2A94572D9D6
:1004200002393D44A5EB090541EA004178E7C1F1F5
:1004300020078B4022FA07FC4CEA030C25FA07F44C
:100440004FEA1C4EB4FBFEF91FFA8CF80EFB194460
:1004500020FA07F309FB08FA8D401D432B0C43EAF1
:100460000444A24502FA01F200FA01F309D91CEB97
:10047000040409F1FF3048D2A24546D9A9F1020986
:100480006444A4EB0A04B4FBFEF00EFB104400FB32
:1004900008FAADB245EA0444A24508D91CEB0404AD
:1004A00000F1FF352DD2A2452BD90238644440EA31
:1004B0000940A0FB0289A4EB0A044C45C6464D4600
:1004C00019D316D05EB1B3EB0E0264EB050404FA47
:1004D00007F722FA01F31F43CC40C6E9007400215C
:1004E000BDE8F087314630460CE78C46EBE6104617
:1004F000FFE64345E6D2B8EB020E69EB0C05013886
:10050000E0E72846D3E711468CE78146B9E708467D
:1005100073E7084649E7ACF1020C3D4413E70238A3
:100520003C4424E7704700BF2DE9F04F8BB0002416
:100530000694079408940994674B9A6942F0400224
:100540009A619A6902F040020192019A9A6942F016
:1005500010029A619A6902F010020292029A9A6954
:1005600042F004029A619A6902F004020392039A2B
:100570009A6942F008029A619A6902F008020492AC
:10058000049A9A6942F020029A619B6903F0200361
:100590000593059BDFF84CA101224FF6FF715046F1
:1005A00003F0A6FE4D4E01224EF69C01304603F0AC
:1005B0009FFEDFF8349101224FF44071484603F06A
:1005C00097FEDFF8288101224FF44071404603F086
:1005D0008FFE4FF6FF7306930125079508940327B6
:1005E000099706A9504603F073FD4FF48043069324
:1005F00007950894099706A9404603F069FD42F261
:10060000300306930794089406A9484603F060FD5A
:1006100040F20143069307940894DFF8D4B006A98A
:10062000584603F055FD4FF48063069307940894F1
:1006300006A9404603F04CFD4FF4E063069307948F
:10064000089406A9304603F043FD4FF40063069377
:1006500007950894099506A9304603F039FD4FF433
:100660006043069307950894099706A9304603F05E
:100670002FFD4FF4407ACDF818A0079508940997FC
:1006800006A9484603F024FD4FF4807306934FF00B
:100690000209CDF81C90099706A9584603F018FDE9
:1006A0009C23069307950894CDF8249006A930461C
:1006B00003F00EFDCDF818A007950894CDF824900E
:1006C00006A9404603F004FD054A536843F0E4637D
:1006D00053600BB0BDE8F08F0010024000140140E1
:1006E000000001400018014000100140000C0140D2
:1006F0000008014008B50D480D4B03604FF48273AC
:10070000436000238360C3600222026101224261D0
:100710004FF4007282610822C26103624362836205
:100720000A23C36205F01CFC08BD00BF34CF0020C3
:100730000030014008B50C480C4B03604FF4827345
:10074000436000238360C360022202610122426190
:100750004FF400728261C3610362436283620A23C1
:10076000C36205F0FDFB08BDC8CE0020003C004080
:1007700010B582B00023ADF804308DF80630009338
:10078000144C154B23604FF0FF3363604FF48073BC
:10079000A360204605F086FB15238DF80430122354
:1007A0008DF8053011238DF80630012201A920466D
:1007B00005F091FA01228DF800208DF801208DF8C6
:1007C000022020238DF803306946204605F0E4FA24
:1007D00002B010BD20CF00200028004008B5084816
:1007E000084B03604FF4E133436000238360C36030
:1007F00003610C2242618361C36105F055FC08BDB1
:100800008CCF00200044004008B50348034B036030
:1008100007F026F908BD00BFC0CE0020003002401E
:1008200008B504F06DF809F039FF404809F0E8FD1B
:100830004FF47F0009F0CEFD09F0D4FE0A2009F044
:1008400091FDFF2009F0D1FD5A23DC220A2150201E
:100850000AF056FB0A23DC225A2150200AF050FBF2
:10086000002009F0B7FD6FF07F4009F0BEFD0020C9
:1008700009F006FE0A22A0212D480AF0F3F8042010
:1008800009F0FEFD1A22A0212A480AF0EBF8022006
:1008900009F0F6FD2A22A02127480AF0E3F80120FA
:1008A00009F0EEFD3A22A02124480AF0DBF80620E8
:1008B00009F0E6FD4A22A02121480AF0D3F8214C94
:1008C0000022114620460AF0B9F8142201212046E0
:1008D0000AF0B4F82822052120460AF0AFF83C229D
:1008E0000A2120460AF0AAF85022142120460AF0D4
:1008F000A5F86422322120460AF0A0F8782264216B
:1009000020460AF09BF88C22C82120460AF096F86F
:10091000A0224FF4967120460AF090F804210A486C
:1009200003F0ECFC642008F0B7FBF7E704070108CC
:10093000CC140108DC140108E8140108F8140108BB
:10094000041501082015010800140140F0B59DB000
:1009500000241294149409940A940B940C940D940A
:100960002022214601A809F091F809230E934FF4A3
:1009700080331093042211920125139515950F933E
:100980000226169617934FF4E013189319964FF416
:10099000C0631A9340271B970EA802F0DDFD0F23BA
:1009A00009930A960B944FF480630C930D9431468F
:1009B00009A803F0CFF8112301934FF400730293B9
:1009C00008944FF400430693079701A803F0BCF97D
:1009D00022464FF03061204603F03AF8074AD36AC6
:1009E00023F0F0033B43D362D36A23F4704343F410
:1009F0000043D362024B1D601DB0F0BD00100240E9
:100A00007000424200B589B002F058FDFFF79EFF2A
:100A1000FFF78AFDFFF76EFEFFF7AAFEFFF78AFEDB
:100A2000FFF7DCFEFFF7F0FE01AC084D0FCD0FC461
:100A300095E8070084E80700002101A808F0F3FA10
:100A4000034B186008F0EAFAFEE700BF08FA000856
:100A500068CE002008B50368B3F1804F00D008BD10
:100A600002F03EFDFBE770477047FEE7FEE7FEE75A
:100A7000FEE7704708B5024803F0E2FC08BD00BF7E
:100A800070D6002008B5024804F03CFC08BD00BF49
:100A9000D0CF002082B00A4B9A6942F001029A61DD
:100AA0009A6902F001020092009ADA6942F08052DB
:100AB000DA61DB6903F080530193019B02B0704758
:100AC000001002400268094B9A4200D0704782B081
:100AD000A3F500535A6942F040025A615B6903F082
:100AE00040030193019B02B0704700BF00300240F9
:100AF00002680C4B9A4200D0704700B583B003F0F7
:100B00005BFC094BDA6942F00062DA61DB6903F0F1
:100B100000630193019B054B01221A6003B05DF84D
:100B200004FB00BF00280040001002403C04424289
:100B300010B588B0002304930593069307930368C8
:100B40002F4A934204D02F4A934229D008B010BDB7
:100B50002D4B9A6942F480529A619A6902F480524C
:100B60000092009A9A6942F004029A619B6903F02C
:100B700004030193019BA023049302230593032301
:100B80000793224C04A9204603F0A2FA40230493C1
:100B900000230593069304A9204603F099FAD5E7AC
:100BA000194BDA6942F40042DA61DA6902F4004270
:100BB0000292029A9A6942F010029A619B6903F0CC
:100BC00010030393039B4FF4A05304930223059354
:100BD000032307930E4C04A9204603F079FA4FF43F
:100BE0000063049300230593069304A9204603F0B1
:100BF0006FFA084A536843F0B8535360A6E700BF42
:100C000000300140003C004000100240000801405C
:100C1000001001400000014010B586B0002302938F
:100C200003930493059302681A4B9A4201D006B0CD
:100C300010BD03F5E633DA6942F40032DA61DA69AD
:100C400002F400320092009A9A6942F020029A61FE
:100C50009B6903F020030193019B2023029302234D
:100C60000393032305930C4C02A9204603F030FAAA
:100C70004023029300230393049302A9204603F028
:100C800027FA064A536843F0E06343F008035360D1
:100C9000CDE700BF004400400014014000000140C7
:100CA00082B000230193064B03FB00F30193019BE9
:100CB0001BB1019B013B0193F9E702B0704700BFF4
:100CC000A086010082B0002301930A230193019BB7
:100CD0001BB1019B013B0193F9E702B07047000093
:100CE00038B504460E4D00224FF40051284603F05B
:100CF000FFFA01224FF40041284603F0F9FA094BAC
:100D0000DC60094C00224FF48041204603F0F0FAE9
:100D100001224FF48041204603F0EAFA38BD00BFBB
:100D20000014014000180140000C014038B5044691
:100D30000E4D01224FF40051284603F0D9FA01224A
:100D40004FF40041284603F0D3FA094BDC60094C0C
:100D500000224FF48041204603F0CAFA01224FF4EA
:100D60008041204603F0C4FA38BD00BF00140140A2
:100D700000180140000C0140B0F5A07F00F2BC81DA
:100D80002DE9F04704468A461546F02901D9BDE809
:100D9000F087DA4B1B8848F68912934200F097805F
:100DA00049F22032934200F0ED8049F61912934245
:100DB00000F04781D24E00224FF48071304603F09C
:100DC00097FADFF8448300224FF40051404603F0C5
:100DD0008FFA01224FF40041404603F089FADFF810
:100DE0002C932023C9F80C30C64F00224FF48041C9
:100DF000384603F07DFA01224FF48041384603F073
:100E000077FA5046FFF792FF01224FF48071304687
:100E100003F06EFAC4F59F740134A4B200224FF4BB
:100E20008071304603F064FA00224FF400514046CE
:100E300003F05EFA01224FF40041404603F058FAF5
:100E40002123C9F80C3000224FF48041384603F0CA
:100E50004FFA01224FF48041384603F049FA204608
:100E6000FFF764FF01224FF48071304603F040FA2F
:100E7000A34C00224FF48071204603F039FAA24EB1
:100E800000224FF40051304603F032FA01224FF4B1
:100E90000041304603F02CFA9C4B2222DA60A6F582
:100EA000006600224FF48041304603F021FA01220F
:100EB0004FF48041304603F01BFA2846FFF736FF17
:100EC00001224FF48071204603F012FA5FE78C4E46
:100ED00000224FF48071304603F00AFADFF82882CE
:100EE00000224FF40051404603F002FA01224FF471
:100EF0000041404603F0FCF9DFF810924E23C9F898
:100F00000C30804F00224FF48041384603F0F0F956
:100F100001224FF48041384603F0EAF95046FFF7CA
:100F200005FF01224FF48071304603F0E1F9002201
:100F30004FF48071304603F0DBF900224FF400518A
:100F4000404603F0D5F901224FF40041404603F03A
:100F5000CFF94F23C9F80C3000224FF480413846B6
:100F600003F0C6F901224FF48041384603F0C0F97E
:100F70002046FFF7DBFE01224FF48071304603F07C
:100F8000B7F975E75E4E00224FF48071304603F0EA
:100F9000AFF9DFF8748100224FF40051404603F0AE
:100FA000A7F901224FF40041404603F0A1F9DFF810
:100FB0005C912023C9F80C30524F00224FF480413D
:100FC000384603F095F901224FF48041384603F08A
:100FD0008FF95046FFF7AAFE01224FF48071304688
:100FE00003F086F9C4F59F740134A4B200224FF4D3
:100FF0008071304603F07CF900224FF400514046E6
:1010000003F076F901224FF40041404603F070F9F5
:101010002123C9F80C3000224FF48041384603F0F8
:1010200067F901224FF48041384603F061F9204608
:10103000FFF77CFE01224FF48071304603F058F92F
:1010400016E72F4E00224FF48071304603F050F91E
:10105000DFF8B48000224FF40051404603F048F915
:1010600001224FF40041404603F042F9DFF89C9022
:101070004E23C9F80C30234F00224FF480413846EC
:1010800003F036F901224FF48041384603F030F97D
:101090002046FFF74BFE01224FF48071304603F0EB
:1010A00027F900224FF48071304603F021F9002225
:1010B0004FF40051404603F01BF901224FF4004168
:1010C000404603F015F94F23C9F80C3000224FF4C5
:1010D0008041384603F00CF901224FF48041384634
:1010E00003F006F95046FFF721FE01224FF480710C
:1010F000304603F0FDF8BBE6704700BFB0020020A9
:1011000000100140000C0140001401400018014093
:1011100070B5144E01224FF40051304603F0E8F848
:1011200001224FF48041104803F0E2F800224FF40E
:101130000041304603F0DCF80C4C4FF04433636060
:101140002360FFF7BFFDA368A568ADB24FF033334E
:101150006360236001224FF40041304603F0C8F879
:10116000284670BD00140140000C014000180140E9
:10117000F8B505460C46164E00224FF480713046F5
:1011800003F0B6F8134F00224FF40051384603F035
:10119000AFF801224FF40041384603F0A9F80E4B96
:1011A000DD600E4D00224FF48041284603F0A0F888
:1011B00001224FF48041284603F09AF82046FFF7B9
:1011C000B5FD01224FF48071304603F091F8F8BD6F
:1011D000001001400014014000180140000C0140C3
:1011E0002DE9F84F07460E461446BDF8288099426F
:1011F00028D01D46994235D9A1EB03091FFA89FA77
:10120000A74234D0A74242D9A7EB04091FFA89F9B3
:10121000D1454ED0424629462046FFF7ADFDAE42AD
:1012200040F28280D1455FD94FEA4A0B1FFA8BFB0F
:10123000ABEB090636B2AAEB09094FEA49091FFAD6
:1012400089F946E0904209D81746044606E042462E
:1012500031462046FFF790FD0134A4B2BC42F6D9D6
:10126000BDE8F88FA3EB01091FFA89FAC8E7AE427F
:101270000AD833462E461D4606E0424629463846E1
:10128000FFF77AFD0135ADB2B542F6D9E8E7A4EB38
:1012900007091FFA89F933462E461D463B46274665
:1012A0001C46B5E70135ADB2424629462046FFF758
:1012B00063FDA742D4D30134A4B2AE42F2D2013DC1
:1012C000ADB2F1E75E4436B2424629462046FFF70A
:1012D00053FDA742C4D90134A4B2002EF2DB01357C
:1012E000ADB24E4436B2EFE74FEA490B1FFA8BFB23
:1012F000ABEB0A073FB2A9EB0A094FEA49091FFA0B
:1013000089F906E05F443FB2424629462046FFF78E
:1013100033FDAE42A4D90135ADB2002FF2DB01346A
:10132000A4B24F443FB2EFE7D1451FD94FEA4A0B71
:101330001FFA8BFBABEB090636B2AAEB09094FEAA1
:1013400049091FFA89F906E05E4436B24246294649
:101350002046FFF711FDA74282D90134A4B2002E26
:10136000F2DB013DADB24E4436B2EFE74FEA490B36
:101370001FFA8BFBABEB0A073FB2A9EB0A094FEA56
:1013800049091FFA89F906E05F443FB242462946FF
:101390002046FFF7F1FCAE42BFF462AF013DADB2B3
:1013A000002FF1DB0134A4B24F443FB2EEE700005E
:1013B0002DE9F04F83B0DFF8848300224FF4807171
:1013C000404602F095FFD94D00224FF400512846C7
:1013D00002F08EFF01224FF40041284602F088FF00
:1013E000D34C0026E660D34F32464FF48041384656
:1013F00002F07EFF01224FF48041384602F078FF70
:101400000120FFF793FC01224FF48071404602F067
:101410006FFF0120FFF744FC32464FF480714046D5
:1014200002F066FF32464FF40051284602F060FF9A
:1014300001224FF40041284602F05AFFE66032468E
:101440004FF48041384602F053FF01224FF48041AF
:10145000384602F04DFF01224FF40051284602F0B9
:1014600047FF01224FF48041384602F041FF3246E7
:101470004FF40041284602F03BFF4FF044336360D5
:101480002360FFF71FFCA368A668B6B24FF03333A2
:101490006360236001224FF40041284602F028FFD8
:1014A00001224FF48071404602F022FFA24B1E80C1
:1014B000012E40F2EC80A04B1B881BB99E4B49F2D9
:1014C00020321A809C4B1B8849F22532934200F04F
:1014D000378149F22832934200F0328149F22032BA
:1014E000934201F08182B3F5134F01F07D8249F2FE
:1014F0003132934201F0508549F61912934201F0BE
:101500003D8641F20552934201F0C48648F68912A5
:10151000934241F0428201210020FFF729FE4AF662
:10152000A4010320FFF724FE00210C20FFF720FE7A
:1015300040F60C010D20FFF71BFE4FF42C510E203E
:10154000FFF716FEB0211E20FFF712FE42F63F11F4
:101550000120FFF70DFE4FF4C0610220FFF708FEE7
:1015600000211020FFF704FE46F278011120FFF75A
:10157000FFFD00210520FFF7FBFD00210620FFF7FE
:10158000F7FD4EF61C711620FFF7F2FD0321172020
:10159000FFF7EEFD40F233210720FFF7E9FD0021C0
:1015A0000B20FFF7E5FD00210F20FFF7E1FD0021F3
:1015B0004120FFF7DDFD00214220FFF7D9FD00218A
:1015C0004820FFF7D5FD40F23F114920FFF7D0FD3D
:1015D00000214A20FFF7CCFD00214B20FFF7C8FD7A
:1015E0004FF46F414420FFF7C3FD00214520FFF772
:1015F000BFFD40F23F114620FFF7BAFD40F20771F0
:101600003020FFF7B5FD4FF401713120FFF7B0FD39
:101610004FF401713220FFF7ABFD40F2025133204D
:10162000FFF7A6FD40F207513420FFF7A1FD4FF46C
:1016300001713520FFF79CFD4FF401713620FFF753
:1016400097FD40F202513720FFF792FD40F2023140
:101650003A20FFF78DFD40F202313B20FFF788FD75
:1016600000212320FFF784FD00212420FFF780FDC7
:101670004FF400412520FFF77BFD00214E20FFF7AE
:1016800077FD00214F20FFF773FD01F086B900229E
:101690004FF48071404602F02BFE00224FF40051BF
:1016A000284602F025FE01224FF40041284602F0B0
:1016B0001FFE0026E66032464FF48041384602F0B5
:1016C00017FE01224FF48041384602F011FE01223C
:1016D0004FF40051284602F00BFE01224FF48041E6
:1016E000384602F005FE32464FF40041284602F02B
:1016F000FFFD4FF0443363602360FFF7E3FAA36814
:10170000A668B6B24FF033336360236001224FF412
:101710000041284602F0ECFD01224FF48071404662
:1017200002F0E6FD044B1E80C5E600BF0014014038
:1017300000180140000C0140B002002000100140E0
:10174000FC4E00224FF48071304602F0D1FDDFF8EC
:10175000EC8300224FF40051404602F0C9FD012203
:101760004FF40041404602F0C3FDDFF8D493E32379
:10177000C9F80C30F04F00224FF48041384602F097
:10178000B7FD01224FF48041384602F0B1FD43F22B
:101790000800FFF7CBFA01224FF48071304602F0C7
:1017A000A7FD00224FF48071304602F0A1FD002217
:1017B0004FF40051404602F09BFD01224FF40041DE
:1017C000404602F095FDE723C9F80C3000224FF4A3
:1017D0008041384602F08CFD01224FF480413846AA
:1017E00002F086FD1220FFF7A1FA01224FF480716A
:1017F000304602F07DFD00224FF48071304602F049
:1018000077FD00224FF40051404602F071FD0122A5
:101810004FF40041404602F06BFDEF23C9F80C3055
:1018200000224FF48041384602F062FD01224FF45D
:101830008041384602F05CFD41F23120FFF776FA34
:1018400001224FF48071304602F052FD00224FF425
:101850008071304602F04CFD00224FF400514046AA
:1018600002F046FD01224FF40041404602F040FDE7
:101870000024C9F80C4022464FF48041384602F05B
:1018800037FD01224FF48041384602F031FD01203E
:10189000FFF74CFA01224FF48071304602F028FD28
:1018A00022464FF48071304602F022FD22464FF46A
:1018B0000051404602F01CFD01224FF40041404619
:1018C00002F016FD0125C9F80C5022464FF4804164
:1018D000384602F00DFD2A464FF48041384602F0AA
:1018E00007FD4FF48070FFF721FA2A464FF480710C
:1018F000304602F0FDFC22464FF48071304602F083
:10190000F7FC22464FF40051404602F0F1FC2A4613
:101910004FF40041404602F0EBFC0223C9F80C30C2
:1019200022464FF48041384602F0E2FC2A464FF44A
:101930008041384602F0DCFC4FF4E060FFF7F6F936
:101940002A464FF48071304602F0D2FC22464FF412
:101950008071304602F0CCFC22464FF400514046E4
:1019600002F0C6FC2A464FF40041404602F0C0FC9B
:101970000323C9F80C3022464FF48041384602F068
:10198000B7FC2A464FF48041384602F0B1FC41F2E0
:101990003000FFF7CBF92A464FF48071304602F051
:1019A000A7FC22464FF48071304602F0A1FC22468B
:1019B0004FF40051404602F09BFC2A464FF4004190
:1019C000404602F095FC0423C9F80C3022464FF43F
:1019D0008041384602F08CFC2A464FF4804138465C
:1019E00002F086FC2046FFF7A1F92A464FF48071E9
:1019F000304602F07DFC22464FF48071304602F002
:101A000077FC22464FF40051404602F071FC2A4612
:101A10004FF40041404602F06BFC0823C9F80C303B
:101A200022464FF48041384602F062FC2A464FF4C9
:101A30008041384602F05CFC40F20720FFF776F95F
:101A40002A464FF48071304602F052FC22464FF491
:101A50008071304602F04CFC22464FF40051404663
:101A600002F046FC2A464FF40041404602F040FC9A
:101A70000923C9F80C3022464FF48041384602F061
:101A800037FC2A464FF48041384602F031FC2046AC
:101A9000FFF74CF92A464FF48071304602F028FCDB
:101AA00022464FF48071304602F022FC22464FF469
:101AB0000051404602F01CFC2A464FF400414046CB
:101AC00002F016FC0A23C9F80C3022464FF480417C
:101AD000384602F00DFC2A464FF48041384602F0A9
:101AE00007FC2046FFF722F92A464FF48071304662
:101AF00002F0FEFB22464FF48071304602F0F8FB04
:101B000022464FF40051404602F0F2FB2A464FF4C1
:101B10000041404602F0ECFB0C23C9F80C30224691
:101B20004FF48041384602F0E3FB2A464FF48041EF
:101B3000384607E000100140000C0140001401404D
:101B40000018014002F0D4FB2846FFF7EFF82A46C0
:101B50004FF48071304602F0CBFB22464FF4807187
:101B6000304602F0C5FB22464FF40051404602F0D9
:101B7000BFFB2A464FF40041404602F0B9FB0D235B
:101B8000C9F80C3022464FF48041384602F0B0FBD1
:101B90002A464FF48041384602F0AAFB2046FFF760
:101BA000C5F82A464FF48071304602F0A1FB224668
:101BB0004FF48071304602F09BFB22464FF40051F7
:101BC000404602F095FB2A464FF40041404602F0A1
:101BD0008FFB0F23C9F80C3022464FF48041384662
:101BE00002F086FB2A464FF48041384602F080FB23
:101BF0002046FFF79BF82A464FF48071304602F0EA
:101C000077FB22464FF48071304602F071FB22468A
:101C10004FF40051404602F06BFB2A464FF400415E
:101C2000404602F065FB4FF0100BC9F80CB022469D
:101C30004FF48041384602F05BFB2A464FF4804166
:101C4000384602F055FB2046FFF770F82A464FF45D
:101C50008071304602F04CFB22464FF480713046D2
:101C600002F046FB22464FF40051404602F040FB92
:101C70002A464FF40041404602F03AFB4FF0110A69
:101C8000C9F80CA022464FF48041384602F030FBE0
:101C90002A464FF48041384602F02AFB0720FFF71E
:101CA00045F82A464FF48071304602F021FB224667
:101CB0004FF48071304602F01BFB22464FF4005176
:101CC000404602F015FB2A464FF40041404602F020
:101CD0000FFB1223C9F80C3022464FF480413846DE
:101CE00002F006FB2A464FF48041384602F000FB22
:101CF0002046FFF71BF82A464FF48071304602F069
:101D0000F7FA22464FF48071304602F0F1FA22468B
:101D10004FF40051404602F0EBFA2A464FF40041DE
:101D2000404602F0E5FA1323C9F80C3022464FF47E
:101D30008041384602F0DCFA2A464FF480413846AA
:101D400002F0D6FA2046FEF7F1FF2A464FF48071E2
:101D5000304602F0CDFA0520FEF7A2FF0520FEF77F
:101D60009FFF22464FF48071304602F0C1FA2246AE
:101D70004FF40051404602F0BBFA2A464FF40041AE
:101D8000404602F0B5FAC9F80CB022464FF4804143
:101D9000384602F0ADFA2A464FF48041384602F048
:101DA000A7FA41F29050FEF7C1FF2A464FF4807126
:101DB000304602F09DFA22464FF48071304602F020
:101DC00097FA22464FF40051404602F091FA2A4613
:101DD0004FF40041404602F08BFAC9F80CA02246AD
:101DE0004FF48041384602F083FA2A464FF480418E
:101DF000384602F07DFA40F22720FEF797FF2A4688
:101E00004FF48071304602F073FA0520FEF748FF68
:101E10000520FEF745FF22464FF48071304602F060
:101E200067FA22464FF40051404602F061FA2A4612
:101E30004FF40041404602F05BFA1223C9F80C301F
:101E400022464FF48041384602F052FA2A464FF4B7
:101E50008041384602F04CFA9C20FEF767FF2A4684
:101E60004FF48071304602F043FA0520FEF718FF68
:101E70000520FEF715FF22464FF48071304602F030
:101E800037FA22464FF40051404602F031FA2A4612
:101E90004FF40041404602F02BFA1323C9F80C30EE
:101EA00022464FF48041384602F022FA2A464FF487
:101EB0008041384602F01CFA4FF4C850FEF736FF56
:101EC0002A464FF48071304602F012FA22464FF44F
:101ED0008071304602F00CFA22464FF40051404621
:101EE00002F006FA2A464FF40041404602F000FA9A
:101EF0002923C9F80C3022464FF48041384602F0BD
:101F0000F7F92A464FF48041384602F0F1F92320D0
:101F1000FEF70CFF2A464FF48071304602F0E8F9D4
:101F200022464FF48071304602F0E2F922464FF427
:101F30000051404602F0DCF92A464FF40041404689
:101F400002F0D6F92B23C9F80C3022464FF4804119
:101F5000384602F0CDF92A464FF48041384602F067
:101F6000C7F90E20FEF7E2FE2A464FF48071304694
:101F700002F0BEF90520FEF793FE0520FEF790FE65
:101F800022464FF48071304602F0B2F922464FF4F7
:101F90000051404602F0ACF92A464FF40041404659
:101FA00002F0A6F92023C9F80C3022464FF48041F4
:101FB000384602F09DF92A464FF48041384602F037
:101FC00097F92046FEF7B2FE2A464FF4807130465C
:101FD00002F08EF922464FF48071304602F088F903
:101FE00022464FF40051404602F082F92A464FF44F
:101FF0000041404602F07CF92123C9F80C3022460A
:102000004FF48041384602F073F92A464FF480417C
:10201000384602F06DF92046FEF788FE2A464FF456
:102020008071304602F064F90520FEF739FE052084
:10203000FEF736FE22464FF48071304602F058F922
:1020400022464FF40051404602F052F92A464FF41E
:102050000041404602F04CF93023C9F80C302246CA
:102060004FF48041384602F043F92A464FF480414C
:10207000384602F03DF90720FEF758FE2A464FF495
:102080008071304602F034F922464FF480713046B8
:1020900002F02EF922464FF40051404602F028F992
:1020A0002A464FF40041404602F022F93123C9F894
:1020B0000C3022464FF48041384602F019F92A4686
:1020C0004FF48041384602F013F940F20770FEF7F2
:1020D0002DFE2A464FF48071304602F009F922465F
:1020E0004FF48071304602F003F922464FF400515C
:1020F000404602F0FDF801224FF40041404602F054
:10210000F7F83223C9F80C30FD4C00224FF480411F
:10211000204602F0EDF801224FF48041204602F003
:10212000E7F80620FEF702FE01224FF480713046E8
:1021300002F0DEF800224FF48071304602F0D8F849
:1021400000224FF40051404602F0D2F801224FF431
:102150000041404602F0CCF83523C9F80C3000228B
:102160004FF48041204602F0C3F801224FF4804131
:10217000204602F0BDF840F20470FEF7D7FD0122C0
:102180004FF48071304602F0B3F800224FF48071B2
:10219000304602F0ADF800224FF40051404602F004
:1021A000A7F801224FF40041404602F0A1F836237F
:1021B000C9F80C3000224FF48041204602F098F814
:1021C00001224FF48041204602F092F841F604705B
:1021D000FEF7ACFD01224FF48071304602F088F822
:1021E00000224FF48071304602F082F800224FF452
:1021F0000051404602F07CF801224FF40041404675
:1022000002F076F83723C9F80C3000224FF48041F1
:10221000204602F06DF801224FF48041204602F082
:1022200067F80420FEF782FD01224FF480713046EA
:1022300002F05EF800224FF48071304602F058F848
:1022400000224FF40051404602F052F801224FF4B0
:102250000041404602F04CF83823C9F80C30002207
:102260004FF48041204602F043F801224FF48041B0
:10227000204602F03DF80020FEF758FD01224FF401
:102280008071304602F034F800224FF480713046FD
:1022900002F02EF800224FF40051404602F028F8D8
:1022A00001224FF40041404602F022F83923C9F8D8
:1022B0000C3000224FF48041204602F019F8012230
:1022C0004FF48041204602F013F840F20670FEF70A
:1022D0002DFD01224FF48071304602F009F80022F2
:1022E0004FF48071304602F003F800224FF40051A1
:1022F000404601F0FDFF01224FF40041404601F04D
:10230000F7FF3C23C9F80C3000224FF480412046EF
:1023100001F0EEFF01224FF48041204601F0E8FF7A
:1023200040F20170FEF702FD01224FF48071304649
:1023300001F0DEFF00224FF48071304601F0D8FF3B
:1023400000224FF40051404601F0D2FF01224FF429
:102350000041404601F0CCFF3D23C9F80C3000227B
:102360004FF48041204601F0C3FF01224FF4804129
:10237000204601F0BDFF0F20FEF7D8FC01224FF4EC
:102380008071304601F0B4FF0520FEF789FC05207E
:10239000FEF786FC00224FF48071304601F0A8FF62
:1023A00000224FF40051404601F0A2FF01224FF4F9
:1023B0000041404601F09CFF5023C9F80C30002238
:1023C0004FF48041204601F093FF01224FF48041F9
:1023D000204601F08DFF0020FEF7A8FC01224FF4FB
:1023E0008071304601F084FF00224FF48071304646
:1023F00001F07EFF00224FF40051404601F078FFCB
:1024000001224FF40041404601F072FF5123C9F808
:102410000C3000224FF48041204601F069FF012278
:102420004FF48041204601F063FFEF20FEF77EFC71
:1024300001224FF48071304601F05AFF00224FF420
:102440008071304601F054FF00224FF400514046A5
:1024500001F04EFF01224FF40041404601F048FFD9
:102460005223C9F80C3000224FF48041204601F07D
:102470003FFF01224FF48041204601F039FF002048
:10248000FEF754FC01224FF48071304601F030FF1A
:1024900000224FF48071304601F02AFF00224FF4F1
:1024A0000051404601F024FF01224FF40041404614
:1024B00001F01EFF5323C9F80C3000224FF4804175
:1024C000204601F015FF01224FF48041204601F023
:1024D0000FFF40F23F10FEF729FC01224FF48071FC
:1024E000304601F005FF00224FF48071304601F0C4
:1024F000FFFE00224FF40051404601F0F9FE01E0DA
:10250000000C014001224FF40041404601F0F0FE72
:102510006023C9F80C3000224FF48041204601F0BE
:10252000E7FE01224FF48041204601F0E1FE4FF426
:102530002740FEF7FBFB01224FF48071304601F08B
:10254000D7FE00224FF48071304601F0D1FE002208
:102550004FF40051404601F0CBFE01224FF4004100
:10256000404601F0C5FE6123C9F80C3000224FF44B
:102570008041204601F0BCFE01224FF480412046FC
:1025800001F0B6FE0120FEF7D1FB01224FF480716D
:10259000304601F0ADFE00224FF48071304601F06C
:1025A000A7FE00224FF40051404601F0A1FE012297
:1025B0004FF40041404601F09BFE6A23C9F80C30FD
:1025C00000224FF48041204601F092FE01224FF498
:1025D0008041204601F08CFE0020FEF7A7FB01227F
:1025E0004FF48071304601F083FE00224FF4807179
:1025F000304601F07DFE00224FF40051404601F0CC
:1026000077FE01224FF40041404601F071FE802325
:10261000C9F80C3000224FF48041204601F068FEDA
:1026200001224FF48041204601F062FE0020FEF7B7
:102630007DFB01224FF48071304601F059FE0022EB
:102640004FF48071304601F053FE00224FF40051E8
:10265000404601F04DFE01224FF40041404601F09A
:1026600047FE8123C9F80C3000224FF480412046F8
:1026700001F03EFE01224FF48041204601F038FE79
:102680000020FEF753FB01224FF48071304601F029
:102690002FFE00224FF48071304601F029FE002207
:1026A0004FF40051404601F023FE01224FF4004157
:1026B000404601F01DFE8223C9F80C3000224FF481
:1026C0008041204601F014FE01224FF48041204653
:1026D00001F00EFE0020FEF729FB01224FF480716D
:1026E000304601F005FE00224FF48071304601F0C3
:1026F000FFFD00224FF40051404601F0F9FD012298
:102700004FF40041404601F0F3FD8323C9F80C303B
:1027100000224FF48041204601F0EAFD01224FF4EF
:102720008041204601F0E4FD0020FEF7FFFA01227F
:102730004FF48071304601F0DBFD00224FF48071D0
:10274000304601F0D5FD00224FF40051404601F023
:10275000CFFD01224FF40041404601F0C9FD842322
:10276000C9F80C3000224FF48041204601F0C0FD32
:1027700001224FF48041204601F0BAFD0020FEF70F
:10278000D5FA01224FF48071304601F0B1FD0022EC
:102790004FF48071304601F0ABFD00224FF4005140
:1027A000404601F0A5FD01224FF40041404601F0F2
:1027B0009FFD8523C9F80C3000224FF4804120464C
:1027C00001F096FD01224FF48041204601F090FD7A
:1027D0000020FEF7ABFA01224FF48071304601F081
:1027E00087FD00224FF48071304601F081FD002208
:1027F0004FF40051404601F07BFD01224FF40041AF
:10280000404601F075FD9023C9F80C3000224FF4CA
:102810008041204601F06CFD01224FF480412046AA
:1028200001F066FD5846FEF781FA01224FF48071EF
:10283000304601F05DFD00224FF48071304601F01A
:1028400057FD00224FF40051404601F051FD012296
:102850004FF40041404601F04BFD9223C9F80C3083
:1028600000224FF48041204601F042FD01224FF446
:102870008041204601F03CFD4FF4C060FEF756FA5F
:1028800001224FF48071304601F032FD514B1A881D
:1028900049F228339A4200F08B804F4C00224FF4CB
:1028A0008071204601F024FD4C4E00224FF400516F
:1028B000304601F01DFD01224FF40041304601F089
:1028C00017FD474F0723FB60464D00224FF4804120
:1028D000284601F00DFD01224FF48041284601F009
:1028E00007FD40F23310FEF721FA01224FF4807108
:1028F000204601F0FDFC00224FF48071204601F0DB
:10290000F7FC00224FF40051304601F0F1FC0122A7
:102910004FF40041304601F0EBFC2023FB60002225
:102920004FF48041284601F0E3FC01224FF480413E
:10293000284601F0DDFC0020FEF7F8F901224FF4F3
:102940008071204601F0D4FC00224FF480712046B3
:1029500001F0CEFC00224FF40051304601F0C8FCDB
:1029600001224FF40041304601F0C2FC2123FB60FC
:1029700000224FF48041284601F0BAFC01224FF4B6
:102980008041284601F0B4FC0020FEF7CFF9012277
:102990004FF48071204601F0ABFC1F2300933223DB
:1029A0001A4601210846FEF71BFC03B0BDE8F08F74
:1029B00003219320FEF7DCFB4FF488719520FEF78E
:1029C000D7FB00219720FEF7D3FB00219820FEF7CC
:1029D000CFFB62E7B002002000100140001401406C
:1029E00000180140000C0140FC4E00224FF48071A1
:1029F000304601F07DFCDFF8EC8300224FF40051FB
:102A0000404601F075FC01224FF40041404601F0C0
:102A10006FFCDFF8D4930024C9F80C40F04F224635
:102A20004FF48041384601F063FC01224FF48041AD
:102A3000384601F05DFC0120FEF778F901224FF4E1
:102A40008071304601F054FC22464FF480713046CC
:102A500001F04EFC22464FF40051404601F048FC84
:102A600001224FF40041404601F042FC0125C9F823
:102A70000C5022464FF48041384601F039FC2A467A
:102A80004FF48041384601F033FC4FF48070FEF77C
:102A90004DF92A464FF48071304601F029FC224658
:102AA0004FF48071304601F023FC22464FF4005170
:102AB000404601F01DFC2A464FF40041404601F01B
:102AC00017FC0223C9F80C3022464FF480413846E7
:102AD00001F00EFC2A464FF48041384601F008FC14
:102AE0004FF4E060FEF722F92A464FF48071304639
:102AF00001F0FEFB22464FF48071304601F0F8FBF6
:102B000022464FF40051404601F0F2FB2A464FF4B2
:102B10000041404601F0ECFB0323C9F80C3022468B
:102B20004FF48041384601F0E3FB2A464FF48041E0
:102B3000384601F0DDFB41F21800FEF7F7F82A46AF
:102B40004FF48071304601F0D3FB0520FEF7A8F862
:102B500022464FF48071304601F0CAFB22464FF402
:102B60000051404601F0C4FB2A464FF40041404664
:102B700001F0BEFB0423C9F80C3022464FF480411B
:102B8000384601F0B5FB2A464FF48041384601F043
:102B9000AFFB2046FEF7CAF82A464FF48071304654
:102BA00001F0A6FB40F202210820FEF7E1FA2146DF
:102BB0000920FEF7DDFA21460A20FEF7D9FA22465F
:102BC0004FF48071304601F093FB22464FF40051E0
:102BD000404601F08DFB2A464FF40041404601F08B
:102BE00087FB0C23C9F80C3022464FF4804138464D
:102BF00001F07EFB2A464FF48041384601F078FB15
:102C00002846FEF793F82A464FF48071304601F0CB
:102C10006FFB21460D20FEF7ABFA21460F20FEF791
:102C2000A7FA0520FEF73CF840F201110720FEF755
:102C30009FFA0520FEF734F84FF486511020FEF776
:102C400097FA07211120FEF793FA4FF488711220AA
:102C5000FEF78EFA4FF430611320FEF789FA224610
:102C60004FF48071304601F043FB22464FF400518F
:102C7000404601F03DFB2A464FF40041404601F03A
:102C800037FB2923C9F80C3022464FF480413846DF
:102C900001F02EFB2A464FF48041384601F028FB14
:102CA0002046FEF743F82A464FF48071304601F083
:102CB0001FFB44F210012B20FEF75AFA2146502048
:102CC000FEF756FAEF215120FEF752FA2146522024
:102CD000FEF74EFA22464FF48071304601F008FBB1
:102CE00022464FF40051404601F002FB2A464FF4C1
:102CF0000041404601F0FCFA5323C9F80C3022464B
:102D00004FF48041384601F0F3FA2A464FF48041EF
:102D1000384601F0EDFA40F23F10FEF707F82A4678
:102D20004FF48071304601F0E3FA22464FF480718F
:102D3000304601F0DDFA22464FF40051404601F0E2
:102D4000D7FA2A464FF40041404601F0D1FA6023F9
:102D5000C9F80C3022464FF48041384601F0C8FAD9
:102D60002A464FF48041384601F0C2FA4FF41C5015
:102D7000FDF7DCFF2A464FF48071304601F0B8FAC7
:102D800029466120FEF7F4F921466A20FEF7F0F9A2
:102D900022464FF48071304601F0AAFA22464FF4E1
:102DA0000051404601F0A4FA2A464FF40041404643
:102DB00001F09EFA8023C9F80C3022464FF480417E
:102DC000384601F095FA2A464FF48041384601F022
:102DD0008FFA2046FDF7AAFF2A4607E000100140BF
:102DE000000C014000140140001801404FF48071B4
:102DF000304601F07DFA22464FF48071304601F0F2
:102E000077FA22464FF40051404601F071FA2A4603
:102E10004FF40041404601F06BFA8123C9F80C30B1
:102E200022464FF48041384601F062FA2A464FF4B8
:102E30008041384601F05CFA2046FDF777FF2A46CC
:102E40004FF48071304601F053FA21468220FEF79C
:102E50008FF921468320FEF78BF921468420FEF767
:102E600087F921468520FEF783F910219020FEF78F
:102E70007FF922464FF48071304601F039FA22463C
:102E80004FF40051404601F033FA2A464FF4004116
:102E9000404601F02DFA9223C9F80C3022464FF437
:102EA0008041384601F024FA2A464FF480413846E2
:102EB00001F01EFA2046FDF739FF2A464FF48071D3
:102EC000304601F015FA29469320FEF751F92246C3
:102ED0004FF48071304601F00BFA22464FF4005156
:102EE000404601F005FA2A464FF40041404601F001
:102EF000FFF99523C9F80C3022464FF4804138463B
:102F000001F0F6F92A464FF48041384601F0F0F915
:102F10004FF48870FDF70AFF2A464FF4807130465F
:102F200001F0E6F921469720FEF722F922464FF4F8
:102F30008071304601F0DCF922464FF400514046E2
:102F400001F0D6F92A464FF40041404601F0D0F98D
:102F50009823C9F80C3022464FF48041384601F0DE
:102F6000C7F92A464FF48041384601F0C1F920469E
:102F7000FDF7DCFE2A464FF48071304601F0B8F9C7
:102F80000520FDF78DFE40F273110720FEF7F0F8E3
:102F90000520FDF785FE00E541F21401E720FEF76C
:102FA000E7F84FF480710120FEF7E2F84FF400716A
:102FB0000220FEF7DDF841F230010320FEF7D8F8D9
:102FC00040F202210820FEF7D3F800210920FEF785
:102FD000CFF800210A20FEF7CBF800210C20FEF7E5
:102FE000C7F800210D20FEF7C3F800210F20FEF7DF
:102FF000BFF800211020FEF7BBF807211120FEF7D3
:10300000B7F800211220FEF7B3F800211320FEF7D5
:10301000AFF80520FDF744FE41F290611020FEF765
:10302000A7F840F227211120FEF7A2F80220FDF7B1
:1030300037FE0C211220FEF79BF80220FDF730FE30
:103040004FF400611320FEF793F811212920FEF7B9
:103050008FF80B212B20FEF78BF80220FDF720FEC6
:1030600000212020FEF784F800212120FEF780F8BF
:1030700000213020FEF77CF84FF483713120FEF7F9
:1030800077F800213220FEF773F84FF401713520F4
:10309000FEF76EF841F20A613620FEF769F840F259
:1030A00007713720FEF764F84FF483713820FEF77C
:1030B0005FF840F207713920FEF75AF840F20241FA
:1030C0003C20FEF755F840F60F413D20FEF750F842
:1030D00000215020FEF74CF8EF215120FEF748F870
:1030E00000215220FEF744F840F23F115320FEF732
:1030F0003FF84FF41C516020FEF73AF8012161209F
:10310000FEF736F800216A20FEF732F80021802011
:10311000FEF72EF800218120FEF72AF800218220F8
:10312000FEF726F800218320FEF722F800218420F4
:10313000FEF71EF800218520FEF71AF810219020D6
:10314000FEF716F84FF4C0619220FEF711F8212126
:103150000720FEF70DF80220FDF7A2FD61210720F0
:10316000FEF706F80220FDF79BFD40F23311072021
:10317000FDF7FEFF0220FDF793FD0EE40621282057
:10318000FDF7F6FF01210020FDF7F2FF00211020DE
:10319000FDF7EEFF47F2EF210120FDF7E9FF4FF4C5
:1031A000C0610220FDF7E4FF46F638210320FDF759
:1031B000DFFF46F674011120FDF7DAFF00210F2032
:1031C000FDF7D6FF45F208310B20FDF7D1FF0321B3
:1031D0000C20FDF7CDFF0A210D20FDF7C9FF4FF4AC
:1031E00038510E20FDF7C4FFBE211E20FDF7C0FFA1
:1031F0004FF400412520FDF7BBFF4FF4F04126209E
:10320000FDF7B6FF78212720FDF7B2FF00214E2001
:10321000FDF7AEFF00214F20FDF7AAFF40F6D901D0
:103220001220FDF7A5FF00213020FDF7A1FF4FF48C
:1032300082713120FDF79CFF4FF480713220FDF741
:1032400097FF40F205313320FDF792FF40F2055120
:103250003420FDF78DFF40F205313520FDF788FF62
:1032600040F207713620FDF783FF4FF4407137209D
:10327000FDF77EFF4FF490513A20FDF779FF4FF4B0
:1032800000613B20FDF774FF33210720FDF770FF3D
:10329000FFF783BB00210720FDF76AFF0220FDF73F
:1032A000FFFC4FF48E711220FDF762FF0121A42074
:1032B000FDF75EFF0F210820FDF75AFF08210A20C5
:1032C000FDF756FF08210D20FDF752FF40F2077170
:1032D0003020FDF74DFF07213120FDF749FF40F277
:1032E00003613220FDF744FF4FF4E0613320FDF726
:1032F0003FFF40F202213420FDF73AFF0221352042
:10330000FDF736FF41F60F713620FDF731FF40F231
:1033100007713720FDF72CFF00213820FDF728FF2B
:1033200000213920FDF724FF40F207713A20FDF714
:103330001FFF00213B20FDF71BFF07213C20FDF76D
:1033400017FF00213D20FDF713FF0220FDF7A8FC29
:1033500001210720FDF70CFF01211720FDF708FFD1
:103360000220FDF79DFC4FF4BD511020FDF700FF3A
:1033700040F217211120FDF7FBFE4FF48F71122050
:10338000FDF7F6FE4FF470611320FDF7F1FE00210A
:103390002A20FDF7EDFE0A212920FDF7E9FE4FF472
:1033A0009F711220FDF7E4FE00215020FDF7E0FEA2
:1033B000EF215120FDF7DCFE00215220FDF7D8FE61
:1033C00040F23F115320FDF7D3FE4FF41C51602013
:1033D000FDF7CEFE01216120FDF7CAFE00216A2023
:1033E000FDF7C6FE00218020FDF7C2FE00218120EE
:1033F000FDF7BEFE00218220FDF7BAFE00218320EA
:10340000FDF7B6FE00218420FDF7B2FE00218520E5
:10341000FDF7AEFE13219020FDF7AAFE4FF4407198
:103420009220FDF7A5FE05219320FDF7A1FE0021C6
:103430009520FDF79DFE00219720FDF799FE0021C4
:103440009820FDF795FE4FF480710120FDF790FE66
:103450004FF4E0610220FDF78BFE41F230010320C2
:10346000FDF786FE00210420FDF782FE00210C20DE
:10347000FDF77EFE00210F20FDF77AFE00212020BF
:10348000FDF776FE00212120FDF772FE21210720A5
:10349000FDF76EFE0220FDF703FC61210720FDF71A
:1034A00067FE0220FDF7FCFB40F273110720FDF7D9
:1034B0005FFE0220FDF7F4FBFFF76FBA08B5074A7D
:1034C000136843F010031360032000F021FF002075
:1034D00004F07CFAFDF7DEFA002008BD002002406F
:1034E000034A1168034B1B780B441360704700BFFD
:1034F000CCCF002034000020014B1868704700BF7B
:10350000CCCF002038B50446FFF7F6FF0546B4F1EE
:10351000FF3F02D0044B1B781C44FFF7EDFF401B1C
:10352000A042FAD338BD00BF3400002082B0084B5F
:103530001B68084AA2FB03235B0A00FB03F3019309
:1035400000BF019B5A1E0192002BF9D102B07047B7
:103550003C000020D34D6210002800F0618270B55D
:1035600082B00446036813F0010F2CD0AA4B5B68AD
:1035700003F00C03042B1DD0A74B5B6803F00C0376
:10358000082B12D0A368B3F5803F41D0002B55D152
:1035900003F1804303F504331A6822F480321A6081
:1035A0001A6822F480221A6037E09B4B5B6813F4A0
:1035B000803FE7D0984B1B6813F4003F03D0A3680B
:1035C000002B00F02F82236813F0020F75D0924B6E
:1035D0005B6813F00C0F5FD08F4B5B6803F00C033C
:1035E000082B54D06369002B00F089808B4B01229B
:1035F0001A60FFF781FF0546874B1B6813F0020F27
:1036000074D1FFF779FF401B0228F5D9032010E29F
:10361000814A136843F480331360A36843B3FFF710
:103620006BFF05467C4B1B6813F4003FCBD1FFF7C3
:1036300063FF401B6428F5D90320FAE1B3F5A02FFE
:1036400009D0754B1A6822F480321A601A6822F485
:1036500080221A60E1E703F18043A3F53C331A6846
:1036600042F480221A601A6842F480321A60D4E769
:10367000FFF742FF0546684B1B6813F4003FA2D0DA
:10368000FFF73AFF401B6428F5D90320D1E1624BD4
:103690005B6813F4803FA5D15F4B1B6813F0020FEA
:1036A00003D06369012B40F0BF815B4A136823F0AC
:1036B000F803A16943EAC1031360236813F0080FFC
:1036C00032D0E369002B45D0554B01221A60FFF739
:1036D00013FF0546504B5B6A13F0020F21D1FFF731
:1036E0000BFF401B0228F5D90320A2E14A4A1368C8
:1036F00023F0F803A16943EAC1031360DDE7474BF8
:1037000000221A60FFF7F8FE0546434B1B6813F0D2
:10371000020FD2D0FFF7F0FE401B0228F5D903209C
:1037200087E10120FFF702FF236813F0040F00F088
:103730009780394BDB6913F0805F1DD1364BDA6916
:1037400042F08052DA61DB6903F080530193019B00
:10375000012512E0324B00221A60FFF7CDFE05462C
:103760002D4B5B6A13F0020FDED0FFF7C5FE401B46
:103770000228F5D903205CE100252A4B1B6813F4CD
:10378000807F11D02369012B22D0002B38D103F187
:10379000804303F504331A6A22F001021A621A6A9E
:1037A00022F004021A6218E01E4A136843F4807380
:1037B0001360FFF7A1FE06461A4B1B6813F4807FC7
:1037C000E0D1FFF799FE801B6428F5D9032030E192
:1037D000114A136A43F001031362236973B3FFF7BD
:1037E0008BFE06460C4B1B6A13F0020F37D1FFF716
:1037F00083FE801B41F288339842F3D9032018E1FD
:10380000052B11D0044B1A6A22F001021A621A6ABF
:1038100022F004021A62E0E7001002400000424277
:103820008004424200700040864B1A6A42F0040253
:103830001A621A6A42F001021A62CEE7FFF75CFED2
:103840000646804B1B6A13F0020F08D0FFF754FEA8
:10385000801B41F288339842F3D90320E9E075BB1D
:10386000E36A002B6ED0774A526812F4803F05D08D
:10387000744A526802F00C02082A26D0022B4AD160
:10388000704B1B6813F0805F07D06E4BDB6A03F050
:10389000F003626B934240F0C9806B4B00221A60C8
:1038A000FFF72AFE0546674B1B6813F0006F13D025
:1038B000FFF722FE401B6428F5D90320B9E0614AD6
:1038C000D36923F08053D361CAE75E4AD26A12F407
:1038D000803FD3D00120ACE05A4AD36A23F0F003F2
:1038E000616B0B43D362D36A23F47063216B0B4388
:1038F000D362554B01221A60FFF7FEFD0546514B7E
:103900001B6813F0006F1DD1FFF7F6FD401B642804
:10391000F5D903208DE04B4AD36A23F48033D36278
:10392000494B00221A60FFF7E7FD0546454B1B682F
:1039300013F0006F06D0FFF7DFFD401B6428F5D9B8
:10394000032076E0236A002B72D03E4A526802F0D0
:103950000C02082A54D0022B11D03C4B00221A60D2
:10396000FFF7CAFD0446374B1B6813F0007F45D0B4
:10397000FFF7C2FD001B0228F5D9032059E0334BA5
:1039800000221A60FFF7B8FD05462E4B1B6813F0A6
:10399000007F06D0FFF7B0FD401B0228F5D90320B9
:1039A00047E0636AB3F5803F1AD026494B6823F499
:1039B0007413626AA06A024313434B60234B0122D3
:1039C0001A60FFF799FD04461E4B1B6813F0007F39
:1039D00012D1FFF791FD001B0228F5D9032028E042
:1039E000184AD36A61680B43D362D36A23F00F038A
:1039F000E1680B43D362D8E700201AE0002018E00A
:103A0000012B18D00F4B5B6803F48031626A91423E
:103A100013D103F47013A26A934210D1002008E07E
:103A200001207047012004E0012002E0012000E0B5
:103A3000002002B070BD0120FBE70120F9E7012062
:103A4000F7E700BF001002406800424260004242B7
:103A500030B587B00D46022303930323059300235B
:103A600004934FF4807302930A4CA36943F0040358
:103A7000A361A36903F004030193019B02A9064813
:103A800000F026FB636823F070632B43636007B08C
:103A900030BD00BF0010024000080140F0B589B001
:103AA000264B04AC0FCB07C42380254B6C460FCBB1
:103AB00084E80F00234B5A6802F00C03042B37D024
:103AC000082B37D1C2F3834308A90B4413F8104CD9
:103AD00012F4803F28D01B49CB6A03F00F0308AAD9
:103AE000134413F8202CCB6A13F4803F16D0CB6A12
:103AF000C3F303130133CE6AC6F303260236A6FBD3
:103B00000467114DA6FB050105FB0711A3FB02236A
:103B1000FCF78EFB0D2C0ED140080CE00A4800FB90
:103B200004F0B0FBF2F0F5E7084800FB04F002E017
:103B3000054800E0064809B0F0BD00BF24FA0008BF
:103B4000301501080010024040787D0100093D0059
:103B500000127A00002800F0A08070B50D460446DF
:103B6000524B1B6803F007038B420BD24F4A13687A
:103B700023F007030B431360136803F007038B4222
:103B800040F08D80236813F0020F17D013F0040F5C
:103B900004D0474A536843F4E0635360236813F04A
:103BA000080F04D0424A536843F460535360404ABC
:103BB000536823F0F003A1680B435360236813F0AC
:103BC000010F31D06368012B20D0022B25D0384A59
:103BD000126812F0020F64D035494A6822F00302DD
:103BE00013434B60FFF788FC0646314B5B6803F0DC
:103BF0000C036268B3EB820F16D0FFF77DFC801BCD
:103C000041F288339842F0D9032045E0284A1268EF
:103C100012F4003FE0D101203EE0254A126812F084
:103C2000007FD9D1012037E0204B1B6803F0070348
:103C3000AB420AD91D4A136823F007032B431360D4
:103C4000136803F00703AB422DD1236813F0040F70
:103C500006D0174A536823F4E063E1680B435360CE
:103C6000236813F0080F07D0114A536823F46053F8
:103C7000216943EAC1035360FFF710FF0C4B5B68F7
:103C8000C3F303130B4AD35CD8400B4B18600B4BA8
:103C9000186803F09BFE002070BD012070470120D2
:103CA000FAE70120F8E70120F6E700BF0020024014
:103CB00000100240441501083C000020380000209C
:103CC000014B1868704700BF3C00002008B5FFF7A3
:103CD000F7FF044B5B68C3F30223034AD35CD8406D
:103CE00008BD00BF001002405415010808B5FFF7D9
:103CF000E7FF044B5B68C3F3C223034AD35CD8409D
:103D000008BD00BF00100240541501080F230360D6
:103D10000B4B5A6802F0030242605A6802F0F0024C
:103D200082605A6802F4E062C2605B68DB0803F4F8
:103D3000E0630361034B1B6803F007030B607047EC
:103D4000001002400020024070B582B004460368B3
:103D500013F0010F36D06D4BDB6913F0805F40F03C
:103D60008C806A4BDA6942F08052DA61DB6903F0D9
:103D700080530193019B0125654B1B6813F4807FE1
:103D80007DD0624B1B6A13F4407311D0626802F459
:103D900040729A420CD05D4A136A23F440705D4928
:103DA00001260E6000260E60106213F0010F7BD119
:103DB000564A136A23F4407361680B431362002D63
:103DC00040F08480236813F0020F06D04F4A5368F6
:103DD00023F44043A1680B435360236813F0040F9E
:103DE00006D04A4AD36A23F40033E1680B43D36216
:103DF000236813F0080F06D0444AD36A23F48023C3
:103E000021690B43D362414BDB6A13F4003F04D1B9
:103E10003E4BDB6A13F4802F64D03C4B1B6813F0DD
:103E2000805F58D1394B1B6813F0806F06D0374B39
:103E3000DB6A03F0F003A269934261D1334AD36A8B
:103E400023F0F003A1690B43D362D36A23F47043D8
:103E500061690B43D362304B01221A60FFF74CFBC0
:103E600005462A4B1B6813F0005F3BD1FFF744FB6C
:103E7000401B6428F5D9032040E000257CE7244A54
:103E8000136843F480731360FFF736FB0646204B3C
:103E90001B6813F4807F7FF474AFFFF72DFB801B4A
:103EA0006428F4D9032029E0FFF726FB0646174BC8
:103EB0001B6A13F0020F7FF47BAFFFF71DFB801B23
:103EC00041F288339842F2D9032017E0D36923F0F6
:103ED0008053D36176E70D4BDB6A03F4704362696C
:103EE00093420FD1236813F0100F0DD0074A536887
:103EF00023F48003E1690B435360002002B070BDDE
:103F00000120FBE70120F9E70020F7E7001002405D
:103F100000700040400442427000424230B589B017
:103F20000546644B04AC0FCB07C42380624B6C4640
:103F30000FCB84E80F00681E0F2800F2B580DFE881
:103F400000F087A8B34DB3B3B36AB3B3B3B3B3B39D
:103F5000B3085A4B5A68186810F0807000F0A580BA
:103F6000C2F3834308A90B4413F8101C12F4803FDA
:103F700026D0524AD36A03F00F0308A8034413F86B
:103F8000204CD36A13F4803F14D0D36AC3F30313D5
:103F90000133D06AC0F303200230494AB2FBF3F385
:103FA00000FB03F0B0FBF4F001FB00F00D290AD197
:103FB000400808E04248B0FBF4F001FB00F0F5E7F0
:103FC000404800FB01F03D4B5B6813F4800F6CD15F
:103FD00040003D4BA3FB0030400866E0374BDB6AF6
:103FE00013F4003F14D0354B186810F080505CD0AB
:103FF0001A46DB6AC3F303130133D06AC0F30330FC
:1040000002302F4AB2FBF3F300FB03F040004CE018
:10401000FFF744FD49E0294BDB6A13F4802F14D0ED
:10402000264B186810F080503FD01A46DB6AC3F365
:1040300003130133D06AC0F303300230204AB2FBCD
:10404000F3F300FB03F040002FE0FFF727FD2CE027
:104050001A4B1B6A40F202321A40B2F5817F26D019
:1040600003F44073B3F5007F04D0B3F5407F09D06B
:1040700000201AE0114A526A12F0020FF5D049F6F8
:10408000404012E00D4B186810F400300DD00F487E
:104090000BE0FFF72BFE094B5B68C3F38133013361
:1040A0005B00B0FBF3F000E0002009B030BD4FF43E
:1040B0000040FAE734FA0008301501080010024009
:1040C00040787D0100093D00ABAAAAAAF0FA0200DF
:1040D000F0B482B000252C46A3E07F4FBB4210D045
:1040E00007D97E4FBB420CD007F58037BB4208D0C2
:1040F00013E0A7F58017BB4203D007F57027BB423A
:1041000007D18B68002B58D0012B51D04261082574
:1041100003E0A7F58017BB42F3D0FF2E4FD88446AB
:10412000FF2E4FD8A200DCF800300F27974023EA7B
:10413000070305FA02F21343CCF800304B6813F082
:10414000805F6DD0664B9A6942F001029A619B696B
:1041500003F001030193019BA208971C614B53F8E4
:10416000273004F00307BF004FF00F0C0CFA07FCD8
:1041700023EA0C0C5C4B98422AD003F580639842EA
:1041800000F08A8003F58063984200F0878003F591
:10419000806398421AD004231BE0CD68BDE7CD6848
:1041A0000435BAE7CD680835B7E7CD680C35B4E714
:1041B00002610825B1E70025AFE70425ADE700F16E
:1041C000040CADE7A4F108029200ACE7032300E081
:1041D0000023BB4043EA0C030232424F47F822302F
:1041E0004B6813F4803F5BD0404A1368334313603D
:1041F0004B6813F4003F59D03C4A53683343536033
:104200004B6813F4801F57D0384A93683343936048
:104210004B6813F4001F55D0344AD3681E43D66050
:1042200001340B6833FA04F252D00122A24003EAAF
:10423000020632EA0303F3D14B68122B3FF64DAF6F
:10424000122B3FF66AAF01A757F823F0034100088D
:104250009B410008A5410008B74100081B41000828
:104260001B4100081B4100081B4100081B410008BE
:104270001B4100081B4100081B4100081B410008AE
:104280001B4100081B4100081B4100081B4100089E
:104290009F410008AB41000801239AE7022398E7F9
:1042A000124A136823EA06031360A1E70F4A536812
:1042B00023EA06035360A3E70C4A936823EA060344
:1042C0009360A5E7094AD36823EA0606D660A7E704
:1042D00002B0F0BC704700BF000022100000311097
:1042E00000100240000001400008014000040140AD
:1042F0000AB101617047090401617047C36801EAAE
:10430000030221EA030141EA024101617047000012
:10431000074AD36823F4E0631B041B0C000200F47B
:10432000E060034343F0BF6343F40033D36070475E
:1043300000ED00E030B4174BDB68C3F30223C3F198
:104340000704042C28BF04241D1D062D18D9033B87
:104350004FF0FF3505FA04F421EA0401994005FA0B
:1043600003F322EA0303194300280BDB0901C9B256
:1043700000F1604000F5614080F8001330BC7047E8
:104380000023E5E700F00F000901C9B2024B195400
:10439000F4E700BF00ED00E014ED00E0002807DBCB
:1043A00000F01F02400901239340024A42F82030E6
:1043B000704700BF00E100E0014B01221A60704726
:1043C00020000E427047000090F83D30DBB2012B18
:1043D0002BD1022380F83D300268D36843F00103FB
:1043E000D3600368134A934214D0B3F1804F11D0C5
:1043F000A2F5943293420DD002F58062934209D027
:1044000002F58062934205D01A6842F001021A60F8
:10441000002070479A6802F00702062A07D01A683F
:1044200042F001021A60002070470120704700200E
:10443000704700BF002C01407047704770477047BD
:1044400010B5044603681A6912F0020F11D0DA6839
:1044500012F0020F0DD06FF002021A6101230377F0
:1044600003689B6913F0030F70D0FFF7E6FF00238A
:10447000237723681A6912F0040F12D0DA6812F059
:10448000040F0ED06FF004021A6102232377236811
:104490009B6913F4407F5FD02046FFF7CEFF0023D7
:1044A000237723681A6912F0080F12D0DA6812F025
:1044B000080F0ED06FF008021A61042323772368D7
:1044C000DB6913F0030F4ED02046FFF7B6FF002341
:1044D000237723681A6912F0100F12D0DA6812F0ED
:1044E000100F0ED06FF010021A6108232377236893
:1044F000DB6913F4407F3DD02046FFF79EFF002389
:10450000237723681A6912F0010F03D0DA6812F0DA
:10451000010F36D123681A6912F0800F03D0DA68D0
:1045200012F0800F34D123681A6912F0400F03D0C3
:10453000DA6812F0400F32D123681A6912F0200FA6
:1045400003D0DA6812F0200F30D110BDFFF774FFEE
:104550002046FFF773FF8AE72046FFF76DFF2046EE
:10456000FFF76CFF9BE72046FFF766FF2046FFF74B
:1045700065FFACE72046FFF75FFF2046FFF75EFFD1
:10458000BDE76FF001021A612046FCF763FAC1E74C
:104590006FF080021A61204600F07FF8C3E76FF0E9
:1045A00040021A612046FFF74AFFC5E76FF020027C
:1045B0001A61204600F070F8C7E7000003681F4A40
:1045C00090420ED0B0F1804F0BD0A2F594329042C1
:1045D00007D002F58062904203D002F580629042DB
:1045E00003D123F070034A681343144A90420ED05B
:1045F000B0F1804F0BD0A2F59432904207D002F573
:104600008062904203D002F58062904203D123F48D
:104610004073CA68134323F080034A69134303605D
:104620008B68C3620B688362044B984202D00123FB
:10463000436170470B690363F9E700BF002C014039
:1046400040B310B5044690F83D30F3B1022384F82E
:104650003D30214651F8040BFFF7B0FF012384F8E9
:10466000463084F83E3084F83F3084F8403084F897
:10467000413084F8423084F8433084F8443084F880
:10468000453084F83D30002010BD80F83C30FFF705
:1046900099FEDBE701207047704770477047036859
:1046A000B3F1A04F00D0704700B583B003F1704361
:1046B00003F504335A6942F480525A615B6903F48A
:1046C00080530193019B002211464320FFF732FEE5
:1046D0004320FFF763FE03B05DF804FB08B5D0F894
:1046E000C00202F00EF808BD08B5D0F8C00202F012
:1046F00021F808BD08B5D0F8C00202F02DF808BDB9
:1047000008B5D0F8C00202F045F808BD08B5D0F8E9
:10471000C00201F0FFFF08BD08B5D0F8C00202F0EA
:1047200005F808BD90F8C433012B01D00020704774
:1047300010B504460E48C0F8C042C4F8C8034FF094
:10474000A0430360082383600123C3600023C36187
:1047500000F095F940B9064800F0B1FE0146204648
:1047600001F0CCFF002010BDFCF77DF9F3E700BF9E
:10477000D0CF002008B5D0F8C80300F0A5FE01286E
:1047800004D0022804D000B1012008BD0120FCE7BC
:104790000220FAE708B5D0F8C80300F08AFE08BD89
:1047A00008B5D0F8C80300F07DFE08BD08B590F844
:1047B000C433012B04D0C820FEF7A4FE002008BD9E
:1047C000084603F03FF9F6E7D0F8C83301EB810063
:1047D00003EBC00090F83B0038B101EB810103EB23
:1047E000C10181F850200020704701EB810103EBEB
:1047F000C10181F85120F6E7D0F8C83301EB8102FE
:1048000003EBC20292F83B2032B101EB810103EBD2
:10481000C10191F85000704701EB810103EBC10128
:1048200091F85100704708B5FEF76CFE08BD0228EC
:1048300005D8DFE800F005040200012070470220DF
:10484000704708B5D0F8C80300F0FFFDFFF7EFFF91
:1048500008BD08B5D0F8C80300F00DFEFFF7E7FF6C
:1048600008BD08B5D0F8C80300F017FEFFF7DFFF5A
:1048700008BD10B584B0D0F8C803BDF8204002943C
:104880009DF81C4001949DF81840009400F09AF89F
:10489000FFF7CDFF04B010BD08B5D0F8C80300F095
:1048A000DCF8FFF7C4FF08BD10B584B0D0F8C8032A
:1048B0009DF824400394BDF820400294079C019485
:1048C0009DF81840009400F024F9FFF7B0FF04B001
:1048D00010BD000004290CD0052902D0022904D003
:1048E0007047064B03221A707047044B02221A705D
:1048F0007047024B01221A70F2E700BFB20200209B
:1049000008B501220B490C4801F006FD48B90B49D6
:10491000094801F03FFD38B9074801F07FFD30B983
:1049200008BDFCF7A0F8F2E7FCF79DF8F4E7FCF708
:104930009AF8F5E7D548000894D2002040000020FE
:10494000F8B50668346A04F00F07C4F34343C4F3B0
:104950000A14022B00D0F8BD0546002CFBD007EB53
:10496000870300EBC303596C0029F4D0224630467C
:1049700000F05CFE07EB870305EBC3035A6C22448F
:104980005A64DA6C2244DA6406EB4716D6F810252E
:104990000B4B1340002BDED0D6F8003523F08043BC
:1049A00043F00043C6F8003507EB870305EBC3036C
:1049B00093F8502082F0010283F85020CBE700BF2B
:1049C0000000F81FF0B585B004469DF828509DF80A
:1049D0002C60BDF8307090F8B80201283BD001205F
:1049E00084F8B80201EB810004EBC0004FF0000C2A
:1049F00080F83DC080F83830A0F8407080F8391059
:104A000080F83F6002F07F0C80F83AC012F0800F0F
:104A100018D101EB810004EBC0004FF0000C80F8CE
:104A20003BC001EB810004EBC00080F83C500297D2
:104A300001960095206800F0D5FE002384F8B83276
:104A400005B0F0BD01EB810004EBC0004FF0010C9C
:104A500080F83BC0E5E70220F2E790F8B832012B7E
:104A60000BD010B50446012380F8B832006800F07E
:104A7000C0FF002084F8B80210BD02207047002853
:104A800045D0F0B58BB00646046890F8B932002BDB
:104A900038D0032386F8B932E36B13F4807F01D159
:104AA00000233361306800F06BFD344654F810CBBE
:104AB0006D460FCC0FC50FCC0FC594E8030085E8F9
:104AC0000300371D97E80E00604600F021FD01212C
:104AD000306800F05BFD344654F810CB6D460FCCC7
:104AE0000FC50FCC0FC594E8030085E8030097E8D5
:104AF0000E00604600F014FE012386F8B932002053
:104B00000BB0F0BD80F8B832FFF7C9FDC1E7012056
:104B10007047F8B59DF81850BDF8206001EB81048E
:104B200000EBC40484F83B2084F83F308DB901EBDE
:104B3000810400EBC404032784F842709DF82470BC
:104B400084F83D70032B00F29480DFE803F00A8BB9
:104B50002F5D01EB810400EBC404022784F842704E
:104B6000F0E7012D40F08580002A40F0828036B9C0
:104B700001EB810300EBC303012283F8512001EB19
:104B8000810300EBC30393F851303BB901EB810380
:104B900000EBC303002283F842206AE001EB8103AB
:104BA00000EBC303022283F8422062E0AAB901EBC2
:104BB000810300EBC30393F8513033B901EB810358
:104BC00000EBC30383F8422053E001EB810300EBC9
:104BD000C303022283F842204BE001EB810300EB88
:104BE000C30393F850303BB901EB810300EBC303DF
:104BF000002283F842203CE001EB810300EBC30379
:104C0000022283F8422034E0AAB901EB810300EBD1
:104C1000C30393F8513033B901EB810300EBC303B5
:104C200083F8422025E001EB810300EBC30302225D
:104C300083F842201DE001EB810300EBC30393F8EE
:104C400050303BB901EB810300EBC303002283F832
:104C500042200EE001EB810300EBC303022283F844
:104C6000422006E001EB810300EBC303002283F83E
:104C7000422001EB810300EBC303079A5A649E6450
:104C8000002283F85C20DA6483F8391083F85D2011
:104C900001EB8101C90038310144006800F01CFEBD
:104CA000F8BD30B583B004460568D5F840340193AB
:104CB000D5F840340093009B23F02E030093019B12
:104CC00013F0020F07D0019B13F0010F25D1009BB9
:104CD00043F002030093019B13F0080F10D0009BD8
:104CE00043F008030093019B13F0040F2DD0A36938
:104CF000022B15D0E368012B22D02046FFF706FDDA
:104D0000019B13F0200F03D0009B43F0200300937E
:104D1000009BC5F8403403B030BDFFF7E5FCD6E793
:104D2000019B03F4C023B3F5802F04D00121206838
:104D300000F094FCE1E70221206800F08FFCDCE742
:104D40004EF66022C5F80424D7E72046FFF7E4FCBE
:104D5000D6E7F8B506460D46076807EB411707F595
:104D6000A064A36813F0040F33D00423A360E368A6
:104D700043F00203E360A36813F4007F75D1A368D6
:104D800013F0010F00F0A48005EB850306EBC303CD
:104D9000012283F85D2000219965A26093F83F30DD
:104DA000002B6ED0022B6CD0032B7FD0012B72D145
:104DB00005EB850306EBC303012283F85C2093F81F
:104DC0005010514083F8501029463046FFF798FCA8
:104DD00061E0A36813F4807F06D1A36813F0200F6D
:104DE00014D02023A360C6E74FF48073A36001EBC7
:104DF000810300EBC303072283F85D20E36843F0DF
:104E00000203E360006800F0F4FDB4E7A36813F068
:104E1000080F17D1A36813F4806FACD0E36843F098
:104E20000203E360006800F0E4FD1023A36005EBDB
:104E3000850306EBC303082283F85D204FF48063EB
:104E4000A36098E7E36843F00203E36001EB8103AA
:104E500000EBC303052283F85D201023A360082321
:104E6000A360006800F0C5FD85E7E36843F0020336
:104E7000E3602946306800F0BCFD4FF40073A36086
:104E800013E0E36843F00203E3602946306800F072
:104E9000B0FD1023A36005EB850306EBC30393F875
:104EA000502082F0010283F85020F8BDD7F8003579
:104EB00043F00053C7F8003505EB850306EBC30349
:104EC000012283F85C2029463046FFF719FCE2E70F
:104ED000A36813F0020F6CD0E36823F00203E360D1
:104EE00005EB850306EBC30393F85D30012B14D06B
:104EF000052B26D0062B2CD0082B2AD0032B48D0EC
:104F0000072B11D105EB850306EBC3039A6D013224
:104F10009A65042283F85C2006E005EB850306EB26
:104F2000C303012283F85C200223A36005EB850301
:104F300006EBC30393F85C2029463046FFF7E0FBFD
:104F4000B3E705EB850306EBC303052283F85C207A
:104F5000EAE705EB850206EBC202936D0133936528
:104F6000032B0ED9134600229A65042283F85C2095
:104F7000D7F8003523F0804343F00043C7F80035ED
:104F8000D2E705EB850306EBC303022283F85C201E
:104F9000EEE705EB850306EBC303022283F85C20F2
:104FA000D7F8003523F0804343F00043C7F80035BD
:104FB000BAE7A36813F0800F27D1A36813F0100F8E
:104FC0003FF473AF05EB850306EBC30393F83F3063
:104FD000032B33D00BB1022B14D105EB850306EB69
:104FE000C30300229A6505EB850306EBC303032286
:104FF00083F85D20E36843F00203E36029463068EC
:1050000000F0F7FC1023A3604FE7E36843F00203CE
:10501000E36005EB850306EBC3039A6D01329A65E5
:1050200005EB850306EBC303062283F85D202946C2
:10503000306800F0DEFC8023A36036E705EB8503D3
:1050400006EBC30300229A65E36843F00203E360C2
:105050002946306800F0CDFCD4E7F8B5036803EBCF
:10506000411303F5A065AA6812F0040F06D00423CB
:10507000AB60EB6843F00203EB60F8BD06460C46FC
:10508000AA6812F0200F1ED02023AB6001EB810331
:1050900000EBC30393F83D30012BEED101EB81030C
:1050A00000EBC303002283F83D2001EB810300EBFA
:1050B000C303022283F85C20EB681343EB600068B3
:1050C00000F097FCD9E7AA6812F0400F52D1AA6805
:1050D00012F4007F68D1AA6812F0010F6FD1AA689C
:1050E00012F0080F40F08180AA6812F0100F40F013
:1050F0008D80AA6812F0800F40F09F80AA6812F499
:10510000806F40F0AB80AA6812F0020FB5D0EA6859
:1051100022F00202EA6001EB810200EBC20292F887
:105120005D20012A00F0AE80032A00F0C280042A2C
:1051300000F0D380052A00F0D880062A02D0082A81
:1051400040F0BE80282101FB04618A6D01328A652E
:10515000032A40F2D0800A4600219165042182F89A
:105160005C10D3F8002522F0804242F00042C3F8E0
:105170000025A5E001EB810300EBC303042283F8C3
:105180005D20012283F83D2001EB810300EBC30386
:1051900000229A65EB6843F00203EB60006800F0C0
:1051A00028FC4023AB6068E7EB6843F00203EB6048
:1051B000006800F01EFC4FF40073AB605DE78F00E9
:1051C00001EB810300EBC30300229A65EB6843F017
:1051D0000203EB60006800F00CFC0123AB603C4470
:1051E00006EBC40686F85D3047E70823AB60EB6842
:1051F00043F00203EB60006800F0FBFB04EB840467
:1052000006EBC406052386F85D3036E701EB810323
:1052100000EBC30300229A6501EB810300EBC3039B
:10522000032283F85D20EB6843F00203EB60006823
:1052300000F0DFFB1023AB601FE7EB6843F00203D5
:10524000EB60006800F0D5FB04EB840406EBC406B9
:10525000062386F85D308023AB600EE7EB6843F0F1
:105260000203EB60006800F0C4FB1023AB604FF456
:105270008063AB6004EB840406EBC406082386F865
:105280005D30FAE601EB810300EBC30383F85C2099
:1052900093F83F30023BDBB2934211D801EB81031C
:1052A00000EBC30393F8512082F0010283F85120F0
:1052B00006E001EB810300EBC303022283F85C20CC
:1052C0000223AB6004EB840306EBC30393F85C207A
:1052D00021463046FFF714FACFE601EB810300EBDD
:1052E000C303022283F85C20EAE7282303FB0103BF
:1052F00083F85C20E4E7282202FB0462022182F8A2
:105300005C102EE7F8B504460568284600F0A2F9BF
:10531000012800D0F8BD206800F098F90028F9D0E5
:10532000206800F093F910F4001F03D023684FF4B5
:1053300000125A61206800F089F910F4801F03D030
:1053400023684FF480125A61206800F07FF910F052
:10535000806F03D023684FF080625A61206800F0AC
:1053600075F910F0020F02D0236802225A612068FA
:1053700000F06CF910F0005F08D023684FF0005285
:105380005A61D5F8403413F0010F25D0206800F0A1
:105390005DF910F0807F27D1206800F057F910F0F8
:1053A000080F25D1206800F051F910F0007F26D1B8
:1053B000206800F04BF910F0100FABD02268936911
:1053C00023F0100393612046FFF7BAFA226893692D
:1053D00043F0100393619DE72046FFF78BF901210D
:1053E000206800F03BF9D1E72046FFF75AFCD3E7ED
:1053F0002046FFF773F9236808225A61D2E7206834
:1054000000F0F2FA0746002604E0F1B22046FFF76A
:1054100024FE0136A368B34212D906F00F0327FA1F
:1054200003F313F0010FF4D005EB4613D3F8003566
:1054300013F4004FE9D0F1B22046FFF78AFCE8E709
:1054400023684FF000725A61B2E738B590F8B8326D
:10545000012B0ED00446012580F8B852006800F0F8
:1054600089F82946206800F037F9002084F8B8024E
:1054700038BD0220FCE790F8B832012B0BD010B5F4
:105480000446012380F8B832006800F019FB0020C0
:1054900084F8B80210BD0220704708B5006800F01B
:1054A000FCF808BD01EB810100EBC10191F85C0043
:1054B000704701EB810100EBC101C86C704708B572
:1054C000006800F08AF908BD08B5006800F07AF9B4
:1054D00008BD0000002301330C4A934211D8026931
:1054E000002AF8DA036943F0010303610023013362
:1054F000064A934207D8026912F0010FF7D1002043
:105500007047032070470320704700BF400D030021
:1055100084B010B5044603A880E80E00089B012B58
:105520001CD1A36B23F48033A363E36823F48403C7
:1055300023F04003E360E36823F44013E3600F9B30
:10554000012B06D02046FFF7C5FFBDE8104004B090
:105550007047E36843F48013E360F3E7E36843F0E4
:105560004003E3602046FFF7B5FFA36B43F48033AD
:10557000A363EAE7836843F0010383600020704778
:10558000836823F0010383600020704708B5C36877
:1055900023F0C043C360012909D069B9C36843F04F
:1055A0008043C3603220FDF7ADFF002008BDC36813
:1055B00043F00053C360F5E70120F7E7890141F0AC
:1055C0002001016100230133054A934205D8026995
:1055D00012F0200FF7D1002070470320704700BF62
:1055E000400D03001023036100230133054A934259
:1055F00005D8026912F0100FF7D100207047032080
:10560000704700BF400D030070B403339E080024B0
:10561000B44208D200EB023303F5805351F8045B27
:105620001D600134F4E7002070BC704710B40332F1
:1056300094080023A34206D200F58052126841F874
:10564000042B0133F6E7084610BC704742698069B5
:1056500010407047406900F00100704710B400F539
:105660008064D0F8003423F00303C0F80034D0F88D
:10567000003401F003021343C0F80034012904D0C0
:10568000022906D0002010BC70474BF680336360BF
:10569000F8E741F270736360F4E730B583B0044615
:1056A00000250195D0F840340193019B23F02E038F
:1056B0000193019B43F48073C0F840346420FDF7EC
:1056C00021FF019B23F48073C4F840340A20FDF7C6
:1056D00019FF284603B030BD82B000230193D0F8F3
:1056E00040340193019B23F02E030193019B13F49B
:1056F000805F01D101290CD0019B13F4805F05D09C
:1057000021B9019B23F48053C0F84034002002B03B
:105710007047019B43F48053C0F84034ECE700002D
:1057200084B070B5054605AC84E80E00064600243A
:10573000C0F8004E836B23F480238363836B23F4D0
:1057400000238363D0F8003423F00403C0F800344E
:105750001021FFF733FF2846FFF744FF2246069B40
:1057600093420AD906EB42134FF0FF31C3F80815F4
:105770000021C3F80C150132F1E701212846FFF79B
:10578000ABFFC820FDF7BEFE0020A8614FF0FF333D
:105790006B6180236B6203F5C003AB62074BC5F8F6
:1057A0000031AB6943F01003AB61AA69044B1343AA
:1057B000AB61BDE8704004B0704700BFE00040003E
:1057C000080020A382B000230193D0F84034019355
:1057D0000198C0F3414002B0704700F580608068D6
:1057E00080B27047F0B506469DF8184000EB4115B1
:1057F00005F5A0604FF0FF378760032C5DD8DFE828
:1058000004F0024E024040F29D47C76012F0800F44
:1058100031D1002006F5806ED6F8187401F00F0122
:105820004FF0010C0CFA01F13943C6F81814B169B4
:1058300041F00071B16112F0800F40D100269DF857
:10584000141002293ED000219B0503F0FE53D20222
:1058500002F4F0421343A20402F440221343BDF8C1
:105860001C20C2F30A02134333430B43C5F800352F
:10587000032C2AD0F0BDC76847F48077C7600020AA
:10588000C8E740F29D67C76012F0800F01D1002089
:10589000C0E7C76847F48077C7600020BAE740F2E6
:1058A0002527C76012F0800F01D10020B2E7C7683A
:1058B00047F4C077C7600020ACE70120AAE74FF4A7
:1058C0000046BCE74FF40031BEE7D5F8003543F0A1
:1058D0000053C5F80035CDE738B54B780A696AB191
:1058E0000C892244013AB2FBF4F292B2B2F5807F05
:1058F00005D924020C614FF4807200E00122CC78BB
:105900001CB10C8904FB02F40C610C69C4F3120491
:10591000334D05EAC24222438C7A640704F0C04446
:1059200000EB43132243C3F8102500F58065AA68F5
:1059300012F0010FD3F8002522F00052C3F8002521
:10594000D3F800250CBF4FF0005400242243C3F8C5
:105950000025D3F80045234A1460146824F08044DD
:105960001460CA78BAB11F4C226842F40042226027
:105970001C4A146844F0004414601268C3F80025FF
:10598000CB78F3B90B69E3B1CA79032A14D8DFE8FD
:1059900002F0081A081A134C226822F4004222600E
:1059A000E6E70333C26A92B2C3F38F039A4203D28B
:1059B000836943F0200383610B8A4A78C968FFF743
:1059C00023FE002038BD03332A6992B2C3F38F034C
:1059D0009A42F1D2836943F080638361ECE700BFB0
:1059E0000000F81FB402002000F58060406980B21A
:1059F000704710B400EB411101F5A064D1F80035F7
:105A0000C3F3814213F4402F26D0022A24D0D1F8C8
:105A1000003543F08043C1F80035D0F8103413F45A
:105A20007F0346D1D1F8002522F00042C1F80025BD
:105A3000D1F8002542F00042C1F80025D1F8002538
:105A400022F40042C1F800250133B3F57A7F2DD846
:105A50002268002AF8DB29E0D1F8003543F08043C2
:105A6000C1F80035C36A13F47F0319D1D1F80025BA
:105A700022F00042C1F80025D1F8002542F0004292
:105A8000C1F80025D1F8002522F40042C1F8002514
:105A90000133B3F57A7F09D82268002AF8DB05E0E4
:105AA000D1F8003543F00043C1F80035002010BCA8
:105AB0007047D1F8003543F00043C1F80035F5E7F1
:105AC00070B505460446FFF75BFD10212846FFF739
:105AD00075FD2846FFF786FD00220AE004EB42111F
